{
	"data": {
		"bytecode": {
			"linkReferences": {},
			"object": "608060405234801561000f575f80fd5b506111e88061001d5f395ff3fe608060405234801561000f575f80fd5b5060043610610055575f3560e01c80631130d00e1461005957806325c45246146100755780633a9364d1146100ac5780633dd16b06146100c8578063d5e9c427146100fc575b5f80fd5b610073600480360381019061006e9190610a5b565b610118565b005b61008f600480360381019061008a9190610b70565b610220565b6040516100a3989796959493929190610c40565b60405180910390f35b6100c660048036038101906100c19190610b70565b610519565b005b6100e260048036038101906100dd9190610b70565b61059b565b6040516100f3959493929190610cdf565b60405180910390f35b61011660048036038101906101119190610d4c565b610813565b005b5f80876040516101289190610e6d565b9081526020016040518091039020905086815f019081610148919061107d565b508581600101908161015a919061107d565b508481600201908161016c919061107d565b508381600301908161017e919061107d565b5082816004019081610190919061107d565b50818160050181905550428160060181905550428160070181905550856040516101ba9190610e6d565b6040518091039020876040516101d09190610e6d565b60405180910390207f1273f1fc52c064231590b2da28f4c20ebfa62a334166ad757fe7d4cc289e7647878787874260405161020f95949392919061114c565b60405180910390a350505050505050565b5f818051602081018201805184825260208301602085012081835280955050505050505f91509050805f01805461025690610eb0565b80601f016020809104026020016040519081016040528092919081815260200182805461028290610eb0565b80156102cd5780601f106102a4576101008083540402835291602001916102cd565b820191905f5260205f20905b8154815290600101906020018083116102b057829003601f168201915b5050505050908060010180546102e290610eb0565b80601f016020809104026020016040519081016040528092919081815260200182805461030e90610eb0565b80156103595780601f1061033057610100808354040283529160200191610359565b820191905f5260205f20905b81548152906001019060200180831161033c57829003601f168201915b50505050509080600201805461036e90610eb0565b80601f016020809104026020016040519081016040528092919081815260200182805461039a90610eb0565b80156103e55780601f106103bc576101008083540402835291602001916103e5565b820191905f5260205f20905b8154815290600101906020018083116103c857829003601f168201915b5050505050908060030180546103fa90610eb0565b80601f016020809104026020016040519081016040528092919081815260200182805461042690610eb0565b80156104715780601f1061044857610100808354040283529160200191610471565b820191905f5260205f20905b81548152906001019060200180831161045457829003601f168201915b50505050509080600401805461048690610eb0565b80601f01602080910402602001604051908101604052809291908181526020018280546104b290610eb0565b80156104fd5780601f106104d4576101008083540402835291602001916104fd565b820191905f5260205f20905b8154815290600101906020018083116104e057829003601f168201915b5050505050908060050154908060060154908060070154905088565b5f816040516105289190610e6d565b90815260200160405180910390205f8082015f6105459190610883565b600182015f6105549190610883565b600282015f6105639190610883565b600382015f6105729190610883565b600482015f6105819190610883565b600582015f9055600682015f9055600782015f9055505050565b6060806060805f805f876040516105b29190610e6d565b908152602001604051809103902090508060010181600201826003018360040184600501548480546105e390610eb0565b80601f016020809104026020016040519081016040528092919081815260200182805461060f90610eb0565b801561065a5780601f106106315761010080835404028352916020019161065a565b820191905f5260205f20905b81548152906001019060200180831161063d57829003601f168201915b5050505050945083805461066d90610eb0565b80601f016020809104026020016040519081016040528092919081815260200182805461069990610eb0565b80156106e45780601f106106bb576101008083540402835291602001916106e4565b820191905f5260205f20905b8154815290600101906020018083116106c757829003601f168201915b505050505093508280546106f790610eb0565b80601f016020809104026020016040519081016040528092919081815260200182805461072390610eb0565b801561076e5780601f106107455761010080835404028352916020019161076e565b820191905f5260205f20905b81548152906001019060200180831161075157829003601f168201915b5050505050925081805461078190610eb0565b80601f01602080910402602001604051908101604052809291908181526020018280546107ad90610eb0565b80156107f85780601f106107cf576101008083540402835291602001916107f8565b820191905f5260205f20905b8154815290600101906020018083116107db57829003601f168201915b50505050509150955095509550955095505091939590929450565b5f80866040516108239190610e6d565b9081526020016040518091039020905084816002019081610844919061107d565b5083816003019081610856919061107d565b5082816004019081610868919061107d565b50818160050181905550428160070181905550505050505050565b50805461088f90610eb0565b5f825580601f106108a057506108bd565b601f0160209004905f5260205f20908101906108bc91906108c0565b5b50565b5b808211156108d7575f815f9055506001016108c1565b5090565b5f604051905090565b5f80fd5b5f80fd5b5f80fd5b5f80fd5b5f601f19601f8301169050919050565b7f4e487b71000000000000000000000000000000000000000000000000000000005f52604160045260245ffd5b61093a826108f4565b810181811067ffffffffffffffff8211171561095957610958610904565b5b80604052505050565b5f61096b6108db565b90506109778282610931565b919050565b5f67ffffffffffffffff82111561099657610995610904565b5b61099f826108f4565b9050602081019050919050565b828183375f83830152505050565b5f6109cc6109c78461097c565b610962565b9050828152602081018484840111156109e8576109e76108f0565b5b6109f38482856109ac565b509392505050565b5f82601f830112610a0f57610a0e6108ec565b5b8135610a1f8482602086016109ba565b91505092915050565b5f819050919050565b610a3a81610a28565b8114610a44575f80fd5b50565b5f81359050610a5581610a31565b92915050565b5f805f805f8060c08789031215610a7557610a746108e4565b5b5f87013567ffffffffffffffff811115610a9257610a916108e8565b5b610a9e89828a016109fb565b965050602087013567ffffffffffffffff811115610abf57610abe6108e8565b5b610acb89828a016109fb565b955050604087013567ffffffffffffffff811115610aec57610aeb6108e8565b5b610af889828a016109fb565b945050606087013567ffffffffffffffff811115610b1957610b186108e8565b5b610b2589828a016109fb565b935050608087013567ffffffffffffffff811115610b4657610b456108e8565b5b610b5289828a016109fb565b92505060a0610b6389828a01610a47565b9150509295509295509295565b5f60208284031215610b8557610b846108e4565b5b5f82013567ffffffffffffffff811115610ba257610ba16108e8565b5b610bae848285016109fb565b91505092915050565b5f81519050919050565b5f82825260208201905092915050565b5f5b83811015610bee578082015181840152602081019050610bd3565b5f8484015250505050565b5f610c0382610bb7565b610c0d8185610bc1565b9350610c1d818560208601610bd1565b610c26816108f4565b840191505092915050565b610c3a81610a28565b82525050565b5f610100820190508181035f830152610c59818b610bf9565b90508181036020830152610c6d818a610bf9565b90508181036040830152610c818189610bf9565b90508181036060830152610c958188610bf9565b90508181036080830152610ca98187610bf9565b9050610cb860a0830186610c31565b610cc560c0830185610c31565b610cd260e0830184610c31565b9998505050505050505050565b5f60a0820190508181035f830152610cf78188610bf9565b90508181036020830152610d0b8187610bf9565b90508181036040830152610d1f8186610bf9565b90508181036060830152610d338185610bf9565b9050610d426080830184610c31565b9695505050505050565b5f805f805f60a08688031215610d6557610d646108e4565b5b5f86013567ffffffffffffffff811115610d8257610d816108e8565b5b610d8e888289016109fb565b955050602086013567ffffffffffffffff811115610daf57610dae6108e8565b5b610dbb888289016109fb565b945050604086013567ffffffffffffffff811115610ddc57610ddb6108e8565b5b610de8888289016109fb565b935050606086013567ffffffffffffffff811115610e0957610e086108e8565b5b610e15888289016109fb565b9250506080610e2688828901610a47565b9150509295509295909350565b5f81905092915050565b5f610e4782610bb7565b610e518185610e33565b9350610e61818560208601610bd1565b80840191505092915050565b5f610e788284610e3d565b915081905092915050565b7f4e487b71000000000000000000000000000000000000000000000000000000005f52602260045260245ffd5b5f6002820490506001821680610ec757607f821691505b602082108103610eda57610ed9610e83565b5b50919050565b5f819050815f5260205f209050919050565b5f6020601f8301049050919050565b5f82821b905092915050565b5f60088302610f3c7fffffffffffffffffffffffffffffffffffffffffffffffffffffffffffffffff82610f01565b610f468683610f01565b95508019841693508086168417925050509392505050565b5f819050919050565b5f610f81610f7c610f7784610a28565b610f5e565b610a28565b9050919050565b5f819050919050565b610f9a83610f67565b610fae610fa682610f88565b848454610f0d565b825550505050565b5f90565b610fc2610fb6565b610fcd818484610f91565b505050565b5b81811015610ff057610fe55f82610fba565b600181019050610fd3565b5050565b601f8211156110355761100681610ee0565b61100f84610ef2565b8101602085101561101e578190505b61103261102a85610ef2565b830182610fd2565b50505b505050565b5f82821c905092915050565b5f6110555f198460080261103a565b1980831691505092915050565b5f61106d8383611046565b9150826002028217905092915050565b61108682610bb7565b67ffffffffffffffff81111561109f5761109e610904565b5b6110a98254610eb0565b6110b4828285610ff4565b5f60209050601f8311600181146110e5575f84156110d3578287015190505b6110dd8582611062565b865550611144565b601f1984166110f386610ee0565b5f5b8281101561111a578489015182556001820191506020850194506020810190506110f5565b868310156111375784890151611133601f891682611046565b8355505b6001600288020188555050505b505050505050565b5f60a0820190508181035f8301526111648188610bf9565b905081810360208301526111788187610bf9565b9050818103604083015261118c8186610bf9565b905061119b6060830185610c31565b6111a86080830184610c31565b969550505050505056fea2646970667358221220e0d4d9986ffaa1fae9febe1e21cafa63960421799393813e2c3a0a06f81bf78264736f6c63430008180033",
			"opcodes": "PUSH1 0x80 PUSH1 0x40 MSTORE CALLVALUE DUP1 ISZERO PUSH2 0xF JUMPI PUSH0 DUP1 REVERT JUMPDEST POP PUSH2 0x11E8 DUP1 PUSH2 0x1D PUSH0 CODECOPY PUSH0 RETURN INVALID PUSH1 0x80 PUSH1 0x40 MSTORE CALLVALUE DUP1 ISZERO PUSH2 0xF JUMPI PUSH0 DUP1 REVERT JUMPDEST POP PUSH1 0x4 CALLDATASIZE LT PUSH2 0x55 JUMPI PUSH0 CALLDATALOAD PUSH1 0xE0 SHR DUP1 PUSH4 0x1130D00E EQ PUSH2 0x59 JUMPI DUP1 PUSH4 0x25C45246 EQ PUSH2 0x75 JUMPI DUP1 PUSH4 0x3A9364D1 EQ PUSH2 0xAC JUMPI DUP1 PUSH4 0x3DD16B06 EQ PUSH2 0xC8 JUMPI DUP1 PUSH4 0xD5E9C427 EQ PUSH2 0xFC JUMPI JUMPDEST PUSH0 DUP1 REVERT JUMPDEST PUSH2 0x73 PUSH1 0x4 DUP1 CALLDATASIZE SUB DUP2 ADD SWAP1 PUSH2 0x6E SWAP2 SWAP1 PUSH2 0xA5B JUMP JUMPDEST PUSH2 0x118 JUMP JUMPDEST STOP JUMPDEST PUSH2 0x8F PUSH1 0x4 DUP1 CALLDATASIZE SUB DUP2 ADD SWAP1 PUSH2 0x8A SWAP2 SWAP1 PUSH2 0xB70 JUMP JUMPDEST PUSH2 0x220 JUMP JUMPDEST PUSH1 0x40 MLOAD PUSH2 0xA3 SWAP9 SWAP8 SWAP7 SWAP6 SWAP5 SWAP4 SWAP3 SWAP2 SWAP1 PUSH2 0xC40 JUMP JUMPDEST PUSH1 0x40 MLOAD DUP1 SWAP2 SUB SWAP1 RETURN JUMPDEST PUSH2 0xC6 PUSH1 0x4 DUP1 CALLDATASIZE SUB DUP2 ADD SWAP1 PUSH2 0xC1 SWAP2 SWAP1 PUSH2 0xB70 JUMP JUMPDEST PUSH2 0x519 JUMP JUMPDEST STOP JUMPDEST PUSH2 0xE2 PUSH1 0x4 DUP1 CALLDATASIZE SUB DUP2 ADD SWAP1 PUSH2 0xDD SWAP2 SWAP1 PUSH2 0xB70 JUMP JUMPDEST PUSH2 0x59B JUMP JUMPDEST PUSH1 0x40 MLOAD PUSH2 0xF3 SWAP6 SWAP5 SWAP4 SWAP3 SWAP2 SWAP1 PUSH2 0xCDF JUMP JUMPDEST PUSH1 0x40 MLOAD DUP1 SWAP2 SUB SWAP1 RETURN JUMPDEST PUSH2 0x116 PUSH1 0x4 DUP1 CALLDATASIZE SUB DUP2 ADD SWAP1 PUSH2 0x111 SWAP2 SWAP1 PUSH2 0xD4C JUMP JUMPDEST PUSH2 0x813 JUMP JUMPDEST STOP JUMPDEST PUSH0 DUP1 DUP8 PUSH1 0x40 MLOAD PUSH2 0x128 SWAP2 SWAP1 PUSH2 0xE6D JUMP JUMPDEST SWAP1 DUP2 MSTORE PUSH1 0x20 ADD PUSH1 0x40 MLOAD DUP1 SWAP2 SUB SWAP1 KECCAK256 SWAP1 POP DUP7 DUP2 PUSH0 ADD SWAP1 DUP2 PUSH2 0x148 SWAP2 SWAP1 PUSH2 0x107D JUMP JUMPDEST POP DUP6 DUP2 PUSH1 0x1 ADD SWAP1 DUP2 PUSH2 0x15A SWAP2 SWAP1 PUSH2 0x107D JUMP JUMPDEST POP DUP5 DUP2 PUSH1 0x2 ADD SWAP1 DUP2 PUSH2 0x16C SWAP2 SWAP1 PUSH2 0x107D JUMP JUMPDEST POP DUP4 DUP2 PUSH1 0x3 ADD SWAP1 DUP2 PUSH2 0x17E SWAP2 SWAP1 PUSH2 0x107D JUMP JUMPDEST POP DUP3 DUP2 PUSH1 0x4 ADD SWAP1 DUP2 PUSH2 0x190 SWAP2 SWAP1 PUSH2 0x107D JUMP JUMPDEST POP DUP2 DUP2 PUSH1 0x5 ADD DUP2 SWAP1 SSTORE POP TIMESTAMP DUP2 PUSH1 0x6 ADD DUP2 SWAP1 SSTORE POP TIMESTAMP DUP2 PUSH1 0x7 ADD DUP2 SWAP1 SSTORE POP DUP6 PUSH1 0x40 MLOAD PUSH2 0x1BA SWAP2 SWAP1 PUSH2 0xE6D JUMP JUMPDEST PUSH1 0x40 MLOAD DUP1 SWAP2 SUB SWAP1 KECCAK256 DUP8 PUSH1 0x40 MLOAD PUSH2 0x1D0 SWAP2 SWAP1 PUSH2 0xE6D JUMP JUMPDEST PUSH1 0x40 MLOAD DUP1 SWAP2 SUB SWAP1 KECCAK256 PUSH32 0x1273F1FC52C064231590B2DA28F4C20EBFA62A334166AD757FE7D4CC289E7647 DUP8 DUP8 DUP8 DUP8 TIMESTAMP PUSH1 0x40 MLOAD PUSH2 0x20F SWAP6 SWAP5 SWAP4 SWAP3 SWAP2 SWAP1 PUSH2 0x114C JUMP JUMPDEST PUSH1 0x40 MLOAD DUP1 SWAP2 SUB SWAP1 LOG3 POP POP POP POP POP POP POP JUMP JUMPDEST PUSH0 DUP2 DUP1 MLOAD PUSH1 0x20 DUP2 ADD DUP3 ADD DUP1 MLOAD DUP5 DUP3 MSTORE PUSH1 0x20 DUP4 ADD PUSH1 0x20 DUP6 ADD KECCAK256 DUP2 DUP4 MSTORE DUP1 SWAP6 POP POP POP POP POP POP PUSH0 SWAP2 POP SWAP1 POP DUP1 PUSH0 ADD DUP1 SLOAD PUSH2 0x256 SWAP1 PUSH2 0xEB0 JUMP JUMPDEST DUP1 PUSH1 0x1F ADD PUSH1 0x20 DUP1 SWAP2 DIV MUL PUSH1 0x20 ADD PUSH1 0x40 MLOAD SWAP1 DUP2 ADD PUSH1 0x40 MSTORE DUP1 SWAP3 SWAP2 SWAP1 DUP2 DUP2 MSTORE PUSH1 0x20 ADD DUP3 DUP1 SLOAD PUSH2 0x282 SWAP1 PUSH2 0xEB0 JUMP JUMPDEST DUP1 ISZERO PUSH2 0x2CD JUMPI DUP1 PUSH1 0x1F LT PUSH2 0x2A4 JUMPI PUSH2 0x100 DUP1 DUP4 SLOAD DIV MUL DUP4 MSTORE SWAP2 PUSH1 0x20 ADD SWAP2 PUSH2 0x2CD JUMP JUMPDEST DUP3 ADD SWAP2 SWAP1 PUSH0 MSTORE PUSH1 0x20 PUSH0 KECCAK256 SWAP1 JUMPDEST DUP2 SLOAD DUP2 MSTORE SWAP1 PUSH1 0x1 ADD SWAP1 PUSH1 0x20 ADD DUP1 DUP4 GT PUSH2 0x2B0 JUMPI DUP3 SWAP1 SUB PUSH1 0x1F AND DUP3 ADD SWAP2 JUMPDEST POP POP POP POP POP SWAP1 DUP1 PUSH1 0x1 ADD DUP1 SLOAD PUSH2 0x2E2 SWAP1 PUSH2 0xEB0 JUMP JUMPDEST DUP1 PUSH1 0x1F ADD PUSH1 0x20 DUP1 SWAP2 DIV MUL PUSH1 0x20 ADD PUSH1 0x40 MLOAD SWAP1 DUP2 ADD PUSH1 0x40 MSTORE DUP1 SWAP3 SWAP2 SWAP1 DUP2 DUP2 MSTORE PUSH1 0x20 ADD DUP3 DUP1 SLOAD PUSH2 0x30E SWAP1 PUSH2 0xEB0 JUMP JUMPDEST DUP1 ISZERO PUSH2 0x359 JUMPI DUP1 PUSH1 0x1F LT PUSH2 0x330 JUMPI PUSH2 0x100 DUP1 DUP4 SLOAD DIV MUL DUP4 MSTORE SWAP2 PUSH1 0x20 ADD SWAP2 PUSH2 0x359 JUMP JUMPDEST DUP3 ADD SWAP2 SWAP1 PUSH0 MSTORE PUSH1 0x20 PUSH0 KECCAK256 SWAP1 JUMPDEST DUP2 SLOAD DUP2 MSTORE SWAP1 PUSH1 0x1 ADD SWAP1 PUSH1 0x20 ADD DUP1 DUP4 GT PUSH2 0x33C JUMPI DUP3 SWAP1 SUB PUSH1 0x1F AND DUP3 ADD SWAP2 JUMPDEST POP POP POP POP POP SWAP1 DUP1 PUSH1 0x2 ADD DUP1 SLOAD PUSH2 0x36E SWAP1 PUSH2 0xEB0 JUMP JUMPDEST DUP1 PUSH1 0x1F ADD PUSH1 0x20 DUP1 SWAP2 DIV MUL PUSH1 0x20 ADD PUSH1 0x40 MLOAD SWAP1 DUP2 ADD PUSH1 0x40 MSTORE DUP1 SWAP3 SWAP2 SWAP1 DUP2 DUP2 MSTORE PUSH1 0x20 ADD DUP3 DUP1 SLOAD PUSH2 0x39A SWAP1 PUSH2 0xEB0 JUMP JUMPDEST DUP1 ISZERO PUSH2 0x3E5 JUMPI DUP1 PUSH1 0x1F LT PUSH2 0x3BC JUMPI PUSH2 0x100 DUP1 DUP4 SLOAD DIV MUL DUP4 MSTORE SWAP2 PUSH1 0x20 ADD SWAP2 PUSH2 0x3E5 JUMP JUMPDEST DUP3 ADD SWAP2 SWAP1 PUSH0 MSTORE PUSH1 0x20 PUSH0 KECCAK256 SWAP1 JUMPDEST DUP2 SLOAD DUP2 MSTORE SWAP1 PUSH1 0x1 ADD SWAP1 PUSH1 0x20 ADD DUP1 DUP4 GT PUSH2 0x3C8 JUMPI DUP3 SWAP1 SUB PUSH1 0x1F AND DUP3 ADD SWAP2 JUMPDEST POP POP POP POP POP SWAP1 DUP1 PUSH1 0x3 ADD DUP1 SLOAD PUSH2 0x3FA SWAP1 PUSH2 0xEB0 JUMP JUMPDEST DUP1 PUSH1 0x1F ADD PUSH1 0x20 DUP1 SWAP2 DIV MUL PUSH1 0x20 ADD PUSH1 0x40 MLOAD SWAP1 DUP2 ADD PUSH1 0x40 MSTORE DUP1 SWAP3 SWAP2 SWAP1 DUP2 DUP2 MSTORE PUSH1 0x20 ADD DUP3 DUP1 SLOAD PUSH2 0x426 SWAP1 PUSH2 0xEB0 JUMP JUMPDEST DUP1 ISZERO PUSH2 0x471 JUMPI DUP1 PUSH1 0x1F LT PUSH2 0x448 JUMPI PUSH2 0x100 DUP1 DUP4 SLOAD DIV MUL DUP4 MSTORE SWAP2 PUSH1 0x20 ADD SWAP2 PUSH2 0x471 JUMP JUMPDEST DUP3 ADD SWAP2 SWAP1 PUSH0 MSTORE PUSH1 0x20 PUSH0 KECCAK256 SWAP1 JUMPDEST DUP2 SLOAD DUP2 MSTORE SWAP1 PUSH1 0x1 ADD SWAP1 PUSH1 0x20 ADD DUP1 DUP4 GT PUSH2 0x454 JUMPI DUP3 SWAP1 SUB PUSH1 0x1F AND DUP3 ADD SWAP2 JUMPDEST POP POP POP POP POP SWAP1 DUP1 PUSH1 0x4 ADD DUP1 SLOAD PUSH2 0x486 SWAP1 PUSH2 0xEB0 JUMP JUMPDEST DUP1 PUSH1 0x1F ADD PUSH1 0x20 DUP1 SWAP2 DIV MUL PUSH1 0x20 ADD PUSH1 0x40 MLOAD SWAP1 DUP2 ADD PUSH1 0x40 MSTORE DUP1 SWAP3 SWAP2 SWAP1 DUP2 DUP2 MSTORE PUSH1 0x20 ADD DUP3 DUP1 SLOAD PUSH2 0x4B2 SWAP1 PUSH2 0xEB0 JUMP JUMPDEST DUP1 ISZERO PUSH2 0x4FD JUMPI DUP1 PUSH1 0x1F LT PUSH2 0x4D4 JUMPI PUSH2 0x100 DUP1 DUP4 SLOAD DIV MUL DUP4 MSTORE SWAP2 PUSH1 0x20 ADD SWAP2 PUSH2 0x4FD JUMP JUMPDEST DUP3 ADD SWAP2 SWAP1 PUSH0 MSTORE PUSH1 0x20 PUSH0 KECCAK256 SWAP1 JUMPDEST DUP2 SLOAD DUP2 MSTORE SWAP1 PUSH1 0x1 ADD SWAP1 PUSH1 0x20 ADD DUP1 DUP4 GT PUSH2 0x4E0 JUMPI DUP3 SWAP1 SUB PUSH1 0x1F AND DUP3 ADD SWAP2 JUMPDEST POP POP POP POP POP SWAP1 DUP1 PUSH1 0x5 ADD SLOAD SWAP1 DUP1 PUSH1 0x6 ADD SLOAD SWAP1 DUP1 PUSH1 0x7 ADD SLOAD SWAP1 POP DUP9 JUMP JUMPDEST PUSH0 DUP2 PUSH1 0x40 MLOAD PUSH2 0x528 SWAP2 SWAP1 PUSH2 0xE6D JUMP JUMPDEST SWAP1 DUP2 MSTORE PUSH1 0x20 ADD PUSH1 0x40 MLOAD DUP1 SWAP2 SUB SWAP1 KECCAK256 PUSH0 DUP1 DUP3 ADD PUSH0 PUSH2 0x545 SWAP2 SWAP1 PUSH2 0x883 JUMP JUMPDEST PUSH1 0x1 DUP3 ADD PUSH0 PUSH2 0x554 SWAP2 SWAP1 PUSH2 0x883 JUMP JUMPDEST PUSH1 0x2 DUP3 ADD PUSH0 PUSH2 0x563 SWAP2 SWAP1 PUSH2 0x883 JUMP JUMPDEST PUSH1 0x3 DUP3 ADD PUSH0 PUSH2 0x572 SWAP2 SWAP1 PUSH2 0x883 JUMP JUMPDEST PUSH1 0x4 DUP3 ADD PUSH0 PUSH2 0x581 SWAP2 SWAP1 PUSH2 0x883 JUMP JUMPDEST PUSH1 0x5 DUP3 ADD PUSH0 SWAP1 SSTORE PUSH1 0x6 DUP3 ADD PUSH0 SWAP1 SSTORE PUSH1 0x7 DUP3 ADD PUSH0 SWAP1 SSTORE POP POP POP JUMP JUMPDEST PUSH1 0x60 DUP1 PUSH1 0x60 DUP1 PUSH0 DUP1 PUSH0 DUP8 PUSH1 0x40 MLOAD PUSH2 0x5B2 SWAP2 SWAP1 PUSH2 0xE6D JUMP JUMPDEST SWAP1 DUP2 MSTORE PUSH1 0x20 ADD PUSH1 0x40 MLOAD DUP1 SWAP2 SUB SWAP1 KECCAK256 SWAP1 POP DUP1 PUSH1 0x1 ADD DUP2 PUSH1 0x2 ADD DUP3 PUSH1 0x3 ADD DUP4 PUSH1 0x4 ADD DUP5 PUSH1 0x5 ADD SLOAD DUP5 DUP1 SLOAD PUSH2 0x5E3 SWAP1 PUSH2 0xEB0 JUMP JUMPDEST DUP1 PUSH1 0x1F ADD PUSH1 0x20 DUP1 SWAP2 DIV MUL PUSH1 0x20 ADD PUSH1 0x40 MLOAD SWAP1 DUP2 ADD PUSH1 0x40 MSTORE DUP1 SWAP3 SWAP2 SWAP1 DUP2 DUP2 MSTORE PUSH1 0x20 ADD DUP3 DUP1 SLOAD PUSH2 0x60F SWAP1 PUSH2 0xEB0 JUMP JUMPDEST DUP1 ISZERO PUSH2 0x65A JUMPI DUP1 PUSH1 0x1F LT PUSH2 0x631 JUMPI PUSH2 0x100 DUP1 DUP4 SLOAD DIV MUL DUP4 MSTORE SWAP2 PUSH1 0x20 ADD SWAP2 PUSH2 0x65A JUMP JUMPDEST DUP3 ADD SWAP2 SWAP1 PUSH0 MSTORE PUSH1 0x20 PUSH0 KECCAK256 SWAP1 JUMPDEST DUP2 SLOAD DUP2 MSTORE SWAP1 PUSH1 0x1 ADD SWAP1 PUSH1 0x20 ADD DUP1 DUP4 GT PUSH2 0x63D JUMPI DUP3 SWAP1 SUB PUSH1 0x1F AND DUP3 ADD SWAP2 JUMPDEST POP POP POP POP POP SWAP5 POP DUP4 DUP1 SLOAD PUSH2 0x66D SWAP1 PUSH2 0xEB0 JUMP JUMPDEST DUP1 PUSH1 0x1F ADD PUSH1 0x20 DUP1 SWAP2 DIV MUL PUSH1 0x20 ADD PUSH1 0x40 MLOAD SWAP1 DUP2 ADD PUSH1 0x40 MSTORE DUP1 SWAP3 SWAP2 SWAP1 DUP2 DUP2 MSTORE PUSH1 0x20 ADD DUP3 DUP1 SLOAD PUSH2 0x699 SWAP1 PUSH2 0xEB0 JUMP JUMPDEST DUP1 ISZERO PUSH2 0x6E4 JUMPI DUP1 PUSH1 0x1F LT PUSH2 0x6BB JUMPI PUSH2 0x100 DUP1 DUP4 SLOAD DIV MUL DUP4 MSTORE SWAP2 PUSH1 0x20 ADD SWAP2 PUSH2 0x6E4 JUMP JUMPDEST DUP3 ADD SWAP2 SWAP1 PUSH0 MSTORE PUSH1 0x20 PUSH0 KECCAK256 SWAP1 JUMPDEST DUP2 SLOAD DUP2 MSTORE SWAP1 PUSH1 0x1 ADD SWAP1 PUSH1 0x20 ADD DUP1 DUP4 GT PUSH2 0x6C7 JUMPI DUP3 SWAP1 SUB PUSH1 0x1F AND DUP3 ADD SWAP2 JUMPDEST POP POP POP POP POP SWAP4 POP DUP3 DUP1 SLOAD PUSH2 0x6F7 SWAP1 PUSH2 0xEB0 JUMP JUMPDEST DUP1 PUSH1 0x1F ADD PUSH1 0x20 DUP1 SWAP2 DIV MUL PUSH1 0x20 ADD PUSH1 0x40 MLOAD SWAP1 DUP2 ADD PUSH1 0x40 MSTORE DUP1 SWAP3 SWAP2 SWAP1 DUP2 DUP2 MSTORE PUSH1 0x20 ADD DUP3 DUP1 SLOAD PUSH2 0x723 SWAP1 PUSH2 0xEB0 JUMP JUMPDEST DUP1 ISZERO PUSH2 0x76E JUMPI DUP1 PUSH1 0x1F LT PUSH2 0x745 JUMPI PUSH2 0x100 DUP1 DUP4 SLOAD DIV MUL DUP4 MSTORE SWAP2 PUSH1 0x20 ADD SWAP2 PUSH2 0x76E JUMP JUMPDEST DUP3 ADD SWAP2 SWAP1 PUSH0 MSTORE PUSH1 0x20 PUSH0 KECCAK256 SWAP1 JUMPDEST DUP2 SLOAD DUP2 MSTORE SWAP1 PUSH1 0x1 ADD SWAP1 PUSH1 0x20 ADD DUP1 DUP4 GT PUSH2 0x751 JUMPI DUP3 SWAP1 SUB PUSH1 0x1F AND DUP3 ADD SWAP2 JUMPDEST POP POP POP POP POP SWAP3 POP DUP2 DUP1 SLOAD PUSH2 0x781 SWAP1 PUSH2 0xEB0 JUMP JUMPDEST DUP1 PUSH1 0x1F ADD PUSH1 0x20 DUP1 SWAP2 DIV MUL PUSH1 0x20 ADD PUSH1 0x40 MLOAD SWAP1 DUP2 ADD PUSH1 0x40 MSTORE DUP1 SWAP3 SWAP2 SWAP1 DUP2 DUP2 MSTORE PUSH1 0x20 ADD DUP3 DUP1 SLOAD PUSH2 0x7AD SWAP1 PUSH2 0xEB0 JUMP JUMPDEST DUP1 ISZERO PUSH2 0x7F8 JUMPI DUP1 PUSH1 0x1F LT PUSH2 0x7CF JUMPI PUSH2 0x100 DUP1 DUP4 SLOAD DIV MUL DUP4 MSTORE SWAP2 PUSH1 0x20 ADD SWAP2 PUSH2 0x7F8 JUMP JUMPDEST DUP3 ADD SWAP2 SWAP1 PUSH0 MSTORE PUSH1 0x20 PUSH0 KECCAK256 SWAP1 JUMPDEST DUP2 SLOAD DUP2 MSTORE SWAP1 PUSH1 0x1 ADD SWAP1 PUSH1 0x20 ADD DUP1 DUP4 GT PUSH2 0x7DB JUMPI DUP3 SWAP1 SUB PUSH1 0x1F AND DUP3 ADD SWAP2 JUMPDEST POP POP POP POP POP SWAP2 POP SWAP6 POP SWAP6 POP SWAP6 POP SWAP6 POP SWAP6 POP POP SWAP2 SWAP4 SWAP6 SWAP1 SWAP3 SWAP5 POP JUMP JUMPDEST PUSH0 DUP1 DUP7 PUSH1 0x40 MLOAD PUSH2 0x823 SWAP2 SWAP1 PUSH2 0xE6D JUMP JUMPDEST SWAP1 DUP2 MSTORE PUSH1 0x20 ADD PUSH1 0x40 MLOAD DUP1 SWAP2 SUB SWAP1 KECCAK256 SWAP1 POP DUP5 DUP2 PUSH1 0x2 ADD SWAP1 DUP2 PUSH2 0x844 SWAP2 SWAP1 PUSH2 0x107D JUMP JUMPDEST POP DUP4 DUP2 PUSH1 0x3 ADD SWAP1 DUP2 PUSH2 0x856 SWAP2 SWAP1 PUSH2 0x107D JUMP JUMPDEST POP DUP3 DUP2 PUSH1 0x4 ADD SWAP1 DUP2 PUSH2 0x868 SWAP2 SWAP1 PUSH2 0x107D JUMP JUMPDEST POP DUP2 DUP2 PUSH1 0x5 ADD DUP2 SWAP1 SSTORE POP TIMESTAMP DUP2 PUSH1 0x7 ADD DUP2 SWAP1 SSTORE POP POP POP POP POP POP POP JUMP JUMPDEST POP DUP1 SLOAD PUSH2 0x88F SWAP1 PUSH2 0xEB0 JUMP JUMPDEST PUSH0 DUP3 SSTORE DUP1 PUSH1 0x1F LT PUSH2 0x8A0 JUMPI POP PUSH2 0x8BD JUMP JUMPDEST PUSH1 0x1F ADD PUSH1 0x20 SWAP1 DIV SWAP1 PUSH0 MSTORE PUSH1 0x20 PUSH0 KECCAK256 SWAP1 DUP2 ADD SWAP1 PUSH2 0x8BC SWAP2 SWAP1 PUSH2 0x8C0 JUMP JUMPDEST JUMPDEST POP JUMP JUMPDEST JUMPDEST DUP1 DUP3 GT ISZERO PUSH2 0x8D7 JUMPI PUSH0 DUP2 PUSH0 SWAP1 SSTORE POP PUSH1 0x1 ADD PUSH2 0x8C1 JUMP JUMPDEST POP SWAP1 JUMP JUMPDEST PUSH0 PUSH1 0x40 MLOAD SWAP1 POP SWAP1 JUMP JUMPDEST PUSH0 DUP1 REVERT JUMPDEST PUSH0 DUP1 REVERT JUMPDEST PUSH0 DUP1 REVERT JUMPDEST PUSH0 DUP1 REVERT JUMPDEST PUSH0 PUSH1 0x1F NOT PUSH1 0x1F DUP4 ADD AND SWAP1 POP SWAP2 SWAP1 POP JUMP JUMPDEST PUSH32 0x4E487B7100000000000000000000000000000000000000000000000000000000 PUSH0 MSTORE PUSH1 0x41 PUSH1 0x4 MSTORE PUSH1 0x24 PUSH0 REVERT JUMPDEST PUSH2 0x93A DUP3 PUSH2 0x8F4 JUMP JUMPDEST DUP2 ADD DUP2 DUP2 LT PUSH8 0xFFFFFFFFFFFFFFFF DUP3 GT OR ISZERO PUSH2 0x959 JUMPI PUSH2 0x958 PUSH2 0x904 JUMP JUMPDEST JUMPDEST DUP1 PUSH1 0x40 MSTORE POP POP POP JUMP JUMPDEST PUSH0 PUSH2 0x96B PUSH2 0x8DB JUMP JUMPDEST SWAP1 POP PUSH2 0x977 DUP3 DUP3 PUSH2 0x931 JUMP JUMPDEST SWAP2 SWAP1 POP JUMP JUMPDEST PUSH0 PUSH8 0xFFFFFFFFFFFFFFFF DUP3 GT ISZERO PUSH2 0x996 JUMPI PUSH2 0x995 PUSH2 0x904 JUMP JUMPDEST JUMPDEST PUSH2 0x99F DUP3 PUSH2 0x8F4 JUMP JUMPDEST SWAP1 POP PUSH1 0x20 DUP2 ADD SWAP1 POP SWAP2 SWAP1 POP JUMP JUMPDEST DUP3 DUP2 DUP4 CALLDATACOPY PUSH0 DUP4 DUP4 ADD MSTORE POP POP POP JUMP JUMPDEST PUSH0 PUSH2 0x9CC PUSH2 0x9C7 DUP5 PUSH2 0x97C JUMP JUMPDEST PUSH2 0x962 JUMP JUMPDEST SWAP1 POP DUP3 DUP2 MSTORE PUSH1 0x20 DUP2 ADD DUP5 DUP5 DUP5 ADD GT ISZERO PUSH2 0x9E8 JUMPI PUSH2 0x9E7 PUSH2 0x8F0 JUMP JUMPDEST JUMPDEST PUSH2 0x9F3 DUP5 DUP3 DUP6 PUSH2 0x9AC JUMP JUMPDEST POP SWAP4 SWAP3 POP POP POP JUMP JUMPDEST PUSH0 DUP3 PUSH1 0x1F DUP4 ADD SLT PUSH2 0xA0F JUMPI PUSH2 0xA0E PUSH2 0x8EC JUMP JUMPDEST JUMPDEST DUP2 CALLDATALOAD PUSH2 0xA1F DUP5 DUP3 PUSH1 0x20 DUP7 ADD PUSH2 0x9BA JUMP JUMPDEST SWAP2 POP POP SWAP3 SWAP2 POP POP JUMP JUMPDEST PUSH0 DUP2 SWAP1 POP SWAP2 SWAP1 POP JUMP JUMPDEST PUSH2 0xA3A DUP2 PUSH2 0xA28 JUMP JUMPDEST DUP2 EQ PUSH2 0xA44 JUMPI PUSH0 DUP1 REVERT JUMPDEST POP JUMP JUMPDEST PUSH0 DUP2 CALLDATALOAD SWAP1 POP PUSH2 0xA55 DUP2 PUSH2 0xA31 JUMP JUMPDEST SWAP3 SWAP2 POP POP JUMP JUMPDEST PUSH0 DUP1 PUSH0 DUP1 PUSH0 DUP1 PUSH1 0xC0 DUP8 DUP10 SUB SLT ISZERO PUSH2 0xA75 JUMPI PUSH2 0xA74 PUSH2 0x8E4 JUMP JUMPDEST JUMPDEST PUSH0 DUP8 ADD CALLDATALOAD PUSH8 0xFFFFFFFFFFFFFFFF DUP2 GT ISZERO PUSH2 0xA92 JUMPI PUSH2 0xA91 PUSH2 0x8E8 JUMP JUMPDEST JUMPDEST PUSH2 0xA9E DUP10 DUP3 DUP11 ADD PUSH2 0x9FB JUMP JUMPDEST SWAP7 POP POP PUSH1 0x20 DUP8 ADD CALLDATALOAD PUSH8 0xFFFFFFFFFFFFFFFF DUP2 GT ISZERO PUSH2 0xABF JUMPI PUSH2 0xABE PUSH2 0x8E8 JUMP JUMPDEST JUMPDEST PUSH2 0xACB DUP10 DUP3 DUP11 ADD PUSH2 0x9FB JUMP JUMPDEST SWAP6 POP POP PUSH1 0x40 DUP8 ADD CALLDATALOAD PUSH8 0xFFFFFFFFFFFFFFFF DUP2 GT ISZERO PUSH2 0xAEC JUMPI PUSH2 0xAEB PUSH2 0x8E8 JUMP JUMPDEST JUMPDEST PUSH2 0xAF8 DUP10 DUP3 DUP11 ADD PUSH2 0x9FB JUMP JUMPDEST SWAP5 POP POP PUSH1 0x60 DUP8 ADD CALLDATALOAD PUSH8 0xFFFFFFFFFFFFFFFF DUP2 GT ISZERO PUSH2 0xB19 JUMPI PUSH2 0xB18 PUSH2 0x8E8 JUMP JUMPDEST JUMPDEST PUSH2 0xB25 DUP10 DUP3 DUP11 ADD PUSH2 0x9FB JUMP JUMPDEST SWAP4 POP POP PUSH1 0x80 DUP8 ADD CALLDATALOAD PUSH8 0xFFFFFFFFFFFFFFFF DUP2 GT ISZERO PUSH2 0xB46 JUMPI PUSH2 0xB45 PUSH2 0x8E8 JUMP JUMPDEST JUMPDEST PUSH2 0xB52 DUP10 DUP3 DUP11 ADD PUSH2 0x9FB JUMP JUMPDEST SWAP3 POP POP PUSH1 0xA0 PUSH2 0xB63 DUP10 DUP3 DUP11 ADD PUSH2 0xA47 JUMP JUMPDEST SWAP2 POP POP SWAP3 SWAP6 POP SWAP3 SWAP6 POP SWAP3 SWAP6 JUMP JUMPDEST PUSH0 PUSH1 0x20 DUP3 DUP5 SUB SLT ISZERO PUSH2 0xB85 JUMPI PUSH2 0xB84 PUSH2 0x8E4 JUMP JUMPDEST JUMPDEST PUSH0 DUP3 ADD CALLDATALOAD PUSH8 0xFFFFFFFFFFFFFFFF DUP2 GT ISZERO PUSH2 0xBA2 JUMPI PUSH2 0xBA1 PUSH2 0x8E8 JUMP JUMPDEST JUMPDEST PUSH2 0xBAE DUP5 DUP3 DUP6 ADD PUSH2 0x9FB JUMP JUMPDEST SWAP2 POP POP SWAP3 SWAP2 POP POP JUMP JUMPDEST PUSH0 DUP2 MLOAD SWAP1 POP SWAP2 SWAP1 POP JUMP JUMPDEST PUSH0 DUP3 DUP3 MSTORE PUSH1 0x20 DUP3 ADD SWAP1 POP SWAP3 SWAP2 POP POP JUMP JUMPDEST PUSH0 JUMPDEST DUP4 DUP2 LT ISZERO PUSH2 0xBEE JUMPI DUP1 DUP3 ADD MLOAD DUP2 DUP5 ADD MSTORE PUSH1 0x20 DUP2 ADD SWAP1 POP PUSH2 0xBD3 JUMP JUMPDEST PUSH0 DUP5 DUP5 ADD MSTORE POP POP POP POP JUMP JUMPDEST PUSH0 PUSH2 0xC03 DUP3 PUSH2 0xBB7 JUMP JUMPDEST PUSH2 0xC0D DUP2 DUP6 PUSH2 0xBC1 JUMP JUMPDEST SWAP4 POP PUSH2 0xC1D DUP2 DUP6 PUSH1 0x20 DUP7 ADD PUSH2 0xBD1 JUMP JUMPDEST PUSH2 0xC26 DUP2 PUSH2 0x8F4 JUMP JUMPDEST DUP5 ADD SWAP2 POP POP SWAP3 SWAP2 POP POP JUMP JUMPDEST PUSH2 0xC3A DUP2 PUSH2 0xA28 JUMP JUMPDEST DUP3 MSTORE POP POP JUMP JUMPDEST PUSH0 PUSH2 0x100 DUP3 ADD SWAP1 POP DUP2 DUP2 SUB PUSH0 DUP4 ADD MSTORE PUSH2 0xC59 DUP2 DUP12 PUSH2 0xBF9 JUMP JUMPDEST SWAP1 POP DUP2 DUP2 SUB PUSH1 0x20 DUP4 ADD MSTORE PUSH2 0xC6D DUP2 DUP11 PUSH2 0xBF9 JUMP JUMPDEST SWAP1 POP DUP2 DUP2 SUB PUSH1 0x40 DUP4 ADD MSTORE PUSH2 0xC81 DUP2 DUP10 PUSH2 0xBF9 JUMP JUMPDEST SWAP1 POP DUP2 DUP2 SUB PUSH1 0x60 DUP4 ADD MSTORE PUSH2 0xC95 DUP2 DUP9 PUSH2 0xBF9 JUMP JUMPDEST SWAP1 POP DUP2 DUP2 SUB PUSH1 0x80 DUP4 ADD MSTORE PUSH2 0xCA9 DUP2 DUP8 PUSH2 0xBF9 JUMP JUMPDEST SWAP1 POP PUSH2 0xCB8 PUSH1 0xA0 DUP4 ADD DUP7 PUSH2 0xC31 JUMP JUMPDEST PUSH2 0xCC5 PUSH1 0xC0 DUP4 ADD DUP6 PUSH2 0xC31 JUMP JUMPDEST PUSH2 0xCD2 PUSH1 0xE0 DUP4 ADD DUP5 PUSH2 0xC31 JUMP JUMPDEST SWAP10 SWAP9 POP POP POP POP POP POP POP POP POP JUMP JUMPDEST PUSH0 PUSH1 0xA0 DUP3 ADD SWAP1 POP DUP2 DUP2 SUB PUSH0 DUP4 ADD MSTORE PUSH2 0xCF7 DUP2 DUP9 PUSH2 0xBF9 JUMP JUMPDEST SWAP1 POP DUP2 DUP2 SUB PUSH1 0x20 DUP4 ADD MSTORE PUSH2 0xD0B DUP2 DUP8 PUSH2 0xBF9 JUMP JUMPDEST SWAP1 POP DUP2 DUP2 SUB PUSH1 0x40 DUP4 ADD MSTORE PUSH2 0xD1F DUP2 DUP7 PUSH2 0xBF9 JUMP JUMPDEST SWAP1 POP DUP2 DUP2 SUB PUSH1 0x60 DUP4 ADD MSTORE PUSH2 0xD33 DUP2 DUP6 PUSH2 0xBF9 JUMP JUMPDEST SWAP1 POP PUSH2 0xD42 PUSH1 0x80 DUP4 ADD DUP5 PUSH2 0xC31 JUMP JUMPDEST SWAP7 SWAP6 POP POP POP POP POP POP JUMP JUMPDEST PUSH0 DUP1 PUSH0 DUP1 PUSH0 PUSH1 0xA0 DUP7 DUP9 SUB SLT ISZERO PUSH2 0xD65 JUMPI PUSH2 0xD64 PUSH2 0x8E4 JUMP JUMPDEST JUMPDEST PUSH0 DUP7 ADD CALLDATALOAD PUSH8 0xFFFFFFFFFFFFFFFF DUP2 GT ISZERO PUSH2 0xD82 JUMPI PUSH2 0xD81 PUSH2 0x8E8 JUMP JUMPDEST JUMPDEST PUSH2 0xD8E DUP9 DUP3 DUP10 ADD PUSH2 0x9FB JUMP JUMPDEST SWAP6 POP POP PUSH1 0x20 DUP7 ADD CALLDATALOAD PUSH8 0xFFFFFFFFFFFFFFFF DUP2 GT ISZERO PUSH2 0xDAF JUMPI PUSH2 0xDAE PUSH2 0x8E8 JUMP JUMPDEST JUMPDEST PUSH2 0xDBB DUP9 DUP3 DUP10 ADD PUSH2 0x9FB JUMP JUMPDEST SWAP5 POP POP PUSH1 0x40 DUP7 ADD CALLDATALOAD PUSH8 0xFFFFFFFFFFFFFFFF DUP2 GT ISZERO PUSH2 0xDDC JUMPI PUSH2 0xDDB PUSH2 0x8E8 JUMP JUMPDEST JUMPDEST PUSH2 0xDE8 DUP9 DUP3 DUP10 ADD PUSH2 0x9FB JUMP JUMPDEST SWAP4 POP POP PUSH1 0x60 DUP7 ADD CALLDATALOAD PUSH8 0xFFFFFFFFFFFFFFFF DUP2 GT ISZERO PUSH2 0xE09 JUMPI PUSH2 0xE08 PUSH2 0x8E8 JUMP JUMPDEST JUMPDEST PUSH2 0xE15 DUP9 DUP3 DUP10 ADD PUSH2 0x9FB JUMP JUMPDEST SWAP3 POP POP PUSH1 0x80 PUSH2 0xE26 DUP9 DUP3 DUP10 ADD PUSH2 0xA47 JUMP JUMPDEST SWAP2 POP POP SWAP3 SWAP6 POP SWAP3 SWAP6 SWAP1 SWAP4 POP JUMP JUMPDEST PUSH0 DUP2 SWAP1 POP SWAP3 SWAP2 POP POP JUMP JUMPDEST PUSH0 PUSH2 0xE47 DUP3 PUSH2 0xBB7 JUMP JUMPDEST PUSH2 0xE51 DUP2 DUP6 PUSH2 0xE33 JUMP JUMPDEST SWAP4 POP PUSH2 0xE61 DUP2 DUP6 PUSH1 0x20 DUP7 ADD PUSH2 0xBD1 JUMP JUMPDEST DUP1 DUP5 ADD SWAP2 POP POP SWAP3 SWAP2 POP POP JUMP JUMPDEST PUSH0 PUSH2 0xE78 DUP3 DUP5 PUSH2 0xE3D JUMP JUMPDEST SWAP2 POP DUP2 SWAP1 POP SWAP3 SWAP2 POP POP JUMP JUMPDEST PUSH32 0x4E487B7100000000000000000000000000000000000000000000000000000000 PUSH0 MSTORE PUSH1 0x22 PUSH1 0x4 MSTORE PUSH1 0x24 PUSH0 REVERT JUMPDEST PUSH0 PUSH1 0x2 DUP3 DIV SWAP1 POP PUSH1 0x1 DUP3 AND DUP1 PUSH2 0xEC7 JUMPI PUSH1 0x7F DUP3 AND SWAP2 POP JUMPDEST PUSH1 0x20 DUP3 LT DUP2 SUB PUSH2 0xEDA JUMPI PUSH2 0xED9 PUSH2 0xE83 JUMP JUMPDEST JUMPDEST POP SWAP2 SWAP1 POP JUMP JUMPDEST PUSH0 DUP2 SWAP1 POP DUP2 PUSH0 MSTORE PUSH1 0x20 PUSH0 KECCAK256 SWAP1 POP SWAP2 SWAP1 POP JUMP JUMPDEST PUSH0 PUSH1 0x20 PUSH1 0x1F DUP4 ADD DIV SWAP1 POP SWAP2 SWAP1 POP JUMP JUMPDEST PUSH0 DUP3 DUP3 SHL SWAP1 POP SWAP3 SWAP2 POP POP JUMP JUMPDEST PUSH0 PUSH1 0x8 DUP4 MUL PUSH2 0xF3C PUSH32 0xFFFFFFFFFFFFFFFFFFFFFFFFFFFFFFFFFFFFFFFFFFFFFFFFFFFFFFFFFFFFFFFF DUP3 PUSH2 0xF01 JUMP JUMPDEST PUSH2 0xF46 DUP7 DUP4 PUSH2 0xF01 JUMP JUMPDEST SWAP6 POP DUP1 NOT DUP5 AND SWAP4 POP DUP1 DUP7 AND DUP5 OR SWAP3 POP POP POP SWAP4 SWAP3 POP POP POP JUMP JUMPDEST PUSH0 DUP2 SWAP1 POP SWAP2 SWAP1 POP JUMP JUMPDEST PUSH0 PUSH2 0xF81 PUSH2 0xF7C PUSH2 0xF77 DUP5 PUSH2 0xA28 JUMP JUMPDEST PUSH2 0xF5E JUMP JUMPDEST PUSH2 0xA28 JUMP JUMPDEST SWAP1 POP SWAP2 SWAP1 POP JUMP JUMPDEST PUSH0 DUP2 SWAP1 POP SWAP2 SWAP1 POP JUMP JUMPDEST PUSH2 0xF9A DUP4 PUSH2 0xF67 JUMP JUMPDEST PUSH2 0xFAE PUSH2 0xFA6 DUP3 PUSH2 0xF88 JUMP JUMPDEST DUP5 DUP5 SLOAD PUSH2 0xF0D JUMP JUMPDEST DUP3 SSTORE POP POP POP POP JUMP JUMPDEST PUSH0 SWAP1 JUMP JUMPDEST PUSH2 0xFC2 PUSH2 0xFB6 JUMP JUMPDEST PUSH2 0xFCD DUP2 DUP5 DUP5 PUSH2 0xF91 JUMP JUMPDEST POP POP POP JUMP JUMPDEST JUMPDEST DUP2 DUP2 LT ISZERO PUSH2 0xFF0 JUMPI PUSH2 0xFE5 PUSH0 DUP3 PUSH2 0xFBA JUMP JUMPDEST PUSH1 0x1 DUP2 ADD SWAP1 POP PUSH2 0xFD3 JUMP JUMPDEST POP POP JUMP JUMPDEST PUSH1 0x1F DUP3 GT ISZERO PUSH2 0x1035 JUMPI PUSH2 0x1006 DUP2 PUSH2 0xEE0 JUMP JUMPDEST PUSH2 0x100F DUP5 PUSH2 0xEF2 JUMP JUMPDEST DUP2 ADD PUSH1 0x20 DUP6 LT ISZERO PUSH2 0x101E JUMPI DUP2 SWAP1 POP JUMPDEST PUSH2 0x1032 PUSH2 0x102A DUP6 PUSH2 0xEF2 JUMP JUMPDEST DUP4 ADD DUP3 PUSH2 0xFD2 JUMP JUMPDEST POP POP JUMPDEST POP POP POP JUMP JUMPDEST PUSH0 DUP3 DUP3 SHR SWAP1 POP SWAP3 SWAP2 POP POP JUMP JUMPDEST PUSH0 PUSH2 0x1055 PUSH0 NOT DUP5 PUSH1 0x8 MUL PUSH2 0x103A JUMP JUMPDEST NOT DUP1 DUP4 AND SWAP2 POP POP SWAP3 SWAP2 POP POP JUMP JUMPDEST PUSH0 PUSH2 0x106D DUP4 DUP4 PUSH2 0x1046 JUMP JUMPDEST SWAP2 POP DUP3 PUSH1 0x2 MUL DUP3 OR SWAP1 POP SWAP3 SWAP2 POP POP JUMP JUMPDEST PUSH2 0x1086 DUP3 PUSH2 0xBB7 JUMP JUMPDEST PUSH8 0xFFFFFFFFFFFFFFFF DUP2 GT ISZERO PUSH2 0x109F JUMPI PUSH2 0x109E PUSH2 0x904 JUMP JUMPDEST JUMPDEST PUSH2 0x10A9 DUP3 SLOAD PUSH2 0xEB0 JUMP JUMPDEST PUSH2 0x10B4 DUP3 DUP3 DUP6 PUSH2 0xFF4 JUMP JUMPDEST PUSH0 PUSH1 0x20 SWAP1 POP PUSH1 0x1F DUP4 GT PUSH1 0x1 DUP2 EQ PUSH2 0x10E5 JUMPI PUSH0 DUP5 ISZERO PUSH2 0x10D3 JUMPI DUP3 DUP8 ADD MLOAD SWAP1 POP JUMPDEST PUSH2 0x10DD DUP6 DUP3 PUSH2 0x1062 JUMP JUMPDEST DUP7 SSTORE POP PUSH2 0x1144 JUMP JUMPDEST PUSH1 0x1F NOT DUP5 AND PUSH2 0x10F3 DUP7 PUSH2 0xEE0 JUMP JUMPDEST PUSH0 JUMPDEST DUP3 DUP2 LT ISZERO PUSH2 0x111A JUMPI DUP5 DUP10 ADD MLOAD DUP3 SSTORE PUSH1 0x1 DUP3 ADD SWAP2 POP PUSH1 0x20 DUP6 ADD SWAP5 POP PUSH1 0x20 DUP2 ADD SWAP1 POP PUSH2 0x10F5 JUMP JUMPDEST DUP7 DUP4 LT ISZERO PUSH2 0x1137 JUMPI DUP5 DUP10 ADD MLOAD PUSH2 0x1133 PUSH1 0x1F DUP10 AND DUP3 PUSH2 0x1046 JUMP JUMPDEST DUP4 SSTORE POP JUMPDEST PUSH1 0x1 PUSH1 0x2 DUP9 MUL ADD DUP9 SSTORE POP POP POP JUMPDEST POP POP POP POP POP POP JUMP JUMPDEST PUSH0 PUSH1 0xA0 DUP3 ADD SWAP1 POP DUP2 DUP2 SUB PUSH0 DUP4 ADD MSTORE PUSH2 0x1164 DUP2 DUP9 PUSH2 0xBF9 JUMP JUMPDEST SWAP1 POP DUP2 DUP2 SUB PUSH1 0x20 DUP4 ADD MSTORE PUSH2 0x1178 DUP2 DUP8 PUSH2 0xBF9 JUMP JUMPDEST SWAP1 POP DUP2 DUP2 SUB PUSH1 0x40 DUP4 ADD MSTORE PUSH2 0x118C DUP2 DUP7 PUSH2 0xBF9 JUMP JUMPDEST SWAP1 POP PUSH2 0x119B PUSH1 0x60 DUP4 ADD DUP6 PUSH2 0xC31 JUMP JUMPDEST PUSH2 0x11A8 PUSH1 0x80 DUP4 ADD DUP5 PUSH2 0xC31 JUMP JUMPDEST SWAP7 SWAP6 POP POP POP POP POP POP JUMP INVALID LOG2 PUSH5 0x6970667358 0x22 SLT KECCAK256 0xE0 0xD4 0xD9 SWAP9 PUSH16 0xFAA1FAE9FEBE1E21CAFA639604217993 SWAP4 DUP2 RETURNDATACOPY 0x2C GASPRICE EXP MOD 0xF8 SHL 0xF7 DUP3 PUSH5 0x736F6C6343 STOP ADDMOD XOR STOP CALLER "
		},
		"gasEstimates": {
			"creation": {
				"codeDepositCost": "916800",
				"executionCost": "953",
				"totalCost": "917753"
			},
			"external": {
				"cows(string)": "infinite",
				"createCow(string,string,string,string,string,uint256)": "infinite",
				"deleteCow(string)": "infinite",
				"getCowDetails(string)": "infinite",
				"updateCowDetails(string,string,string,string,uint256)": "infinite"
			}
		},
		"methodIdentifiers": {
			"cows(string)": "25c45246",
			"createCow(string,string,string,string,string,uint256)": "1130d00e",
			"deleteCow(string)": "3a9364d1",
			"getCowDetails(string)": "3dd16b06",
			"updateCowDetails(string,string,string,string,uint256)": "d5e9c427"
		}
	},
	"abi": [
		{
			"anonymous": false,
			"inputs": [
				{
					"indexed": true,
					"internalType": "string",
					"name": "_id",
					"type": "string"
				},
				{
					"indexed": true,
					"internalType": "string",
					"name": "farmerId",
					"type": "string"
				},
				{
					"indexed": false,
					"internalType": "string",
					"name": "food",
					"type": "string"
				},
				{
					"indexed": false,
					"internalType": "string",
					"name": "milkingSystem",
					"type": "string"
				},
				{
					"indexed": false,
					"internalType": "string",
					"name": "breed",
					"type": "string"
				},
				{
					"indexed": false,
					"internalType": "uint256",
					"name": "age",
					"type": "uint256"
				},
				{
					"indexed": false,
					"internalType": "uint256",
					"name": "created",
					"type": "uint256"
				}
			],
			"name": "CowCreated",
			"type": "event"
		},
		{
			"inputs": [
				{
					"internalType": "string",
					"name": "",
					"type": "string"
				}
			],
			"name": "cows",
			"outputs": [
				{
					"internalType": "string",
					"name": "_id",
					"type": "string"
				},
				{
					"internalType": "string",
					"name": "farmerId",
					"type": "string"
				},
				{
					"internalType": "string",
					"name": "food",
					"type": "string"
				},
				{
					"internalType": "string",
					"name": "milkingSystem",
					"type": "string"
				},
				{
					"internalType": "string",
					"name": "breed",
					"type": "string"
				},
				{
					"internalType": "uint256",
					"name": "age",
					"type": "uint256"
				},
				{
					"internalType": "uint256",
					"name": "created",
					"type": "uint256"
				},
				{
					"internalType": "uint256",
					"name": "updated",
					"type": "uint256"
				}
			],
			"stateMutability": "view",
			"type": "function"
		},
		{
			"inputs": [
				{
					"internalType": "string",
					"name": "_id",
					"type": "string"
				},
				{
					"internalType": "string",
					"name": "_farmerId",
					"type": "string"
				},
				{
					"internalType": "string",
					"name": "_food",
					"type": "string"
				},
				{
					"internalType": "string",
					"name": "_milkingSystem",
					"type": "string"
				},
				{
					"internalType": "string",
					"name": "_breed",
					"type": "string"
				},
				{
					"internalType": "uint256",
					"name": "_age",
					"type": "uint256"
				}
			],
			"name": "createCow",
			"outputs": [],
			"stateMutability": "nonpayable",
			"type": "function"
		},
		{
			"inputs": [
				{
					"internalType": "string",
					"name": "_id",
					"type": "string"
				}
			],
			"name": "deleteCow",
			"outputs": [],
			"stateMutability": "nonpayable",
			"type": "function"
		},
		{
			"inputs": [
				{
					"internalType": "string",
					"name": "_id",
					"type": "string"
				}
			],
			"name": "getCowDetails",
			"outputs": [
				{
					"internalType": "string",
					"name": "",
					"type": "string"
				},
				{
					"internalType": "string",
					"name": "",
					"type": "string"
				},
				{
					"internalType": "string",
					"name": "",
					"type": "string"
				},
				{
					"internalType": "string",
					"name": "",
					"type": "string"
				},
				{
					"internalType": "uint256",
					"name": "",
					"type": "uint256"
				}
			],
			"stateMutability": "view",
			"type": "function"
		},
		{
			"inputs": [
				{
					"internalType": "string",
					"name": "_id",
					"type": "string"
				},
				{
					"internalType": "string",
					"name": "_food",
					"type": "string"
				},
				{
					"internalType": "string",
					"name": "_milkingSystem",
					"type": "string"
				},
				{
					"internalType": "string",
					"name": "_breed",
					"type": "string"
				},
				{
					"internalType": "uint256",
					"name": "_age",
					"type": "uint256"
				}
			],
			"name": "updateCowDetails",
			"outputs": [],
			"stateMutability": "nonpayable",
			"type": "function"
		}
	]
}