{
	"data": {
		"bytecode": {
			"linkReferences": {},
			"object": "608060405234801561000f575f80fd5b50611ed48061001d5f395ff3fe608060405234801561000f575f80fd5b5060043610610060575f3560e01c8063085ba07414610064578063689e1c0314610098578063d3695161146100d0578063d50f69ea146100ec578063e37bcb3b14610108578063e9489b0c14610124575b5f80fd5b61007e600480360381019061007991906111d6565b610154565b60405161008f959493929190611297565b60405180910390f35b6100b260048036038101906100ad91906111d6565b610457565b6040516100c7999897969594939291906113fa565b60405180910390f35b6100ea60048036038101906100e591906111d6565b610ab6565b005b610106600480360381019061010191906114b6565b610ce4565b005b610122600480360381019061011d91906115b9565b610d5e565b005b61013e6004803603810190610139919061185e565b610f81565b60405161014b919061189c565b60405180910390f35b60608060608060605f60018760405161016d91906118f6565b90815260200160405180910390209050806001018160020182600301836005018460040184805461019d90611939565b80601f01602080910402602001604051908101604052809291908181526020018280546101c990611939565b80156102145780601f106101eb57610100808354040283529160200191610214565b820191905f5260205f20905b8154815290600101906020018083116101f757829003601f168201915b5050505050945083805461022790611939565b80601f016020809104026020016040519081016040528092919081815260200182805461025390611939565b801561029e5780601f106102755761010080835404028352916020019161029e565b820191905f5260205f20905b81548152906001019060200180831161028157829003601f168201915b505050505093508280546102b190611939565b80601f01602080910402602001604051908101604052809291908181526020018280546102dd90611939565b80156103285780601f106102ff57610100808354040283529160200191610328565b820191905f5260205f20905b81548152906001019060200180831161030b57829003601f168201915b5050505050925081805461033b90611939565b80601f016020809104026020016040519081016040528092919081815260200182805461036790611939565b80156103b25780601f10610389576101008083540402835291602001916103b2565b820191905f5260205f20905b81548152906001019060200180831161039557829003601f168201915b505050505091508080546103c590611939565b80601f01602080910402602001604051908101604052809291908181526020018280546103f190611939565b801561043c5780601f106104135761010080835404028352916020019161043c565b820191905f5260205f20905b81548152906001019060200180831161041f57829003601f168201915b50505050509050955095509550955095505091939590929450565b6001818051602081018201805184825260208301602085012081835280955050505050505f91509050805f01805461048e90611939565b80601f01602080910402602001604051908101604052809291908181526020018280546104ba90611939565b80156105055780601f106104dc57610100808354040283529160200191610505565b820191905f5260205f20905b8154815290600101906020018083116104e857829003601f168201915b50505050509080600101805461051a90611939565b80601f016020809104026020016040519081016040528092919081815260200182805461054690611939565b80156105915780601f1061056857610100808354040283529160200191610591565b820191905f5260205f20905b81548152906001019060200180831161057457829003601f168201915b5050505050908060020180546105a690611939565b80601f01602080910402602001604051908101604052809291908181526020018280546105d290611939565b801561061d5780601f106105f45761010080835404028352916020019161061d565b820191905f5260205f20905b81548152906001019060200180831161060057829003601f168201915b50505050509080600301805461063290611939565b80601f016020809104026020016040519081016040528092919081815260200182805461065e90611939565b80156106a95780601f10610680576101008083540402835291602001916106a9565b820191905f5260205f20905b81548152906001019060200180831161068c57829003601f168201915b5050505050908060040180546106be90611939565b80601f01602080910402602001604051908101604052809291908181526020018280546106ea90611939565b80156107355780601f1061070c57610100808354040283529160200191610735565b820191905f5260205f20905b81548152906001019060200180831161071857829003601f168201915b50505050509080600501805461074a90611939565b80601f016020809104026020016040519081016040528092919081815260200182805461077690611939565b80156107c15780601f10610798576101008083540402835291602001916107c1565b820191905f5260205f20905b8154815290600101906020018083116107a457829003601f168201915b505050505090806006016040518060a00160405290815f820180546107e590611939565b80601f016020809104026020016040519081016040528092919081815260200182805461081190611939565b801561085c5780601f106108335761010080835404028352916020019161085c565b820191905f5260205f20905b81548152906001019060200180831161083f57829003601f168201915b5050505050815260200160018201805461087590611939565b80601f01602080910402602001604051908101604052809291908181526020018280546108a190611939565b80156108ec5780601f106108c3576101008083540402835291602001916108ec565b820191905f5260205f20905b8154815290600101906020018083116108cf57829003601f168201915b5050505050815260200160028201805461090590611939565b80601f016020809104026020016040519081016040528092919081815260200182805461093190611939565b801561097c5780601f106109535761010080835404028352916020019161097c565b820191905f5260205f20905b81548152906001019060200180831161095f57829003601f168201915b5050505050815260200160038201805461099590611939565b80601f01602080910402602001604051908101604052809291908181526020018280546109c190611939565b8015610a0c5780601f106109e357610100808354040283529160200191610a0c565b820191905f5260205f20905b8154815290600101906020018083116109ef57829003601f168201915b50505050508152602001600482018054610a2590611939565b80601f0160208091040260200160405190810160405280929190818152602001828054610a5190611939565b8015610a9c5780601f10610a7357610100808354040283529160200191610a9c565b820191905f5260205f20905b815481529060010190602001808311610a7f57829003601f168201915b5050505050815250509080600b01549080600c0154905089565b5f3390505f805f8373ffffffffffffffffffffffffffffffffffffffff1673ffffffffffffffffffffffffffffffffffffffff1681526020019081526020015f2090505f5b8180549050811015610c055783604051602001610b1891906118f6565b60405160208183030381529060405280519060200120828281548110610b4157610b40611969565b5b905f5260205f2001604051602001610b599190611a28565b6040516020818303038152906040528051906020012003610bf8578160018380549050610b869190611a6b565b81548110610b9757610b96611969565b5b905f5260205f2001828281548110610bb257610bb1611969565b5b905f5260205f20019081610bc69190611c50565b5081805480610bd857610bd7611d35565b5b600190038181905f5260205f20015f610bf19190611031565b9055610c05565b8080600101915050610afb565b50600183604051610c1691906118f6565b90815260200160405180910390205f8082015f610c339190611031565b600182015f610c429190611031565b600282015f610c519190611031565b600382015f610c609190611031565b600482015f610c6f9190611031565b600582015f610c7e9190611031565b600682015f8082015f610c919190611031565b600182015f610ca09190611031565b600282015f610caf9190611031565b600382015f610cbe9190611031565b600482015f610ccd9190611031565b5050600b82015f9055600c82015f90555050505050565b5f600186604051610cf591906118f6565b9081526020016040518091039020905084816001019081610d169190611d62565b5083816002019081610d289190611d62565b5082816003019081610d3a9190611d62565b5081816005019081610d4c9190611d62565b504281600c0181905550505050505050565b5f3390505f808273ffffffffffffffffffffffffffffffffffffffff1673ffffffffffffffffffffffffffffffffffffffff1681526020019081526020015f208c908060018154018082558091505060019003905f5260205f20015f909190919091509081610dcd9190611d62565b505f60018d604051610ddf91906118f6565b908152602001604051809103902090508c815f019081610dff9190611d62565b508b816001019081610e119190611d62565b508a816002019081610e239190611d62565b5089816003019081610e359190611d62565b5088816004019081610e479190611d62565b5087816005019081610e599190611d62565b506040518060a0016040528088815260200187815260200186815260200185815260200184815250816006015f820151815f019081610e989190611d62565b506020820151816001019081610eae9190611d62565b506040820151816002019081610ec49190611d62565b506060820151816003019081610eda9190611d62565b506080820151816004019081610ef09190611d62565b509050504281600b01819055504281600c01819055508173ffffffffffffffffffffffffffffffffffffffff168d604051610f2b91906118f6565b60405180910390207fb64d79bd85aa57c7b7b646c0757c186a316cac6ee17f5862be4e27098d25929b8e8e8e8d42604051610f6a959493929190611e31565b60405180910390a350505050505050505050505050565b5f602052815f5260405f208181548110610f99575f80fd5b905f5260205f20015f91509150508054610fb290611939565b80601f0160208091040260200160405190810160405280929190818152602001828054610fde90611939565b80156110295780601f1061100057610100808354040283529160200191611029565b820191905f5260205f20905b81548152906001019060200180831161100c57829003601f168201915b505050505081565b50805461103d90611939565b5f825580601f1061104e575061106b565b601f0160209004905f5260205f209081019061106a919061106e565b5b50565b5b80821115611085575f815f90555060010161106f565b5090565b5f604051905090565b5f80fd5b5f80fd5b5f80fd5b5f80fd5b5f601f19601f8301169050919050565b7f4e487b71000000000000000000000000000000000000000000000000000000005f52604160045260245ffd5b6110e8826110a2565b810181811067ffffffffffffffff82111715611107576111066110b2565b5b80604052505050565b5f611119611089565b905061112582826110df565b919050565b5f67ffffffffffffffff821115611144576111436110b2565b5b61114d826110a2565b9050602081019050919050565b828183375f83830152505050565b5f61117a6111758461112a565b611110565b9050828152602081018484840111156111965761119561109e565b5b6111a184828561115a565b509392505050565b5f82601f8301126111bd576111bc61109a565b5b81356111cd848260208601611168565b91505092915050565b5f602082840312156111eb576111ea611092565b5b5f82013567ffffffffffffffff81111561120857611207611096565b5b611214848285016111a9565b91505092915050565b5f81519050919050565b5f82825260208201905092915050565b5f5b83811015611254578082015181840152602081019050611239565b5f8484015250505050565b5f6112698261121d565b6112738185611227565b9350611283818560208601611237565b61128c816110a2565b840191505092915050565b5f60a0820190508181035f8301526112af818861125f565b905081810360208301526112c3818761125f565b905081810360408301526112d7818661125f565b905081810360608301526112eb818561125f565b905081810360808301526112ff818461125f565b90509695505050505050565b5f82825260208201905092915050565b5f6113258261121d565b61132f818561130b565b935061133f818560208601611237565b611348816110a2565b840191505092915050565b5f60a083015f8301518482035f86015261136d828261131b565b91505060208301518482036020860152611387828261131b565b915050604083015184820360408601526113a1828261131b565b915050606083015184820360608601526113bb828261131b565b915050608083015184820360808601526113d5828261131b565b9150508091505092915050565b5f819050919050565b6113f4816113e2565b82525050565b5f610120820190508181035f830152611413818c61125f565b90508181036020830152611427818b61125f565b9050818103604083015261143b818a61125f565b9050818103606083015261144f818961125f565b90508181036080830152611463818861125f565b905081810360a0830152611477818761125f565b905081810360c083015261148b8186611353565b905061149a60e08301856113eb565b6114a86101008301846113eb565b9a9950505050505050505050565b5f805f805f60a086880312156114cf576114ce611092565b5b5f86013567ffffffffffffffff8111156114ec576114eb611096565b5b6114f8888289016111a9565b955050602086013567ffffffffffffffff81111561151957611518611096565b5b611525888289016111a9565b945050604086013567ffffffffffffffff81111561154657611545611096565b5b611552888289016111a9565b935050606086013567ffffffffffffffff81111561157357611572611096565b5b61157f888289016111a9565b925050608086013567ffffffffffffffff8111156115a05761159f611096565b5b6115ac888289016111a9565b9150509295509295909350565b5f805f805f805f805f805f6101608c8e0312156115d9576115d8611092565b5b5f8c013567ffffffffffffffff8111156115f6576115f5611096565b5b6116028e828f016111a9565b9b505060208c013567ffffffffffffffff81111561162357611622611096565b5b61162f8e828f016111a9565b9a505060408c013567ffffffffffffffff8111156116505761164f611096565b5b61165c8e828f016111a9565b99505060608c013567ffffffffffffffff81111561167d5761167c611096565b5b6116898e828f016111a9565b98505060808c013567ffffffffffffffff8111156116aa576116a9611096565b5b6116b68e828f016111a9565b97505060a08c013567ffffffffffffffff8111156116d7576116d6611096565b5b6116e38e828f016111a9565b96505060c08c013567ffffffffffffffff81111561170457611703611096565b5b6117108e828f016111a9565b95505060e08c013567ffffffffffffffff81111561173157611730611096565b5b61173d8e828f016111a9565b9450506101008c013567ffffffffffffffff81111561175f5761175e611096565b5b61176b8e828f016111a9565b9350506101208c013567ffffffffffffffff81111561178d5761178c611096565b5b6117998e828f016111a9565b9250506101408c013567ffffffffffffffff8111156117bb576117ba611096565b5b6117c78e828f016111a9565b9150509295989b509295989b9093969950565b5f73ffffffffffffffffffffffffffffffffffffffff82169050919050565b5f611803826117da565b9050919050565b611813816117f9565b811461181d575f80fd5b50565b5f8135905061182e8161180a565b92915050565b61183d816113e2565b8114611847575f80fd5b50565b5f8135905061185881611834565b92915050565b5f806040838503121561187457611873611092565b5b5f61188185828601611820565b92505060206118928582860161184a565b9150509250929050565b5f6020820190508181035f8301526118b4818461125f565b905092915050565b5f81905092915050565b5f6118d08261121d565b6118da81856118bc565b93506118ea818560208601611237565b80840191505092915050565b5f61190182846118c6565b915081905092915050565b7f4e487b71000000000000000000000000000000000000000000000000000000005f52602260045260245ffd5b5f600282049050600182168061195057607f821691505b6020821081036119635761196261190c565b5b50919050565b7f4e487b71000000000000000000000000000000000000000000000000000000005f52603260045260245ffd5b5f819050815f5260205f209050919050565b5f81546119b481611939565b6119be81866118bc565b9450600182165f81146119d857600181146119ed57611a1f565b60ff1983168652811515820286019350611a1f565b6119f685611996565b5f5b83811015611a17578154818901526001820191506020810190506119f8565b838801955050505b50505092915050565b5f611a3382846119a8565b915081905092915050565b7f4e487b71000000000000000000000000000000000000000000000000000000005f52601160045260245ffd5b5f611a75826113e2565b9150611a80836113e2565b9250828203905081811115611a9857611a97611a3e565b5b92915050565b5f81549050611aac81611939565b9050919050565b5f819050815f5260205f209050919050565b5f6020601f8301049050919050565b5f82821b905092915050565b5f60088302611b0f7fffffffffffffffffffffffffffffffffffffffffffffffffffffffffffffffff82611ad4565b611b198683611ad4565b95508019841693508086168417925050509392505050565b5f819050919050565b5f611b54611b4f611b4a846113e2565b611b31565b6113e2565b9050919050565b5f819050919050565b611b6d83611b3a565b611b81611b7982611b5b565b848454611ae0565b825550505050565b5f90565b611b95611b89565b611ba0818484611b64565b505050565b5b81811015611bc357611bb85f82611b8d565b600181019050611ba6565b5050565b601f821115611c0857611bd981611996565b611be284611ac5565b81016020851015611bf1578190505b611c05611bfd85611ac5565b830182611ba5565b50505b505050565b5f82821c905092915050565b5f611c285f1984600802611c0d565b1980831691505092915050565b5f611c408383611c19565b9150826002028217905092915050565b818103611c5e575050611d33565b611c6782611a9e565b67ffffffffffffffff811115611c8057611c7f6110b2565b5b611c8a8254611939565b611c95828285611bc7565b5f601f831160018114611cc2575f8415611cb0578287015490505b611cba8582611c35565b865550611d2c565b601f198416611cd087611ab3565b9650611cdb86611996565b5f5b82811015611d0257848901548255600182019150600185019450602081019050611cdd565b86831015611d1f5784890154611d1b601f891682611c19565b8355505b6001600288020188555050505b5050505050505b565b7f4e487b71000000000000000000000000000000000000000000000000000000005f52603160045260245ffd5b611d6b8261121d565b67ffffffffffffffff811115611d8457611d836110b2565b5b611d8e8254611939565b611d99828285611bc7565b5f60209050601f831160018114611dca575f8415611db8578287015190505b611dc28582611c35565b865550611e29565b601f198416611dd886611996565b5f5b82811015611dff57848901518255600182019150602085019450602081019050611dda565b86831015611e1c5784890151611e18601f891682611c19565b8355505b6001600288020188555050505b505050505050565b5f60a0820190508181035f830152611e49818861125f565b90508181036020830152611e5d818761125f565b90508181036040830152611e71818661125f565b90508181036060830152611e85818561125f565b9050611e9460808301846113eb565b969550505050505056fea26469706673582212209a5c605419dfb0ff352e95a909550fc7db6df58c1f241af9ad923c8616ff968b64736f6c63430008180033",
			"opcodes": "PUSH1 0x80 PUSH1 0x40 MSTORE CALLVALUE DUP1 ISZERO PUSH2 0xF JUMPI PUSH0 DUP1 REVERT JUMPDEST POP PUSH2 0x1ED4 DUP1 PUSH2 0x1D PUSH0 CODECOPY PUSH0 RETURN INVALID PUSH1 0x80 PUSH1 0x40 MSTORE CALLVALUE DUP1 ISZERO PUSH2 0xF JUMPI PUSH0 DUP1 REVERT JUMPDEST POP PUSH1 0x4 CALLDATASIZE LT PUSH2 0x60 JUMPI PUSH0 CALLDATALOAD PUSH1 0xE0 SHR DUP1 PUSH4 0x85BA074 EQ PUSH2 0x64 JUMPI DUP1 PUSH4 0x689E1C03 EQ PUSH2 0x98 JUMPI DUP1 PUSH4 0xD3695161 EQ PUSH2 0xD0 JUMPI DUP1 PUSH4 0xD50F69EA EQ PUSH2 0xEC JUMPI DUP1 PUSH4 0xE37BCB3B EQ PUSH2 0x108 JUMPI DUP1 PUSH4 0xE9489B0C EQ PUSH2 0x124 JUMPI JUMPDEST PUSH0 DUP1 REVERT JUMPDEST PUSH2 0x7E PUSH1 0x4 DUP1 CALLDATASIZE SUB DUP2 ADD SWAP1 PUSH2 0x79 SWAP2 SWAP1 PUSH2 0x11D6 JUMP JUMPDEST PUSH2 0x154 JUMP JUMPDEST PUSH1 0x40 MLOAD PUSH2 0x8F SWAP6 SWAP5 SWAP4 SWAP3 SWAP2 SWAP1 PUSH2 0x1297 JUMP JUMPDEST PUSH1 0x40 MLOAD DUP1 SWAP2 SUB SWAP1 RETURN JUMPDEST PUSH2 0xB2 PUSH1 0x4 DUP1 CALLDATASIZE SUB DUP2 ADD SWAP1 PUSH2 0xAD SWAP2 SWAP1 PUSH2 0x11D6 JUMP JUMPDEST PUSH2 0x457 JUMP JUMPDEST PUSH1 0x40 MLOAD PUSH2 0xC7 SWAP10 SWAP9 SWAP8 SWAP7 SWAP6 SWAP5 SWAP4 SWAP3 SWAP2 SWAP1 PUSH2 0x13FA JUMP JUMPDEST PUSH1 0x40 MLOAD DUP1 SWAP2 SUB SWAP1 RETURN JUMPDEST PUSH2 0xEA PUSH1 0x4 DUP1 CALLDATASIZE SUB DUP2 ADD SWAP1 PUSH2 0xE5 SWAP2 SWAP1 PUSH2 0x11D6 JUMP JUMPDEST PUSH2 0xAB6 JUMP JUMPDEST STOP JUMPDEST PUSH2 0x106 PUSH1 0x4 DUP1 CALLDATASIZE SUB DUP2 ADD SWAP1 PUSH2 0x101 SWAP2 SWAP1 PUSH2 0x14B6 JUMP JUMPDEST PUSH2 0xCE4 JUMP JUMPDEST STOP JUMPDEST PUSH2 0x122 PUSH1 0x4 DUP1 CALLDATASIZE SUB DUP2 ADD SWAP1 PUSH2 0x11D SWAP2 SWAP1 PUSH2 0x15B9 JUMP JUMPDEST PUSH2 0xD5E JUMP JUMPDEST STOP JUMPDEST PUSH2 0x13E PUSH1 0x4 DUP1 CALLDATASIZE SUB DUP2 ADD SWAP1 PUSH2 0x139 SWAP2 SWAP1 PUSH2 0x185E JUMP JUMPDEST PUSH2 0xF81 JUMP JUMPDEST PUSH1 0x40 MLOAD PUSH2 0x14B SWAP2 SWAP1 PUSH2 0x189C JUMP JUMPDEST PUSH1 0x40 MLOAD DUP1 SWAP2 SUB SWAP1 RETURN JUMPDEST PUSH1 0x60 DUP1 PUSH1 0x60 DUP1 PUSH1 0x60 PUSH0 PUSH1 0x1 DUP8 PUSH1 0x40 MLOAD PUSH2 0x16D SWAP2 SWAP1 PUSH2 0x18F6 JUMP JUMPDEST SWAP1 DUP2 MSTORE PUSH1 0x20 ADD PUSH1 0x40 MLOAD DUP1 SWAP2 SUB SWAP1 KECCAK256 SWAP1 POP DUP1 PUSH1 0x1 ADD DUP2 PUSH1 0x2 ADD DUP3 PUSH1 0x3 ADD DUP4 PUSH1 0x5 ADD DUP5 PUSH1 0x4 ADD DUP5 DUP1 SLOAD PUSH2 0x19D SWAP1 PUSH2 0x1939 JUMP JUMPDEST DUP1 PUSH1 0x1F ADD PUSH1 0x20 DUP1 SWAP2 DIV MUL PUSH1 0x20 ADD PUSH1 0x40 MLOAD SWAP1 DUP2 ADD PUSH1 0x40 MSTORE DUP1 SWAP3 SWAP2 SWAP1 DUP2 DUP2 MSTORE PUSH1 0x20 ADD DUP3 DUP1 SLOAD PUSH2 0x1C9 SWAP1 PUSH2 0x1939 JUMP JUMPDEST DUP1 ISZERO PUSH2 0x214 JUMPI DUP1 PUSH1 0x1F LT PUSH2 0x1EB JUMPI PUSH2 0x100 DUP1 DUP4 SLOAD DIV MUL DUP4 MSTORE SWAP2 PUSH1 0x20 ADD SWAP2 PUSH2 0x214 JUMP JUMPDEST DUP3 ADD SWAP2 SWAP1 PUSH0 MSTORE PUSH1 0x20 PUSH0 KECCAK256 SWAP1 JUMPDEST DUP2 SLOAD DUP2 MSTORE SWAP1 PUSH1 0x1 ADD SWAP1 PUSH1 0x20 ADD DUP1 DUP4 GT PUSH2 0x1F7 JUMPI DUP3 SWAP1 SUB PUSH1 0x1F AND DUP3 ADD SWAP2 JUMPDEST POP POP POP POP POP SWAP5 POP DUP4 DUP1 SLOAD PUSH2 0x227 SWAP1 PUSH2 0x1939 JUMP JUMPDEST DUP1 PUSH1 0x1F ADD PUSH1 0x20 DUP1 SWAP2 DIV MUL PUSH1 0x20 ADD PUSH1 0x40 MLOAD SWAP1 DUP2 ADD PUSH1 0x40 MSTORE DUP1 SWAP3 SWAP2 SWAP1 DUP2 DUP2 MSTORE PUSH1 0x20 ADD DUP3 DUP1 SLOAD PUSH2 0x253 SWAP1 PUSH2 0x1939 JUMP JUMPDEST DUP1 ISZERO PUSH2 0x29E JUMPI DUP1 PUSH1 0x1F LT PUSH2 0x275 JUMPI PUSH2 0x100 DUP1 DUP4 SLOAD DIV MUL DUP4 MSTORE SWAP2 PUSH1 0x20 ADD SWAP2 PUSH2 0x29E JUMP JUMPDEST DUP3 ADD SWAP2 SWAP1 PUSH0 MSTORE PUSH1 0x20 PUSH0 KECCAK256 SWAP1 JUMPDEST DUP2 SLOAD DUP2 MSTORE SWAP1 PUSH1 0x1 ADD SWAP1 PUSH1 0x20 ADD DUP1 DUP4 GT PUSH2 0x281 JUMPI DUP3 SWAP1 SUB PUSH1 0x1F AND DUP3 ADD SWAP2 JUMPDEST POP POP POP POP POP SWAP4 POP DUP3 DUP1 SLOAD PUSH2 0x2B1 SWAP1 PUSH2 0x1939 JUMP JUMPDEST DUP1 PUSH1 0x1F ADD PUSH1 0x20 DUP1 SWAP2 DIV MUL PUSH1 0x20 ADD PUSH1 0x40 MLOAD SWAP1 DUP2 ADD PUSH1 0x40 MSTORE DUP1 SWAP3 SWAP2 SWAP1 DUP2 DUP2 MSTORE PUSH1 0x20 ADD DUP3 DUP1 SLOAD PUSH2 0x2DD SWAP1 PUSH2 0x1939 JUMP JUMPDEST DUP1 ISZERO PUSH2 0x328 JUMPI DUP1 PUSH1 0x1F LT PUSH2 0x2FF JUMPI PUSH2 0x100 DUP1 DUP4 SLOAD DIV MUL DUP4 MSTORE SWAP2 PUSH1 0x20 ADD SWAP2 PUSH2 0x328 JUMP JUMPDEST DUP3 ADD SWAP2 SWAP1 PUSH0 MSTORE PUSH1 0x20 PUSH0 KECCAK256 SWAP1 JUMPDEST DUP2 SLOAD DUP2 MSTORE SWAP1 PUSH1 0x1 ADD SWAP1 PUSH1 0x20 ADD DUP1 DUP4 GT PUSH2 0x30B JUMPI DUP3 SWAP1 SUB PUSH1 0x1F AND DUP3 ADD SWAP2 JUMPDEST POP POP POP POP POP SWAP3 POP DUP2 DUP1 SLOAD PUSH2 0x33B SWAP1 PUSH2 0x1939 JUMP JUMPDEST DUP1 PUSH1 0x1F ADD PUSH1 0x20 DUP1 SWAP2 DIV MUL PUSH1 0x20 ADD PUSH1 0x40 MLOAD SWAP1 DUP2 ADD PUSH1 0x40 MSTORE DUP1 SWAP3 SWAP2 SWAP1 DUP2 DUP2 MSTORE PUSH1 0x20 ADD DUP3 DUP1 SLOAD PUSH2 0x367 SWAP1 PUSH2 0x1939 JUMP JUMPDEST DUP1 ISZERO PUSH2 0x3B2 JUMPI DUP1 PUSH1 0x1F LT PUSH2 0x389 JUMPI PUSH2 0x100 DUP1 DUP4 SLOAD DIV MUL DUP4 MSTORE SWAP2 PUSH1 0x20 ADD SWAP2 PUSH2 0x3B2 JUMP JUMPDEST DUP3 ADD SWAP2 SWAP1 PUSH0 MSTORE PUSH1 0x20 PUSH0 KECCAK256 SWAP1 JUMPDEST DUP2 SLOAD DUP2 MSTORE SWAP1 PUSH1 0x1 ADD SWAP1 PUSH1 0x20 ADD DUP1 DUP4 GT PUSH2 0x395 JUMPI DUP3 SWAP1 SUB PUSH1 0x1F AND DUP3 ADD SWAP2 JUMPDEST POP POP POP POP POP SWAP2 POP DUP1 DUP1 SLOAD PUSH2 0x3C5 SWAP1 PUSH2 0x1939 JUMP JUMPDEST DUP1 PUSH1 0x1F ADD PUSH1 0x20 DUP1 SWAP2 DIV MUL PUSH1 0x20 ADD PUSH1 0x40 MLOAD SWAP1 DUP2 ADD PUSH1 0x40 MSTORE DUP1 SWAP3 SWAP2 SWAP1 DUP2 DUP2 MSTORE PUSH1 0x20 ADD DUP3 DUP1 SLOAD PUSH2 0x3F1 SWAP1 PUSH2 0x1939 JUMP JUMPDEST DUP1 ISZERO PUSH2 0x43C JUMPI DUP1 PUSH1 0x1F LT PUSH2 0x413 JUMPI PUSH2 0x100 DUP1 DUP4 SLOAD DIV MUL DUP4 MSTORE SWAP2 PUSH1 0x20 ADD SWAP2 PUSH2 0x43C JUMP JUMPDEST DUP3 ADD SWAP2 SWAP1 PUSH0 MSTORE PUSH1 0x20 PUSH0 KECCAK256 SWAP1 JUMPDEST DUP2 SLOAD DUP2 MSTORE SWAP1 PUSH1 0x1 ADD SWAP1 PUSH1 0x20 ADD DUP1 DUP4 GT PUSH2 0x41F JUMPI DUP3 SWAP1 SUB PUSH1 0x1F AND DUP3 ADD SWAP2 JUMPDEST POP POP POP POP POP SWAP1 POP SWAP6 POP SWAP6 POP SWAP6 POP SWAP6 POP SWAP6 POP POP SWAP2 SWAP4 SWAP6 SWAP1 SWAP3 SWAP5 POP JUMP JUMPDEST PUSH1 0x1 DUP2 DUP1 MLOAD PUSH1 0x20 DUP2 ADD DUP3 ADD DUP1 MLOAD DUP5 DUP3 MSTORE PUSH1 0x20 DUP4 ADD PUSH1 0x20 DUP6 ADD KECCAK256 DUP2 DUP4 MSTORE DUP1 SWAP6 POP POP POP POP POP POP PUSH0 SWAP2 POP SWAP1 POP DUP1 PUSH0 ADD DUP1 SLOAD PUSH2 0x48E SWAP1 PUSH2 0x1939 JUMP JUMPDEST DUP1 PUSH1 0x1F ADD PUSH1 0x20 DUP1 SWAP2 DIV MUL PUSH1 0x20 ADD PUSH1 0x40 MLOAD SWAP1 DUP2 ADD PUSH1 0x40 MSTORE DUP1 SWAP3 SWAP2 SWAP1 DUP2 DUP2 MSTORE PUSH1 0x20 ADD DUP3 DUP1 SLOAD PUSH2 0x4BA SWAP1 PUSH2 0x1939 JUMP JUMPDEST DUP1 ISZERO PUSH2 0x505 JUMPI DUP1 PUSH1 0x1F LT PUSH2 0x4DC JUMPI PUSH2 0x100 DUP1 DUP4 SLOAD DIV MUL DUP4 MSTORE SWAP2 PUSH1 0x20 ADD SWAP2 PUSH2 0x505 JUMP JUMPDEST DUP3 ADD SWAP2 SWAP1 PUSH0 MSTORE PUSH1 0x20 PUSH0 KECCAK256 SWAP1 JUMPDEST DUP2 SLOAD DUP2 MSTORE SWAP1 PUSH1 0x1 ADD SWAP1 PUSH1 0x20 ADD DUP1 DUP4 GT PUSH2 0x4E8 JUMPI DUP3 SWAP1 SUB PUSH1 0x1F AND DUP3 ADD SWAP2 JUMPDEST POP POP POP POP POP SWAP1 DUP1 PUSH1 0x1 ADD DUP1 SLOAD PUSH2 0x51A SWAP1 PUSH2 0x1939 JUMP JUMPDEST DUP1 PUSH1 0x1F ADD PUSH1 0x20 DUP1 SWAP2 DIV MUL PUSH1 0x20 ADD PUSH1 0x40 MLOAD SWAP1 DUP2 ADD PUSH1 0x40 MSTORE DUP1 SWAP3 SWAP2 SWAP1 DUP2 DUP2 MSTORE PUSH1 0x20 ADD DUP3 DUP1 SLOAD PUSH2 0x546 SWAP1 PUSH2 0x1939 JUMP JUMPDEST DUP1 ISZERO PUSH2 0x591 JUMPI DUP1 PUSH1 0x1F LT PUSH2 0x568 JUMPI PUSH2 0x100 DUP1 DUP4 SLOAD DIV MUL DUP4 MSTORE SWAP2 PUSH1 0x20 ADD SWAP2 PUSH2 0x591 JUMP JUMPDEST DUP3 ADD SWAP2 SWAP1 PUSH0 MSTORE PUSH1 0x20 PUSH0 KECCAK256 SWAP1 JUMPDEST DUP2 SLOAD DUP2 MSTORE SWAP1 PUSH1 0x1 ADD SWAP1 PUSH1 0x20 ADD DUP1 DUP4 GT PUSH2 0x574 JUMPI DUP3 SWAP1 SUB PUSH1 0x1F AND DUP3 ADD SWAP2 JUMPDEST POP POP POP POP POP SWAP1 DUP1 PUSH1 0x2 ADD DUP1 SLOAD PUSH2 0x5A6 SWAP1 PUSH2 0x1939 JUMP JUMPDEST DUP1 PUSH1 0x1F ADD PUSH1 0x20 DUP1 SWAP2 DIV MUL PUSH1 0x20 ADD PUSH1 0x40 MLOAD SWAP1 DUP2 ADD PUSH1 0x40 MSTORE DUP1 SWAP3 SWAP2 SWAP1 DUP2 DUP2 MSTORE PUSH1 0x20 ADD DUP3 DUP1 SLOAD PUSH2 0x5D2 SWAP1 PUSH2 0x1939 JUMP JUMPDEST DUP1 ISZERO PUSH2 0x61D JUMPI DUP1 PUSH1 0x1F LT PUSH2 0x5F4 JUMPI PUSH2 0x100 DUP1 DUP4 SLOAD DIV MUL DUP4 MSTORE SWAP2 PUSH1 0x20 ADD SWAP2 PUSH2 0x61D JUMP JUMPDEST DUP3 ADD SWAP2 SWAP1 PUSH0 MSTORE PUSH1 0x20 PUSH0 KECCAK256 SWAP1 JUMPDEST DUP2 SLOAD DUP2 MSTORE SWAP1 PUSH1 0x1 ADD SWAP1 PUSH1 0x20 ADD DUP1 DUP4 GT PUSH2 0x600 JUMPI DUP3 SWAP1 SUB PUSH1 0x1F AND DUP3 ADD SWAP2 JUMPDEST POP POP POP POP POP SWAP1 DUP1 PUSH1 0x3 ADD DUP1 SLOAD PUSH2 0x632 SWAP1 PUSH2 0x1939 JUMP JUMPDEST DUP1 PUSH1 0x1F ADD PUSH1 0x20 DUP1 SWAP2 DIV MUL PUSH1 0x20 ADD PUSH1 0x40 MLOAD SWAP1 DUP2 ADD PUSH1 0x40 MSTORE DUP1 SWAP3 SWAP2 SWAP1 DUP2 DUP2 MSTORE PUSH1 0x20 ADD DUP3 DUP1 SLOAD PUSH2 0x65E SWAP1 PUSH2 0x1939 JUMP JUMPDEST DUP1 ISZERO PUSH2 0x6A9 JUMPI DUP1 PUSH1 0x1F LT PUSH2 0x680 JUMPI PUSH2 0x100 DUP1 DUP4 SLOAD DIV MUL DUP4 MSTORE SWAP2 PUSH1 0x20 ADD SWAP2 PUSH2 0x6A9 JUMP JUMPDEST DUP3 ADD SWAP2 SWAP1 PUSH0 MSTORE PUSH1 0x20 PUSH0 KECCAK256 SWAP1 JUMPDEST DUP2 SLOAD DUP2 MSTORE SWAP1 PUSH1 0x1 ADD SWAP1 PUSH1 0x20 ADD DUP1 DUP4 GT PUSH2 0x68C JUMPI DUP3 SWAP1 SUB PUSH1 0x1F AND DUP3 ADD SWAP2 JUMPDEST POP POP POP POP POP SWAP1 DUP1 PUSH1 0x4 ADD DUP1 SLOAD PUSH2 0x6BE SWAP1 PUSH2 0x1939 JUMP JUMPDEST DUP1 PUSH1 0x1F ADD PUSH1 0x20 DUP1 SWAP2 DIV MUL PUSH1 0x20 ADD PUSH1 0x40 MLOAD SWAP1 DUP2 ADD PUSH1 0x40 MSTORE DUP1 SWAP3 SWAP2 SWAP1 DUP2 DUP2 MSTORE PUSH1 0x20 ADD DUP3 DUP1 SLOAD PUSH2 0x6EA SWAP1 PUSH2 0x1939 JUMP JUMPDEST DUP1 ISZERO PUSH2 0x735 JUMPI DUP1 PUSH1 0x1F LT PUSH2 0x70C JUMPI PUSH2 0x100 DUP1 DUP4 SLOAD DIV MUL DUP4 MSTORE SWAP2 PUSH1 0x20 ADD SWAP2 PUSH2 0x735 JUMP JUMPDEST DUP3 ADD SWAP2 SWAP1 PUSH0 MSTORE PUSH1 0x20 PUSH0 KECCAK256 SWAP1 JUMPDEST DUP2 SLOAD DUP2 MSTORE SWAP1 PUSH1 0x1 ADD SWAP1 PUSH1 0x20 ADD DUP1 DUP4 GT PUSH2 0x718 JUMPI DUP3 SWAP1 SUB PUSH1 0x1F AND DUP3 ADD SWAP2 JUMPDEST POP POP POP POP POP SWAP1 DUP1 PUSH1 0x5 ADD DUP1 SLOAD PUSH2 0x74A SWAP1 PUSH2 0x1939 JUMP JUMPDEST DUP1 PUSH1 0x1F ADD PUSH1 0x20 DUP1 SWAP2 DIV MUL PUSH1 0x20 ADD PUSH1 0x40 MLOAD SWAP1 DUP2 ADD PUSH1 0x40 MSTORE DUP1 SWAP3 SWAP2 SWAP1 DUP2 DUP2 MSTORE PUSH1 0x20 ADD DUP3 DUP1 SLOAD PUSH2 0x776 SWAP1 PUSH2 0x1939 JUMP JUMPDEST DUP1 ISZERO PUSH2 0x7C1 JUMPI DUP1 PUSH1 0x1F LT PUSH2 0x798 JUMPI PUSH2 0x100 DUP1 DUP4 SLOAD DIV MUL DUP4 MSTORE SWAP2 PUSH1 0x20 ADD SWAP2 PUSH2 0x7C1 JUMP JUMPDEST DUP3 ADD SWAP2 SWAP1 PUSH0 MSTORE PUSH1 0x20 PUSH0 KECCAK256 SWAP1 JUMPDEST DUP2 SLOAD DUP2 MSTORE SWAP1 PUSH1 0x1 ADD SWAP1 PUSH1 0x20 ADD DUP1 DUP4 GT PUSH2 0x7A4 JUMPI DUP3 SWAP1 SUB PUSH1 0x1F AND DUP3 ADD SWAP2 JUMPDEST POP POP POP POP POP SWAP1 DUP1 PUSH1 0x6 ADD PUSH1 0x40 MLOAD DUP1 PUSH1 0xA0 ADD PUSH1 0x40 MSTORE SWAP1 DUP2 PUSH0 DUP3 ADD DUP1 SLOAD PUSH2 0x7E5 SWAP1 PUSH2 0x1939 JUMP JUMPDEST DUP1 PUSH1 0x1F ADD PUSH1 0x20 DUP1 SWAP2 DIV MUL PUSH1 0x20 ADD PUSH1 0x40 MLOAD SWAP1 DUP2 ADD PUSH1 0x40 MSTORE DUP1 SWAP3 SWAP2 SWAP1 DUP2 DUP2 MSTORE PUSH1 0x20 ADD DUP3 DUP1 SLOAD PUSH2 0x811 SWAP1 PUSH2 0x1939 JUMP JUMPDEST DUP1 ISZERO PUSH2 0x85C JUMPI DUP1 PUSH1 0x1F LT PUSH2 0x833 JUMPI PUSH2 0x100 DUP1 DUP4 SLOAD DIV MUL DUP4 MSTORE SWAP2 PUSH1 0x20 ADD SWAP2 PUSH2 0x85C JUMP JUMPDEST DUP3 ADD SWAP2 SWAP1 PUSH0 MSTORE PUSH1 0x20 PUSH0 KECCAK256 SWAP1 JUMPDEST DUP2 SLOAD DUP2 MSTORE SWAP1 PUSH1 0x1 ADD SWAP1 PUSH1 0x20 ADD DUP1 DUP4 GT PUSH2 0x83F JUMPI DUP3 SWAP1 SUB PUSH1 0x1F AND DUP3 ADD SWAP2 JUMPDEST POP POP POP POP POP DUP2 MSTORE PUSH1 0x20 ADD PUSH1 0x1 DUP3 ADD DUP1 SLOAD PUSH2 0x875 SWAP1 PUSH2 0x1939 JUMP JUMPDEST DUP1 PUSH1 0x1F ADD PUSH1 0x20 DUP1 SWAP2 DIV MUL PUSH1 0x20 ADD PUSH1 0x40 MLOAD SWAP1 DUP2 ADD PUSH1 0x40 MSTORE DUP1 SWAP3 SWAP2 SWAP1 DUP2 DUP2 MSTORE PUSH1 0x20 ADD DUP3 DUP1 SLOAD PUSH2 0x8A1 SWAP1 PUSH2 0x1939 JUMP JUMPDEST DUP1 ISZERO PUSH2 0x8EC JUMPI DUP1 PUSH1 0x1F LT PUSH2 0x8C3 JUMPI PUSH2 0x100 DUP1 DUP4 SLOAD DIV MUL DUP4 MSTORE SWAP2 PUSH1 0x20 ADD SWAP2 PUSH2 0x8EC JUMP JUMPDEST DUP3 ADD SWAP2 SWAP1 PUSH0 MSTORE PUSH1 0x20 PUSH0 KECCAK256 SWAP1 JUMPDEST DUP2 SLOAD DUP2 MSTORE SWAP1 PUSH1 0x1 ADD SWAP1 PUSH1 0x20 ADD DUP1 DUP4 GT PUSH2 0x8CF JUMPI DUP3 SWAP1 SUB PUSH1 0x1F AND DUP3 ADD SWAP2 JUMPDEST POP POP POP POP POP DUP2 MSTORE PUSH1 0x20 ADD PUSH1 0x2 DUP3 ADD DUP1 SLOAD PUSH2 0x905 SWAP1 PUSH2 0x1939 JUMP JUMPDEST DUP1 PUSH1 0x1F ADD PUSH1 0x20 DUP1 SWAP2 DIV MUL PUSH1 0x20 ADD PUSH1 0x40 MLOAD SWAP1 DUP2 ADD PUSH1 0x40 MSTORE DUP1 SWAP3 SWAP2 SWAP1 DUP2 DUP2 MSTORE PUSH1 0x20 ADD DUP3 DUP1 SLOAD PUSH2 0x931 SWAP1 PUSH2 0x1939 JUMP JUMPDEST DUP1 ISZERO PUSH2 0x97C JUMPI DUP1 PUSH1 0x1F LT PUSH2 0x953 JUMPI PUSH2 0x100 DUP1 DUP4 SLOAD DIV MUL DUP4 MSTORE SWAP2 PUSH1 0x20 ADD SWAP2 PUSH2 0x97C JUMP JUMPDEST DUP3 ADD SWAP2 SWAP1 PUSH0 MSTORE PUSH1 0x20 PUSH0 KECCAK256 SWAP1 JUMPDEST DUP2 SLOAD DUP2 MSTORE SWAP1 PUSH1 0x1 ADD SWAP1 PUSH1 0x20 ADD DUP1 DUP4 GT PUSH2 0x95F JUMPI DUP3 SWAP1 SUB PUSH1 0x1F AND DUP3 ADD SWAP2 JUMPDEST POP POP POP POP POP DUP2 MSTORE PUSH1 0x20 ADD PUSH1 0x3 DUP3 ADD DUP1 SLOAD PUSH2 0x995 SWAP1 PUSH2 0x1939 JUMP JUMPDEST DUP1 PUSH1 0x1F ADD PUSH1 0x20 DUP1 SWAP2 DIV MUL PUSH1 0x20 ADD PUSH1 0x40 MLOAD SWAP1 DUP2 ADD PUSH1 0x40 MSTORE DUP1 SWAP3 SWAP2 SWAP1 DUP2 DUP2 MSTORE PUSH1 0x20 ADD DUP3 DUP1 SLOAD PUSH2 0x9C1 SWAP1 PUSH2 0x1939 JUMP JUMPDEST DUP1 ISZERO PUSH2 0xA0C JUMPI DUP1 PUSH1 0x1F LT PUSH2 0x9E3 JUMPI PUSH2 0x100 DUP1 DUP4 SLOAD DIV MUL DUP4 MSTORE SWAP2 PUSH1 0x20 ADD SWAP2 PUSH2 0xA0C JUMP JUMPDEST DUP3 ADD SWAP2 SWAP1 PUSH0 MSTORE PUSH1 0x20 PUSH0 KECCAK256 SWAP1 JUMPDEST DUP2 SLOAD DUP2 MSTORE SWAP1 PUSH1 0x1 ADD SWAP1 PUSH1 0x20 ADD DUP1 DUP4 GT PUSH2 0x9EF JUMPI DUP3 SWAP1 SUB PUSH1 0x1F AND DUP3 ADD SWAP2 JUMPDEST POP POP POP POP POP DUP2 MSTORE PUSH1 0x20 ADD PUSH1 0x4 DUP3 ADD DUP1 SLOAD PUSH2 0xA25 SWAP1 PUSH2 0x1939 JUMP JUMPDEST DUP1 PUSH1 0x1F ADD PUSH1 0x20 DUP1 SWAP2 DIV MUL PUSH1 0x20 ADD PUSH1 0x40 MLOAD SWAP1 DUP2 ADD PUSH1 0x40 MSTORE DUP1 SWAP3 SWAP2 SWAP1 DUP2 DUP2 MSTORE PUSH1 0x20 ADD DUP3 DUP1 SLOAD PUSH2 0xA51 SWAP1 PUSH2 0x1939 JUMP JUMPDEST DUP1 ISZERO PUSH2 0xA9C JUMPI DUP1 PUSH1 0x1F LT PUSH2 0xA73 JUMPI PUSH2 0x100 DUP1 DUP4 SLOAD DIV MUL DUP4 MSTORE SWAP2 PUSH1 0x20 ADD SWAP2 PUSH2 0xA9C JUMP JUMPDEST DUP3 ADD SWAP2 SWAP1 PUSH0 MSTORE PUSH1 0x20 PUSH0 KECCAK256 SWAP1 JUMPDEST DUP2 SLOAD DUP2 MSTORE SWAP1 PUSH1 0x1 ADD SWAP1 PUSH1 0x20 ADD DUP1 DUP4 GT PUSH2 0xA7F JUMPI DUP3 SWAP1 SUB PUSH1 0x1F AND DUP3 ADD SWAP2 JUMPDEST POP POP POP POP POP DUP2 MSTORE POP POP SWAP1 DUP1 PUSH1 0xB ADD SLOAD SWAP1 DUP1 PUSH1 0xC ADD SLOAD SWAP1 POP DUP10 JUMP JUMPDEST PUSH0 CALLER SWAP1 POP PUSH0 DUP1 PUSH0 DUP4 PUSH20 0xFFFFFFFFFFFFFFFFFFFFFFFFFFFFFFFFFFFFFFFF AND PUSH20 0xFFFFFFFFFFFFFFFFFFFFFFFFFFFFFFFFFFFFFFFF AND DUP2 MSTORE PUSH1 0x20 ADD SWAP1 DUP2 MSTORE PUSH1 0x20 ADD PUSH0 KECCAK256 SWAP1 POP PUSH0 JUMPDEST DUP2 DUP1 SLOAD SWAP1 POP DUP2 LT ISZERO PUSH2 0xC05 JUMPI DUP4 PUSH1 0x40 MLOAD PUSH1 0x20 ADD PUSH2 0xB18 SWAP2 SWAP1 PUSH2 0x18F6 JUMP JUMPDEST PUSH1 0x40 MLOAD PUSH1 0x20 DUP2 DUP4 SUB SUB DUP2 MSTORE SWAP1 PUSH1 0x40 MSTORE DUP1 MLOAD SWAP1 PUSH1 0x20 ADD KECCAK256 DUP3 DUP3 DUP2 SLOAD DUP2 LT PUSH2 0xB41 JUMPI PUSH2 0xB40 PUSH2 0x1969 JUMP JUMPDEST JUMPDEST SWAP1 PUSH0 MSTORE PUSH1 0x20 PUSH0 KECCAK256 ADD PUSH1 0x40 MLOAD PUSH1 0x20 ADD PUSH2 0xB59 SWAP2 SWAP1 PUSH2 0x1A28 JUMP JUMPDEST PUSH1 0x40 MLOAD PUSH1 0x20 DUP2 DUP4 SUB SUB DUP2 MSTORE SWAP1 PUSH1 0x40 MSTORE DUP1 MLOAD SWAP1 PUSH1 0x20 ADD KECCAK256 SUB PUSH2 0xBF8 JUMPI DUP2 PUSH1 0x1 DUP4 DUP1 SLOAD SWAP1 POP PUSH2 0xB86 SWAP2 SWAP1 PUSH2 0x1A6B JUMP JUMPDEST DUP2 SLOAD DUP2 LT PUSH2 0xB97 JUMPI PUSH2 0xB96 PUSH2 0x1969 JUMP JUMPDEST JUMPDEST SWAP1 PUSH0 MSTORE PUSH1 0x20 PUSH0 KECCAK256 ADD DUP3 DUP3 DUP2 SLOAD DUP2 LT PUSH2 0xBB2 JUMPI PUSH2 0xBB1 PUSH2 0x1969 JUMP JUMPDEST JUMPDEST SWAP1 PUSH0 MSTORE PUSH1 0x20 PUSH0 KECCAK256 ADD SWAP1 DUP2 PUSH2 0xBC6 SWAP2 SWAP1 PUSH2 0x1C50 JUMP JUMPDEST POP DUP2 DUP1 SLOAD DUP1 PUSH2 0xBD8 JUMPI PUSH2 0xBD7 PUSH2 0x1D35 JUMP JUMPDEST JUMPDEST PUSH1 0x1 SWAP1 SUB DUP2 DUP2 SWAP1 PUSH0 MSTORE PUSH1 0x20 PUSH0 KECCAK256 ADD PUSH0 PUSH2 0xBF1 SWAP2 SWAP1 PUSH2 0x1031 JUMP JUMPDEST SWAP1 SSTORE PUSH2 0xC05 JUMP JUMPDEST DUP1 DUP1 PUSH1 0x1 ADD SWAP2 POP POP PUSH2 0xAFB JUMP JUMPDEST POP PUSH1 0x1 DUP4 PUSH1 0x40 MLOAD PUSH2 0xC16 SWAP2 SWAP1 PUSH2 0x18F6 JUMP JUMPDEST SWAP1 DUP2 MSTORE PUSH1 0x20 ADD PUSH1 0x40 MLOAD DUP1 SWAP2 SUB SWAP1 KECCAK256 PUSH0 DUP1 DUP3 ADD PUSH0 PUSH2 0xC33 SWAP2 SWAP1 PUSH2 0x1031 JUMP JUMPDEST PUSH1 0x1 DUP3 ADD PUSH0 PUSH2 0xC42 SWAP2 SWAP1 PUSH2 0x1031 JUMP JUMPDEST PUSH1 0x2 DUP3 ADD PUSH0 PUSH2 0xC51 SWAP2 SWAP1 PUSH2 0x1031 JUMP JUMPDEST PUSH1 0x3 DUP3 ADD PUSH0 PUSH2 0xC60 SWAP2 SWAP1 PUSH2 0x1031 JUMP JUMPDEST PUSH1 0x4 DUP3 ADD PUSH0 PUSH2 0xC6F SWAP2 SWAP1 PUSH2 0x1031 JUMP JUMPDEST PUSH1 0x5 DUP3 ADD PUSH0 PUSH2 0xC7E SWAP2 SWAP1 PUSH2 0x1031 JUMP JUMPDEST PUSH1 0x6 DUP3 ADD PUSH0 DUP1 DUP3 ADD PUSH0 PUSH2 0xC91 SWAP2 SWAP1 PUSH2 0x1031 JUMP JUMPDEST PUSH1 0x1 DUP3 ADD PUSH0 PUSH2 0xCA0 SWAP2 SWAP1 PUSH2 0x1031 JUMP JUMPDEST PUSH1 0x2 DUP3 ADD PUSH0 PUSH2 0xCAF SWAP2 SWAP1 PUSH2 0x1031 JUMP JUMPDEST PUSH1 0x3 DUP3 ADD PUSH0 PUSH2 0xCBE SWAP2 SWAP1 PUSH2 0x1031 JUMP JUMPDEST PUSH1 0x4 DUP3 ADD PUSH0 PUSH2 0xCCD SWAP2 SWAP1 PUSH2 0x1031 JUMP JUMPDEST POP POP PUSH1 0xB DUP3 ADD PUSH0 SWAP1 SSTORE PUSH1 0xC DUP3 ADD PUSH0 SWAP1 SSTORE POP POP POP POP POP JUMP JUMPDEST PUSH0 PUSH1 0x1 DUP7 PUSH1 0x40 MLOAD PUSH2 0xCF5 SWAP2 SWAP1 PUSH2 0x18F6 JUMP JUMPDEST SWAP1 DUP2 MSTORE PUSH1 0x20 ADD PUSH1 0x40 MLOAD DUP1 SWAP2 SUB SWAP1 KECCAK256 SWAP1 POP DUP5 DUP2 PUSH1 0x1 ADD SWAP1 DUP2 PUSH2 0xD16 SWAP2 SWAP1 PUSH2 0x1D62 JUMP JUMPDEST POP DUP4 DUP2 PUSH1 0x2 ADD SWAP1 DUP2 PUSH2 0xD28 SWAP2 SWAP1 PUSH2 0x1D62 JUMP JUMPDEST POP DUP3 DUP2 PUSH1 0x3 ADD SWAP1 DUP2 PUSH2 0xD3A SWAP2 SWAP1 PUSH2 0x1D62 JUMP JUMPDEST POP DUP2 DUP2 PUSH1 0x5 ADD SWAP1 DUP2 PUSH2 0xD4C SWAP2 SWAP1 PUSH2 0x1D62 JUMP JUMPDEST POP TIMESTAMP DUP2 PUSH1 0xC ADD DUP2 SWAP1 SSTORE POP POP POP POP POP POP POP JUMP JUMPDEST PUSH0 CALLER SWAP1 POP PUSH0 DUP1 DUP3 PUSH20 0xFFFFFFFFFFFFFFFFFFFFFFFFFFFFFFFFFFFFFFFF AND PUSH20 0xFFFFFFFFFFFFFFFFFFFFFFFFFFFFFFFFFFFFFFFF AND DUP2 MSTORE PUSH1 0x20 ADD SWAP1 DUP2 MSTORE PUSH1 0x20 ADD PUSH0 KECCAK256 DUP13 SWAP1 DUP1 PUSH1 0x1 DUP2 SLOAD ADD DUP1 DUP3 SSTORE DUP1 SWAP2 POP POP PUSH1 0x1 SWAP1 SUB SWAP1 PUSH0 MSTORE PUSH1 0x20 PUSH0 KECCAK256 ADD PUSH0 SWAP1 SWAP2 SWAP1 SWAP2 SWAP1 SWAP2 POP SWAP1 DUP2 PUSH2 0xDCD SWAP2 SWAP1 PUSH2 0x1D62 JUMP JUMPDEST POP PUSH0 PUSH1 0x1 DUP14 PUSH1 0x40 MLOAD PUSH2 0xDDF SWAP2 SWAP1 PUSH2 0x18F6 JUMP JUMPDEST SWAP1 DUP2 MSTORE PUSH1 0x20 ADD PUSH1 0x40 MLOAD DUP1 SWAP2 SUB SWAP1 KECCAK256 SWAP1 POP DUP13 DUP2 PUSH0 ADD SWAP1 DUP2 PUSH2 0xDFF SWAP2 SWAP1 PUSH2 0x1D62 JUMP JUMPDEST POP DUP12 DUP2 PUSH1 0x1 ADD SWAP1 DUP2 PUSH2 0xE11 SWAP2 SWAP1 PUSH2 0x1D62 JUMP JUMPDEST POP DUP11 DUP2 PUSH1 0x2 ADD SWAP1 DUP2 PUSH2 0xE23 SWAP2 SWAP1 PUSH2 0x1D62 JUMP JUMPDEST POP DUP10 DUP2 PUSH1 0x3 ADD SWAP1 DUP2 PUSH2 0xE35 SWAP2 SWAP1 PUSH2 0x1D62 JUMP JUMPDEST POP DUP9 DUP2 PUSH1 0x4 ADD SWAP1 DUP2 PUSH2 0xE47 SWAP2 SWAP1 PUSH2 0x1D62 JUMP JUMPDEST POP DUP8 DUP2 PUSH1 0x5 ADD SWAP1 DUP2 PUSH2 0xE59 SWAP2 SWAP1 PUSH2 0x1D62 JUMP JUMPDEST POP PUSH1 0x40 MLOAD DUP1 PUSH1 0xA0 ADD PUSH1 0x40 MSTORE DUP1 DUP9 DUP2 MSTORE PUSH1 0x20 ADD DUP8 DUP2 MSTORE PUSH1 0x20 ADD DUP7 DUP2 MSTORE PUSH1 0x20 ADD DUP6 DUP2 MSTORE PUSH1 0x20 ADD DUP5 DUP2 MSTORE POP DUP2 PUSH1 0x6 ADD PUSH0 DUP3 ADD MLOAD DUP2 PUSH0 ADD SWAP1 DUP2 PUSH2 0xE98 SWAP2 SWAP1 PUSH2 0x1D62 JUMP JUMPDEST POP PUSH1 0x20 DUP3 ADD MLOAD DUP2 PUSH1 0x1 ADD SWAP1 DUP2 PUSH2 0xEAE SWAP2 SWAP1 PUSH2 0x1D62 JUMP JUMPDEST POP PUSH1 0x40 DUP3 ADD MLOAD DUP2 PUSH1 0x2 ADD SWAP1 DUP2 PUSH2 0xEC4 SWAP2 SWAP1 PUSH2 0x1D62 JUMP JUMPDEST POP PUSH1 0x60 DUP3 ADD MLOAD DUP2 PUSH1 0x3 ADD SWAP1 DUP2 PUSH2 0xEDA SWAP2 SWAP1 PUSH2 0x1D62 JUMP JUMPDEST POP PUSH1 0x80 DUP3 ADD MLOAD DUP2 PUSH1 0x4 ADD SWAP1 DUP2 PUSH2 0xEF0 SWAP2 SWAP1 PUSH2 0x1D62 JUMP JUMPDEST POP SWAP1 POP POP TIMESTAMP DUP2 PUSH1 0xB ADD DUP2 SWAP1 SSTORE POP TIMESTAMP DUP2 PUSH1 0xC ADD DUP2 SWAP1 SSTORE POP DUP2 PUSH20 0xFFFFFFFFFFFFFFFFFFFFFFFFFFFFFFFFFFFFFFFF AND DUP14 PUSH1 0x40 MLOAD PUSH2 0xF2B SWAP2 SWAP1 PUSH2 0x18F6 JUMP JUMPDEST PUSH1 0x40 MLOAD DUP1 SWAP2 SUB SWAP1 KECCAK256 PUSH32 0xB64D79BD85AA57C7B7B646C0757C186A316CAC6EE17F5862BE4E27098D25929B DUP15 DUP15 DUP15 DUP14 TIMESTAMP PUSH1 0x40 MLOAD PUSH2 0xF6A SWAP6 SWAP5 SWAP4 SWAP3 SWAP2 SWAP1 PUSH2 0x1E31 JUMP JUMPDEST PUSH1 0x40 MLOAD DUP1 SWAP2 SUB SWAP1 LOG3 POP POP POP POP POP POP POP POP POP POP POP POP POP JUMP JUMPDEST PUSH0 PUSH1 0x20 MSTORE DUP2 PUSH0 MSTORE PUSH1 0x40 PUSH0 KECCAK256 DUP2 DUP2 SLOAD DUP2 LT PUSH2 0xF99 JUMPI PUSH0 DUP1 REVERT JUMPDEST SWAP1 PUSH0 MSTORE PUSH1 0x20 PUSH0 KECCAK256 ADD PUSH0 SWAP2 POP SWAP2 POP POP DUP1 SLOAD PUSH2 0xFB2 SWAP1 PUSH2 0x1939 JUMP JUMPDEST DUP1 PUSH1 0x1F ADD PUSH1 0x20 DUP1 SWAP2 DIV MUL PUSH1 0x20 ADD PUSH1 0x40 MLOAD SWAP1 DUP2 ADD PUSH1 0x40 MSTORE DUP1 SWAP3 SWAP2 SWAP1 DUP2 DUP2 MSTORE PUSH1 0x20 ADD DUP3 DUP1 SLOAD PUSH2 0xFDE SWAP1 PUSH2 0x1939 JUMP JUMPDEST DUP1 ISZERO PUSH2 0x1029 JUMPI DUP1 PUSH1 0x1F LT PUSH2 0x1000 JUMPI PUSH2 0x100 DUP1 DUP4 SLOAD DIV MUL DUP4 MSTORE SWAP2 PUSH1 0x20 ADD SWAP2 PUSH2 0x1029 JUMP JUMPDEST DUP3 ADD SWAP2 SWAP1 PUSH0 MSTORE PUSH1 0x20 PUSH0 KECCAK256 SWAP1 JUMPDEST DUP2 SLOAD DUP2 MSTORE SWAP1 PUSH1 0x1 ADD SWAP1 PUSH1 0x20 ADD DUP1 DUP4 GT PUSH2 0x100C JUMPI DUP3 SWAP1 SUB PUSH1 0x1F AND DUP3 ADD SWAP2 JUMPDEST POP POP POP POP POP DUP2 JUMP JUMPDEST POP DUP1 SLOAD PUSH2 0x103D SWAP1 PUSH2 0x1939 JUMP JUMPDEST PUSH0 DUP3 SSTORE DUP1 PUSH1 0x1F LT PUSH2 0x104E JUMPI POP PUSH2 0x106B JUMP JUMPDEST PUSH1 0x1F ADD PUSH1 0x20 SWAP1 DIV SWAP1 PUSH0 MSTORE PUSH1 0x20 PUSH0 KECCAK256 SWAP1 DUP2 ADD SWAP1 PUSH2 0x106A SWAP2 SWAP1 PUSH2 0x106E JUMP JUMPDEST JUMPDEST POP JUMP JUMPDEST JUMPDEST DUP1 DUP3 GT ISZERO PUSH2 0x1085 JUMPI PUSH0 DUP2 PUSH0 SWAP1 SSTORE POP PUSH1 0x1 ADD PUSH2 0x106F JUMP JUMPDEST POP SWAP1 JUMP JUMPDEST PUSH0 PUSH1 0x40 MLOAD SWAP1 POP SWAP1 JUMP JUMPDEST PUSH0 DUP1 REVERT JUMPDEST PUSH0 DUP1 REVERT JUMPDEST PUSH0 DUP1 REVERT JUMPDEST PUSH0 DUP1 REVERT JUMPDEST PUSH0 PUSH1 0x1F NOT PUSH1 0x1F DUP4 ADD AND SWAP1 POP SWAP2 SWAP1 POP JUMP JUMPDEST PUSH32 0x4E487B7100000000000000000000000000000000000000000000000000000000 PUSH0 MSTORE PUSH1 0x41 PUSH1 0x4 MSTORE PUSH1 0x24 PUSH0 REVERT JUMPDEST PUSH2 0x10E8 DUP3 PUSH2 0x10A2 JUMP JUMPDEST DUP2 ADD DUP2 DUP2 LT PUSH8 0xFFFFFFFFFFFFFFFF DUP3 GT OR ISZERO PUSH2 0x1107 JUMPI PUSH2 0x1106 PUSH2 0x10B2 JUMP JUMPDEST JUMPDEST DUP1 PUSH1 0x40 MSTORE POP POP POP JUMP JUMPDEST PUSH0 PUSH2 0x1119 PUSH2 0x1089 JUMP JUMPDEST SWAP1 POP PUSH2 0x1125 DUP3 DUP3 PUSH2 0x10DF JUMP JUMPDEST SWAP2 SWAP1 POP JUMP JUMPDEST PUSH0 PUSH8 0xFFFFFFFFFFFFFFFF DUP3 GT ISZERO PUSH2 0x1144 JUMPI PUSH2 0x1143 PUSH2 0x10B2 JUMP JUMPDEST JUMPDEST PUSH2 0x114D DUP3 PUSH2 0x10A2 JUMP JUMPDEST SWAP1 POP PUSH1 0x20 DUP2 ADD SWAP1 POP SWAP2 SWAP1 POP JUMP JUMPDEST DUP3 DUP2 DUP4 CALLDATACOPY PUSH0 DUP4 DUP4 ADD MSTORE POP POP POP JUMP JUMPDEST PUSH0 PUSH2 0x117A PUSH2 0x1175 DUP5 PUSH2 0x112A JUMP JUMPDEST PUSH2 0x1110 JUMP JUMPDEST SWAP1 POP DUP3 DUP2 MSTORE PUSH1 0x20 DUP2 ADD DUP5 DUP5 DUP5 ADD GT ISZERO PUSH2 0x1196 JUMPI PUSH2 0x1195 PUSH2 0x109E JUMP JUMPDEST JUMPDEST PUSH2 0x11A1 DUP5 DUP3 DUP6 PUSH2 0x115A JUMP JUMPDEST POP SWAP4 SWAP3 POP POP POP JUMP JUMPDEST PUSH0 DUP3 PUSH1 0x1F DUP4 ADD SLT PUSH2 0x11BD JUMPI PUSH2 0x11BC PUSH2 0x109A JUMP JUMPDEST JUMPDEST DUP2 CALLDATALOAD PUSH2 0x11CD DUP5 DUP3 PUSH1 0x20 DUP7 ADD PUSH2 0x1168 JUMP JUMPDEST SWAP2 POP POP SWAP3 SWAP2 POP POP JUMP JUMPDEST PUSH0 PUSH1 0x20 DUP3 DUP5 SUB SLT ISZERO PUSH2 0x11EB JUMPI PUSH2 0x11EA PUSH2 0x1092 JUMP JUMPDEST JUMPDEST PUSH0 DUP3 ADD CALLDATALOAD PUSH8 0xFFFFFFFFFFFFFFFF DUP2 GT ISZERO PUSH2 0x1208 JUMPI PUSH2 0x1207 PUSH2 0x1096 JUMP JUMPDEST JUMPDEST PUSH2 0x1214 DUP5 DUP3 DUP6 ADD PUSH2 0x11A9 JUMP JUMPDEST SWAP2 POP POP SWAP3 SWAP2 POP POP JUMP JUMPDEST PUSH0 DUP2 MLOAD SWAP1 POP SWAP2 SWAP1 POP JUMP JUMPDEST PUSH0 DUP3 DUP3 MSTORE PUSH1 0x20 DUP3 ADD SWAP1 POP SWAP3 SWAP2 POP POP JUMP JUMPDEST PUSH0 JUMPDEST DUP4 DUP2 LT ISZERO PUSH2 0x1254 JUMPI DUP1 DUP3 ADD MLOAD DUP2 DUP5 ADD MSTORE PUSH1 0x20 DUP2 ADD SWAP1 POP PUSH2 0x1239 JUMP JUMPDEST PUSH0 DUP5 DUP5 ADD MSTORE POP POP POP POP JUMP JUMPDEST PUSH0 PUSH2 0x1269 DUP3 PUSH2 0x121D JUMP JUMPDEST PUSH2 0x1273 DUP2 DUP6 PUSH2 0x1227 JUMP JUMPDEST SWAP4 POP PUSH2 0x1283 DUP2 DUP6 PUSH1 0x20 DUP7 ADD PUSH2 0x1237 JUMP JUMPDEST PUSH2 0x128C DUP2 PUSH2 0x10A2 JUMP JUMPDEST DUP5 ADD SWAP2 POP POP SWAP3 SWAP2 POP POP JUMP JUMPDEST PUSH0 PUSH1 0xA0 DUP3 ADD SWAP1 POP DUP2 DUP2 SUB PUSH0 DUP4 ADD MSTORE PUSH2 0x12AF DUP2 DUP9 PUSH2 0x125F JUMP JUMPDEST SWAP1 POP DUP2 DUP2 SUB PUSH1 0x20 DUP4 ADD MSTORE PUSH2 0x12C3 DUP2 DUP8 PUSH2 0x125F JUMP JUMPDEST SWAP1 POP DUP2 DUP2 SUB PUSH1 0x40 DUP4 ADD MSTORE PUSH2 0x12D7 DUP2 DUP7 PUSH2 0x125F JUMP JUMPDEST SWAP1 POP DUP2 DUP2 SUB PUSH1 0x60 DUP4 ADD MSTORE PUSH2 0x12EB DUP2 DUP6 PUSH2 0x125F JUMP JUMPDEST SWAP1 POP DUP2 DUP2 SUB PUSH1 0x80 DUP4 ADD MSTORE PUSH2 0x12FF DUP2 DUP5 PUSH2 0x125F JUMP JUMPDEST SWAP1 POP SWAP7 SWAP6 POP POP POP POP POP POP JUMP JUMPDEST PUSH0 DUP3 DUP3 MSTORE PUSH1 0x20 DUP3 ADD SWAP1 POP SWAP3 SWAP2 POP POP JUMP JUMPDEST PUSH0 PUSH2 0x1325 DUP3 PUSH2 0x121D JUMP JUMPDEST PUSH2 0x132F DUP2 DUP6 PUSH2 0x130B JUMP JUMPDEST SWAP4 POP PUSH2 0x133F DUP2 DUP6 PUSH1 0x20 DUP7 ADD PUSH2 0x1237 JUMP JUMPDEST PUSH2 0x1348 DUP2 PUSH2 0x10A2 JUMP JUMPDEST DUP5 ADD SWAP2 POP POP SWAP3 SWAP2 POP POP JUMP JUMPDEST PUSH0 PUSH1 0xA0 DUP4 ADD PUSH0 DUP4 ADD MLOAD DUP5 DUP3 SUB PUSH0 DUP7 ADD MSTORE PUSH2 0x136D DUP3 DUP3 PUSH2 0x131B JUMP JUMPDEST SWAP2 POP POP PUSH1 0x20 DUP4 ADD MLOAD DUP5 DUP3 SUB PUSH1 0x20 DUP7 ADD MSTORE PUSH2 0x1387 DUP3 DUP3 PUSH2 0x131B JUMP JUMPDEST SWAP2 POP POP PUSH1 0x40 DUP4 ADD MLOAD DUP5 DUP3 SUB PUSH1 0x40 DUP7 ADD MSTORE PUSH2 0x13A1 DUP3 DUP3 PUSH2 0x131B JUMP JUMPDEST SWAP2 POP POP PUSH1 0x60 DUP4 ADD MLOAD DUP5 DUP3 SUB PUSH1 0x60 DUP7 ADD MSTORE PUSH2 0x13BB DUP3 DUP3 PUSH2 0x131B JUMP JUMPDEST SWAP2 POP POP PUSH1 0x80 DUP4 ADD MLOAD DUP5 DUP3 SUB PUSH1 0x80 DUP7 ADD MSTORE PUSH2 0x13D5 DUP3 DUP3 PUSH2 0x131B JUMP JUMPDEST SWAP2 POP POP DUP1 SWAP2 POP POP SWAP3 SWAP2 POP POP JUMP JUMPDEST PUSH0 DUP2 SWAP1 POP SWAP2 SWAP1 POP JUMP JUMPDEST PUSH2 0x13F4 DUP2 PUSH2 0x13E2 JUMP JUMPDEST DUP3 MSTORE POP POP JUMP JUMPDEST PUSH0 PUSH2 0x120 DUP3 ADD SWAP1 POP DUP2 DUP2 SUB PUSH0 DUP4 ADD MSTORE PUSH2 0x1413 DUP2 DUP13 PUSH2 0x125F JUMP JUMPDEST SWAP1 POP DUP2 DUP2 SUB PUSH1 0x20 DUP4 ADD MSTORE PUSH2 0x1427 DUP2 DUP12 PUSH2 0x125F JUMP JUMPDEST SWAP1 POP DUP2 DUP2 SUB PUSH1 0x40 DUP4 ADD MSTORE PUSH2 0x143B DUP2 DUP11 PUSH2 0x125F JUMP JUMPDEST SWAP1 POP DUP2 DUP2 SUB PUSH1 0x60 DUP4 ADD MSTORE PUSH2 0x144F DUP2 DUP10 PUSH2 0x125F JUMP JUMPDEST SWAP1 POP DUP2 DUP2 SUB PUSH1 0x80 DUP4 ADD MSTORE PUSH2 0x1463 DUP2 DUP9 PUSH2 0x125F JUMP JUMPDEST SWAP1 POP DUP2 DUP2 SUB PUSH1 0xA0 DUP4 ADD MSTORE PUSH2 0x1477 DUP2 DUP8 PUSH2 0x125F JUMP JUMPDEST SWAP1 POP DUP2 DUP2 SUB PUSH1 0xC0 DUP4 ADD MSTORE PUSH2 0x148B DUP2 DUP7 PUSH2 0x1353 JUMP JUMPDEST SWAP1 POP PUSH2 0x149A PUSH1 0xE0 DUP4 ADD DUP6 PUSH2 0x13EB JUMP JUMPDEST PUSH2 0x14A8 PUSH2 0x100 DUP4 ADD DUP5 PUSH2 0x13EB JUMP JUMPDEST SWAP11 SWAP10 POP POP POP POP POP POP POP POP POP POP JUMP JUMPDEST PUSH0 DUP1 PUSH0 DUP1 PUSH0 PUSH1 0xA0 DUP7 DUP9 SUB SLT ISZERO PUSH2 0x14CF JUMPI PUSH2 0x14CE PUSH2 0x1092 JUMP JUMPDEST JUMPDEST PUSH0 DUP7 ADD CALLDATALOAD PUSH8 0xFFFFFFFFFFFFFFFF DUP2 GT ISZERO PUSH2 0x14EC JUMPI PUSH2 0x14EB PUSH2 0x1096 JUMP JUMPDEST JUMPDEST PUSH2 0x14F8 DUP9 DUP3 DUP10 ADD PUSH2 0x11A9 JUMP JUMPDEST SWAP6 POP POP PUSH1 0x20 DUP7 ADD CALLDATALOAD PUSH8 0xFFFFFFFFFFFFFFFF DUP2 GT ISZERO PUSH2 0x1519 JUMPI PUSH2 0x1518 PUSH2 0x1096 JUMP JUMPDEST JUMPDEST PUSH2 0x1525 DUP9 DUP3 DUP10 ADD PUSH2 0x11A9 JUMP JUMPDEST SWAP5 POP POP PUSH1 0x40 DUP7 ADD CALLDATALOAD PUSH8 0xFFFFFFFFFFFFFFFF DUP2 GT ISZERO PUSH2 0x1546 JUMPI PUSH2 0x1545 PUSH2 0x1096 JUMP JUMPDEST JUMPDEST PUSH2 0x1552 DUP9 DUP3 DUP10 ADD PUSH2 0x11A9 JUMP JUMPDEST SWAP4 POP POP PUSH1 0x60 DUP7 ADD CALLDATALOAD PUSH8 0xFFFFFFFFFFFFFFFF DUP2 GT ISZERO PUSH2 0x1573 JUMPI PUSH2 0x1572 PUSH2 0x1096 JUMP JUMPDEST JUMPDEST PUSH2 0x157F DUP9 DUP3 DUP10 ADD PUSH2 0x11A9 JUMP JUMPDEST SWAP3 POP POP PUSH1 0x80 DUP7 ADD CALLDATALOAD PUSH8 0xFFFFFFFFFFFFFFFF DUP2 GT ISZERO PUSH2 0x15A0 JUMPI PUSH2 0x159F PUSH2 0x1096 JUMP JUMPDEST JUMPDEST PUSH2 0x15AC DUP9 DUP3 DUP10 ADD PUSH2 0x11A9 JUMP JUMPDEST SWAP2 POP POP SWAP3 SWAP6 POP SWAP3 SWAP6 SWAP1 SWAP4 POP JUMP JUMPDEST PUSH0 DUP1 PUSH0 DUP1 PUSH0 DUP1 PUSH0 DUP1 PUSH0 DUP1 PUSH0 PUSH2 0x160 DUP13 DUP15 SUB SLT ISZERO PUSH2 0x15D9 JUMPI PUSH2 0x15D8 PUSH2 0x1092 JUMP JUMPDEST JUMPDEST PUSH0 DUP13 ADD CALLDATALOAD PUSH8 0xFFFFFFFFFFFFFFFF DUP2 GT ISZERO PUSH2 0x15F6 JUMPI PUSH2 0x15F5 PUSH2 0x1096 JUMP JUMPDEST JUMPDEST PUSH2 0x1602 DUP15 DUP3 DUP16 ADD PUSH2 0x11A9 JUMP JUMPDEST SWAP12 POP POP PUSH1 0x20 DUP13 ADD CALLDATALOAD PUSH8 0xFFFFFFFFFFFFFFFF DUP2 GT ISZERO PUSH2 0x1623 JUMPI PUSH2 0x1622 PUSH2 0x1096 JUMP JUMPDEST JUMPDEST PUSH2 0x162F DUP15 DUP3 DUP16 ADD PUSH2 0x11A9 JUMP JUMPDEST SWAP11 POP POP PUSH1 0x40 DUP13 ADD CALLDATALOAD PUSH8 0xFFFFFFFFFFFFFFFF DUP2 GT ISZERO PUSH2 0x1650 JUMPI PUSH2 0x164F PUSH2 0x1096 JUMP JUMPDEST JUMPDEST PUSH2 0x165C DUP15 DUP3 DUP16 ADD PUSH2 0x11A9 JUMP JUMPDEST SWAP10 POP POP PUSH1 0x60 DUP13 ADD CALLDATALOAD PUSH8 0xFFFFFFFFFFFFFFFF DUP2 GT ISZERO PUSH2 0x167D JUMPI PUSH2 0x167C PUSH2 0x1096 JUMP JUMPDEST JUMPDEST PUSH2 0x1689 DUP15 DUP3 DUP16 ADD PUSH2 0x11A9 JUMP JUMPDEST SWAP9 POP POP PUSH1 0x80 DUP13 ADD CALLDATALOAD PUSH8 0xFFFFFFFFFFFFFFFF DUP2 GT ISZERO PUSH2 0x16AA JUMPI PUSH2 0x16A9 PUSH2 0x1096 JUMP JUMPDEST JUMPDEST PUSH2 0x16B6 DUP15 DUP3 DUP16 ADD PUSH2 0x11A9 JUMP JUMPDEST SWAP8 POP POP PUSH1 0xA0 DUP13 ADD CALLDATALOAD PUSH8 0xFFFFFFFFFFFFFFFF DUP2 GT ISZERO PUSH2 0x16D7 JUMPI PUSH2 0x16D6 PUSH2 0x1096 JUMP JUMPDEST JUMPDEST PUSH2 0x16E3 DUP15 DUP3 DUP16 ADD PUSH2 0x11A9 JUMP JUMPDEST SWAP7 POP POP PUSH1 0xC0 DUP13 ADD CALLDATALOAD PUSH8 0xFFFFFFFFFFFFFFFF DUP2 GT ISZERO PUSH2 0x1704 JUMPI PUSH2 0x1703 PUSH2 0x1096 JUMP JUMPDEST JUMPDEST PUSH2 0x1710 DUP15 DUP3 DUP16 ADD PUSH2 0x11A9 JUMP JUMPDEST SWAP6 POP POP PUSH1 0xE0 DUP13 ADD CALLDATALOAD PUSH8 0xFFFFFFFFFFFFFFFF DUP2 GT ISZERO PUSH2 0x1731 JUMPI PUSH2 0x1730 PUSH2 0x1096 JUMP JUMPDEST JUMPDEST PUSH2 0x173D DUP15 DUP3 DUP16 ADD PUSH2 0x11A9 JUMP JUMPDEST SWAP5 POP POP PUSH2 0x100 DUP13 ADD CALLDATALOAD PUSH8 0xFFFFFFFFFFFFFFFF DUP2 GT ISZERO PUSH2 0x175F JUMPI PUSH2 0x175E PUSH2 0x1096 JUMP JUMPDEST JUMPDEST PUSH2 0x176B DUP15 DUP3 DUP16 ADD PUSH2 0x11A9 JUMP JUMPDEST SWAP4 POP POP PUSH2 0x120 DUP13 ADD CALLDATALOAD PUSH8 0xFFFFFFFFFFFFFFFF DUP2 GT ISZERO PUSH2 0x178D JUMPI PUSH2 0x178C PUSH2 0x1096 JUMP JUMPDEST JUMPDEST PUSH2 0x1799 DUP15 DUP3 DUP16 ADD PUSH2 0x11A9 JUMP JUMPDEST SWAP3 POP POP PUSH2 0x140 DUP13 ADD CALLDATALOAD PUSH8 0xFFFFFFFFFFFFFFFF DUP2 GT ISZERO PUSH2 0x17BB JUMPI PUSH2 0x17BA PUSH2 0x1096 JUMP JUMPDEST JUMPDEST PUSH2 0x17C7 DUP15 DUP3 DUP16 ADD PUSH2 0x11A9 JUMP JUMPDEST SWAP2 POP POP SWAP3 SWAP6 SWAP9 SWAP12 POP SWAP3 SWAP6 SWAP9 SWAP12 SWAP1 SWAP4 SWAP7 SWAP10 POP JUMP JUMPDEST PUSH0 PUSH20 0xFFFFFFFFFFFFFFFFFFFFFFFFFFFFFFFFFFFFFFFF DUP3 AND SWAP1 POP SWAP2 SWAP1 POP JUMP JUMPDEST PUSH0 PUSH2 0x1803 DUP3 PUSH2 0x17DA JUMP JUMPDEST SWAP1 POP SWAP2 SWAP1 POP JUMP JUMPDEST PUSH2 0x1813 DUP2 PUSH2 0x17F9 JUMP JUMPDEST DUP2 EQ PUSH2 0x181D JUMPI PUSH0 DUP1 REVERT JUMPDEST POP JUMP JUMPDEST PUSH0 DUP2 CALLDATALOAD SWAP1 POP PUSH2 0x182E DUP2 PUSH2 0x180A JUMP JUMPDEST SWAP3 SWAP2 POP POP JUMP JUMPDEST PUSH2 0x183D DUP2 PUSH2 0x13E2 JUMP JUMPDEST DUP2 EQ PUSH2 0x1847 JUMPI PUSH0 DUP1 REVERT JUMPDEST POP JUMP JUMPDEST PUSH0 DUP2 CALLDATALOAD SWAP1 POP PUSH2 0x1858 DUP2 PUSH2 0x1834 JUMP JUMPDEST SWAP3 SWAP2 POP POP JUMP JUMPDEST PUSH0 DUP1 PUSH1 0x40 DUP4 DUP6 SUB SLT ISZERO PUSH2 0x1874 JUMPI PUSH2 0x1873 PUSH2 0x1092 JUMP JUMPDEST JUMPDEST PUSH0 PUSH2 0x1881 DUP6 DUP3 DUP7 ADD PUSH2 0x1820 JUMP JUMPDEST SWAP3 POP POP PUSH1 0x20 PUSH2 0x1892 DUP6 DUP3 DUP7 ADD PUSH2 0x184A JUMP JUMPDEST SWAP2 POP POP SWAP3 POP SWAP3 SWAP1 POP JUMP JUMPDEST PUSH0 PUSH1 0x20 DUP3 ADD SWAP1 POP DUP2 DUP2 SUB PUSH0 DUP4 ADD MSTORE PUSH2 0x18B4 DUP2 DUP5 PUSH2 0x125F JUMP JUMPDEST SWAP1 POP SWAP3 SWAP2 POP POP JUMP JUMPDEST PUSH0 DUP2 SWAP1 POP SWAP3 SWAP2 POP POP JUMP JUMPDEST PUSH0 PUSH2 0x18D0 DUP3 PUSH2 0x121D JUMP JUMPDEST PUSH2 0x18DA DUP2 DUP6 PUSH2 0x18BC JUMP JUMPDEST SWAP4 POP PUSH2 0x18EA DUP2 DUP6 PUSH1 0x20 DUP7 ADD PUSH2 0x1237 JUMP JUMPDEST DUP1 DUP5 ADD SWAP2 POP POP SWAP3 SWAP2 POP POP JUMP JUMPDEST PUSH0 PUSH2 0x1901 DUP3 DUP5 PUSH2 0x18C6 JUMP JUMPDEST SWAP2 POP DUP2 SWAP1 POP SWAP3 SWAP2 POP POP JUMP JUMPDEST PUSH32 0x4E487B7100000000000000000000000000000000000000000000000000000000 PUSH0 MSTORE PUSH1 0x22 PUSH1 0x4 MSTORE PUSH1 0x24 PUSH0 REVERT JUMPDEST PUSH0 PUSH1 0x2 DUP3 DIV SWAP1 POP PUSH1 0x1 DUP3 AND DUP1 PUSH2 0x1950 JUMPI PUSH1 0x7F DUP3 AND SWAP2 POP JUMPDEST PUSH1 0x20 DUP3 LT DUP2 SUB PUSH2 0x1963 JUMPI PUSH2 0x1962 PUSH2 0x190C JUMP JUMPDEST JUMPDEST POP SWAP2 SWAP1 POP JUMP JUMPDEST PUSH32 0x4E487B7100000000000000000000000000000000000000000000000000000000 PUSH0 MSTORE PUSH1 0x32 PUSH1 0x4 MSTORE PUSH1 0x24 PUSH0 REVERT JUMPDEST PUSH0 DUP2 SWAP1 POP DUP2 PUSH0 MSTORE PUSH1 0x20 PUSH0 KECCAK256 SWAP1 POP SWAP2 SWAP1 POP JUMP JUMPDEST PUSH0 DUP2 SLOAD PUSH2 0x19B4 DUP2 PUSH2 0x1939 JUMP JUMPDEST PUSH2 0x19BE DUP2 DUP7 PUSH2 0x18BC JUMP JUMPDEST SWAP5 POP PUSH1 0x1 DUP3 AND PUSH0 DUP2 EQ PUSH2 0x19D8 JUMPI PUSH1 0x1 DUP2 EQ PUSH2 0x19ED JUMPI PUSH2 0x1A1F JUMP JUMPDEST PUSH1 0xFF NOT DUP4 AND DUP7 MSTORE DUP2 ISZERO ISZERO DUP3 MUL DUP7 ADD SWAP4 POP PUSH2 0x1A1F JUMP JUMPDEST PUSH2 0x19F6 DUP6 PUSH2 0x1996 JUMP JUMPDEST PUSH0 JUMPDEST DUP4 DUP2 LT ISZERO PUSH2 0x1A17 JUMPI DUP2 SLOAD DUP2 DUP10 ADD MSTORE PUSH1 0x1 DUP3 ADD SWAP2 POP PUSH1 0x20 DUP2 ADD SWAP1 POP PUSH2 0x19F8 JUMP JUMPDEST DUP4 DUP9 ADD SWAP6 POP POP POP JUMPDEST POP POP POP SWAP3 SWAP2 POP POP JUMP JUMPDEST PUSH0 PUSH2 0x1A33 DUP3 DUP5 PUSH2 0x19A8 JUMP JUMPDEST SWAP2 POP DUP2 SWAP1 POP SWAP3 SWAP2 POP POP JUMP JUMPDEST PUSH32 0x4E487B7100000000000000000000000000000000000000000000000000000000 PUSH0 MSTORE PUSH1 0x11 PUSH1 0x4 MSTORE PUSH1 0x24 PUSH0 REVERT JUMPDEST PUSH0 PUSH2 0x1A75 DUP3 PUSH2 0x13E2 JUMP JUMPDEST SWAP2 POP PUSH2 0x1A80 DUP4 PUSH2 0x13E2 JUMP JUMPDEST SWAP3 POP DUP3 DUP3 SUB SWAP1 POP DUP2 DUP2 GT ISZERO PUSH2 0x1A98 JUMPI PUSH2 0x1A97 PUSH2 0x1A3E JUMP JUMPDEST JUMPDEST SWAP3 SWAP2 POP POP JUMP JUMPDEST PUSH0 DUP2 SLOAD SWAP1 POP PUSH2 0x1AAC DUP2 PUSH2 0x1939 JUMP JUMPDEST SWAP1 POP SWAP2 SWAP1 POP JUMP JUMPDEST PUSH0 DUP2 SWAP1 POP DUP2 PUSH0 MSTORE PUSH1 0x20 PUSH0 KECCAK256 SWAP1 POP SWAP2 SWAP1 POP JUMP JUMPDEST PUSH0 PUSH1 0x20 PUSH1 0x1F DUP4 ADD DIV SWAP1 POP SWAP2 SWAP1 POP JUMP JUMPDEST PUSH0 DUP3 DUP3 SHL SWAP1 POP SWAP3 SWAP2 POP POP JUMP JUMPDEST PUSH0 PUSH1 0x8 DUP4 MUL PUSH2 0x1B0F PUSH32 0xFFFFFFFFFFFFFFFFFFFFFFFFFFFFFFFFFFFFFFFFFFFFFFFFFFFFFFFFFFFFFFFF DUP3 PUSH2 0x1AD4 JUMP JUMPDEST PUSH2 0x1B19 DUP7 DUP4 PUSH2 0x1AD4 JUMP JUMPDEST SWAP6 POP DUP1 NOT DUP5 AND SWAP4 POP DUP1 DUP7 AND DUP5 OR SWAP3 POP POP POP SWAP4 SWAP3 POP POP POP JUMP JUMPDEST PUSH0 DUP2 SWAP1 POP SWAP2 SWAP1 POP JUMP JUMPDEST PUSH0 PUSH2 0x1B54 PUSH2 0x1B4F PUSH2 0x1B4A DUP5 PUSH2 0x13E2 JUMP JUMPDEST PUSH2 0x1B31 JUMP JUMPDEST PUSH2 0x13E2 JUMP JUMPDEST SWAP1 POP SWAP2 SWAP1 POP JUMP JUMPDEST PUSH0 DUP2 SWAP1 POP SWAP2 SWAP1 POP JUMP JUMPDEST PUSH2 0x1B6D DUP4 PUSH2 0x1B3A JUMP JUMPDEST PUSH2 0x1B81 PUSH2 0x1B79 DUP3 PUSH2 0x1B5B JUMP JUMPDEST DUP5 DUP5 SLOAD PUSH2 0x1AE0 JUMP JUMPDEST DUP3 SSTORE POP POP POP POP JUMP JUMPDEST PUSH0 SWAP1 JUMP JUMPDEST PUSH2 0x1B95 PUSH2 0x1B89 JUMP JUMPDEST PUSH2 0x1BA0 DUP2 DUP5 DUP5 PUSH2 0x1B64 JUMP JUMPDEST POP POP POP JUMP JUMPDEST JUMPDEST DUP2 DUP2 LT ISZERO PUSH2 0x1BC3 JUMPI PUSH2 0x1BB8 PUSH0 DUP3 PUSH2 0x1B8D JUMP JUMPDEST PUSH1 0x1 DUP2 ADD SWAP1 POP PUSH2 0x1BA6 JUMP JUMPDEST POP POP JUMP JUMPDEST PUSH1 0x1F DUP3 GT ISZERO PUSH2 0x1C08 JUMPI PUSH2 0x1BD9 DUP2 PUSH2 0x1996 JUMP JUMPDEST PUSH2 0x1BE2 DUP5 PUSH2 0x1AC5 JUMP JUMPDEST DUP2 ADD PUSH1 0x20 DUP6 LT ISZERO PUSH2 0x1BF1 JUMPI DUP2 SWAP1 POP JUMPDEST PUSH2 0x1C05 PUSH2 0x1BFD DUP6 PUSH2 0x1AC5 JUMP JUMPDEST DUP4 ADD DUP3 PUSH2 0x1BA5 JUMP JUMPDEST POP POP JUMPDEST POP POP POP JUMP JUMPDEST PUSH0 DUP3 DUP3 SHR SWAP1 POP SWAP3 SWAP2 POP POP JUMP JUMPDEST PUSH0 PUSH2 0x1C28 PUSH0 NOT DUP5 PUSH1 0x8 MUL PUSH2 0x1C0D JUMP JUMPDEST NOT DUP1 DUP4 AND SWAP2 POP POP SWAP3 SWAP2 POP POP JUMP JUMPDEST PUSH0 PUSH2 0x1C40 DUP4 DUP4 PUSH2 0x1C19 JUMP JUMPDEST SWAP2 POP DUP3 PUSH1 0x2 MUL DUP3 OR SWAP1 POP SWAP3 SWAP2 POP POP JUMP JUMPDEST DUP2 DUP2 SUB PUSH2 0x1C5E JUMPI POP POP PUSH2 0x1D33 JUMP JUMPDEST PUSH2 0x1C67 DUP3 PUSH2 0x1A9E JUMP JUMPDEST PUSH8 0xFFFFFFFFFFFFFFFF DUP2 GT ISZERO PUSH2 0x1C80 JUMPI PUSH2 0x1C7F PUSH2 0x10B2 JUMP JUMPDEST JUMPDEST PUSH2 0x1C8A DUP3 SLOAD PUSH2 0x1939 JUMP JUMPDEST PUSH2 0x1C95 DUP3 DUP3 DUP6 PUSH2 0x1BC7 JUMP JUMPDEST PUSH0 PUSH1 0x1F DUP4 GT PUSH1 0x1 DUP2 EQ PUSH2 0x1CC2 JUMPI PUSH0 DUP5 ISZERO PUSH2 0x1CB0 JUMPI DUP3 DUP8 ADD SLOAD SWAP1 POP JUMPDEST PUSH2 0x1CBA DUP6 DUP3 PUSH2 0x1C35 JUMP JUMPDEST DUP7 SSTORE POP PUSH2 0x1D2C JUMP JUMPDEST PUSH1 0x1F NOT DUP5 AND PUSH2 0x1CD0 DUP8 PUSH2 0x1AB3 JUMP JUMPDEST SWAP7 POP PUSH2 0x1CDB DUP7 PUSH2 0x1996 JUMP JUMPDEST PUSH0 JUMPDEST DUP3 DUP2 LT ISZERO PUSH2 0x1D02 JUMPI DUP5 DUP10 ADD SLOAD DUP3 SSTORE PUSH1 0x1 DUP3 ADD SWAP2 POP PUSH1 0x1 DUP6 ADD SWAP5 POP PUSH1 0x20 DUP2 ADD SWAP1 POP PUSH2 0x1CDD JUMP JUMPDEST DUP7 DUP4 LT ISZERO PUSH2 0x1D1F JUMPI DUP5 DUP10 ADD SLOAD PUSH2 0x1D1B PUSH1 0x1F DUP10 AND DUP3 PUSH2 0x1C19 JUMP JUMPDEST DUP4 SSTORE POP JUMPDEST PUSH1 0x1 PUSH1 0x2 DUP9 MUL ADD DUP9 SSTORE POP POP POP JUMPDEST POP POP POP POP POP POP JUMPDEST JUMP JUMPDEST PUSH32 0x4E487B7100000000000000000000000000000000000000000000000000000000 PUSH0 MSTORE PUSH1 0x31 PUSH1 0x4 MSTORE PUSH1 0x24 PUSH0 REVERT JUMPDEST PUSH2 0x1D6B DUP3 PUSH2 0x121D JUMP JUMPDEST PUSH8 0xFFFFFFFFFFFFFFFF DUP2 GT ISZERO PUSH2 0x1D84 JUMPI PUSH2 0x1D83 PUSH2 0x10B2 JUMP JUMPDEST JUMPDEST PUSH2 0x1D8E DUP3 SLOAD PUSH2 0x1939 JUMP JUMPDEST PUSH2 0x1D99 DUP3 DUP3 DUP6 PUSH2 0x1BC7 JUMP JUMPDEST PUSH0 PUSH1 0x20 SWAP1 POP PUSH1 0x1F DUP4 GT PUSH1 0x1 DUP2 EQ PUSH2 0x1DCA JUMPI PUSH0 DUP5 ISZERO PUSH2 0x1DB8 JUMPI DUP3 DUP8 ADD MLOAD SWAP1 POP JUMPDEST PUSH2 0x1DC2 DUP6 DUP3 PUSH2 0x1C35 JUMP JUMPDEST DUP7 SSTORE POP PUSH2 0x1E29 JUMP JUMPDEST PUSH1 0x1F NOT DUP5 AND PUSH2 0x1DD8 DUP7 PUSH2 0x1996 JUMP JUMPDEST PUSH0 JUMPDEST DUP3 DUP2 LT ISZERO PUSH2 0x1DFF JUMPI DUP5 DUP10 ADD MLOAD DUP3 SSTORE PUSH1 0x1 DUP3 ADD SWAP2 POP PUSH1 0x20 DUP6 ADD SWAP5 POP PUSH1 0x20 DUP2 ADD SWAP1 POP PUSH2 0x1DDA JUMP JUMPDEST DUP7 DUP4 LT ISZERO PUSH2 0x1E1C JUMPI DUP5 DUP10 ADD MLOAD PUSH2 0x1E18 PUSH1 0x1F DUP10 AND DUP3 PUSH2 0x1C19 JUMP JUMPDEST DUP4 SSTORE POP JUMPDEST PUSH1 0x1 PUSH1 0x2 DUP9 MUL ADD DUP9 SSTORE POP POP POP JUMPDEST POP POP POP POP POP POP JUMP JUMPDEST PUSH0 PUSH1 0xA0 DUP3 ADD SWAP1 POP DUP2 DUP2 SUB PUSH0 DUP4 ADD MSTORE PUSH2 0x1E49 DUP2 DUP9 PUSH2 0x125F JUMP JUMPDEST SWAP1 POP DUP2 DUP2 SUB PUSH1 0x20 DUP4 ADD MSTORE PUSH2 0x1E5D DUP2 DUP8 PUSH2 0x125F JUMP JUMPDEST SWAP1 POP DUP2 DUP2 SUB PUSH1 0x40 DUP4 ADD MSTORE PUSH2 0x1E71 DUP2 DUP7 PUSH2 0x125F JUMP JUMPDEST SWAP1 POP DUP2 DUP2 SUB PUSH1 0x60 DUP4 ADD MSTORE PUSH2 0x1E85 DUP2 DUP6 PUSH2 0x125F JUMP JUMPDEST SWAP1 POP PUSH2 0x1E94 PUSH1 0x80 DUP4 ADD DUP5 PUSH2 0x13EB JUMP JUMPDEST SWAP7 SWAP6 POP POP POP POP POP POP JUMP INVALID LOG2 PUSH5 0x6970667358 0x22 SLT KECCAK256 SWAP11 TLOAD PUSH1 0x54 NOT 0xDF 0xB0 SELFDESTRUCT CALLDATALOAD 0x2E SWAP6 0xA9 MULMOD SSTORE 0xF 0xC7 0xDB PUSH14 0xF58C1F241AF9AD923C8616FF968B PUSH5 0x736F6C6343 STOP ADDMOD XOR STOP CALLER "
		},
		"gasEstimates": {
			"creation": {
				"codeDepositCost": "1578400",
				"executionCost": "1650",
				"totalCost": "1580050"
			},
			"external": {
				"createUser(string,string,string,string,string,string,string,string,string,string,string)": "infinite",
				"deleteUser(string)": "infinite",
				"getUserDetails(string)": "infinite",
				"updateUserDetails(string,string,string,string,string)": "infinite",
				"userAddresses(address,uint256)": "infinite",
				"users(string)": "infinite"
			}
		},
		"methodIdentifiers": {
			"createUser(string,string,string,string,string,string,string,string,string,string,string)": "e37bcb3b",
			"deleteUser(string)": "d3695161",
			"getUserDetails(string)": "085ba074",
			"updateUserDetails(string,string,string,string,string)": "d50f69ea",
			"userAddresses(address,uint256)": "e9489b0c",
			"users(string)": "689e1c03"
		}
	},
	"abi": [
		{
			"anonymous": false,
			"inputs": [
				{
					"indexed": true,
					"internalType": "string",
					"name": "_id",
					"type": "string"
				},
				{
					"indexed": true,
					"internalType": "address",
					"name": "userAddress",
					"type": "address"
				},
				{
					"indexed": false,
					"internalType": "string",
					"name": "name",
					"type": "string"
				},
				{
					"indexed": false,
					"internalType": "string",
					"name": "role",
					"type": "string"
				},
				{
					"indexed": false,
					"internalType": "string",
					"name": "mobile",
					"type": "string"
				},
				{
					"indexed": false,
					"internalType": "string",
					"name": "email",
					"type": "string"
				},
				{
					"indexed": false,
					"internalType": "uint256",
					"name": "created",
					"type": "uint256"
				}
			],
			"name": "UserCreated",
			"type": "event"
		},
		{
			"inputs": [
				{
					"internalType": "string",
					"name": "_id",
					"type": "string"
				},
				{
					"internalType": "string",
					"name": "_name",
					"type": "string"
				},
				{
					"internalType": "string",
					"name": "_role",
					"type": "string"
				},
				{
					"internalType": "string",
					"name": "_mobile",
					"type": "string"
				},
				{
					"internalType": "string",
					"name": "_password",
					"type": "string"
				},
				{
					"internalType": "string",
					"name": "_email",
					"type": "string"
				},
				{
					"internalType": "string",
					"name": "_address1",
					"type": "string"
				},
				{
					"internalType": "string",
					"name": "_address2",
					"type": "string"
				},
				{
					"internalType": "string",
					"name": "_city",
					"type": "string"
				},
				{
					"internalType": "string",
					"name": "_state",
					"type": "string"
				},
				{
					"internalType": "string",
					"name": "_pin",
					"type": "string"
				}
			],
			"name": "createUser",
			"outputs": [],
			"stateMutability": "nonpayable",
			"type": "function"
		},
		{
			"inputs": [
				{
					"internalType": "string",
					"name": "_id",
					"type": "string"
				}
			],
			"name": "deleteUser",
			"outputs": [],
			"stateMutability": "nonpayable",
			"type": "function"
		},
		{
			"inputs": [
				{
					"internalType": "string",
					"name": "_id",
					"type": "string"
				}
			],
			"name": "getUserDetails",
			"outputs": [
				{
					"internalType": "string",
					"name": "",
					"type": "string"
				},
				{
					"internalType": "string",
					"name": "",
					"type": "string"
				},
				{
					"internalType": "string",
					"name": "",
					"type": "string"
				},
				{
					"internalType": "string",
					"name": "",
					"type": "string"
				},
				{
					"internalType": "string",
					"name": "",
					"type": "string"
				}
			],
			"stateMutability": "view",
			"type": "function"
		},
		{
			"inputs": [
				{
					"internalType": "string",
					"name": "_id",
					"type": "string"
				},
				{
					"internalType": "string",
					"name": "_name",
					"type": "string"
				},
				{
					"internalType": "string",
					"name": "_role",
					"type": "string"
				},
				{
					"internalType": "string",
					"name": "_mobile",
					"type": "string"
				},
				{
					"internalType": "string",
					"name": "_email",
					"type": "string"
				}
			],
			"name": "updateUserDetails",
			"outputs": [],
			"stateMutability": "nonpayable",
			"type": "function"
		},
		{
			"inputs": [
				{
					"internalType": "address",
					"name": "",
					"type": "address"
				},
				{
					"internalType": "uint256",
					"name": "",
					"type": "uint256"
				}
			],
			"name": "userAddresses",
			"outputs": [
				{
					"internalType": "string",
					"name": "",
					"type": "string"
				}
			],
			"stateMutability": "view",
			"type": "function"
		},
		{
			"inputs": [
				{
					"internalType": "string",
					"name": "",
					"type": "string"
				}
			],
			"name": "users",
			"outputs": [
				{
					"internalType": "string",
					"name": "_id",
					"type": "string"
				},
				{
					"internalType": "string",
					"name": "name",
					"type": "string"
				},
				{
					"internalType": "string",
					"name": "role",
					"type": "string"
				},
				{
					"internalType": "string",
					"name": "mobile",
					"type": "string"
				},
				{
					"internalType": "string",
					"name": "password",
					"type": "string"
				},
				{
					"internalType": "string",
					"name": "email",
					"type": "string"
				},
				{
					"components": [
						{
							"internalType": "string",
							"name": "address1",
							"type": "string"
						},
						{
							"internalType": "string",
							"name": "address2",
							"type": "string"
						},
						{
							"internalType": "string",
							"name": "city",
							"type": "string"
						},
						{
							"internalType": "string",
							"name": "state",
							"type": "string"
						},
						{
							"internalType": "string",
							"name": "pin",
							"type": "string"
						}
					],
					"internalType": "struct UserCRUD.addressData",
					"name": "addressInfo",
					"type": "tuple"
				},
				{
					"internalType": "uint256",
					"name": "created",
					"type": "uint256"
				},
				{
					"internalType": "uint256",
					"name": "updated",
					"type": "uint256"
				}
			],
			"stateMutability": "view",
			"type": "function"
		}
	]
}