{
	"users.sol": {
		"UserCRUD": {
			"abi": [
				{
					"anonymous": false,
					"inputs": [
						{
							"indexed": true,
							"internalType": "string",
							"name": "_id",
							"type": "string"
						},
						{
							"indexed": true,
							"internalType": "address",
							"name": "userAddress",
							"type": "address"
						},
						{
							"indexed": false,
							"internalType": "string",
							"name": "name",
							"type": "string"
						},
						{
							"indexed": false,
							"internalType": "string",
							"name": "role",
							"type": "string"
						},
						{
							"indexed": false,
							"internalType": "string",
							"name": "mobile",
							"type": "string"
						},
						{
							"indexed": false,
							"internalType": "string",
							"name": "email",
							"type": "string"
						},
						{
							"indexed": false,
							"internalType": "uint256",
							"name": "created",
							"type": "uint256"
						}
					],
					"name": "UserCreated",
					"type": "event"
				},
				{
					"inputs": [
						{
							"internalType": "string",
							"name": "_id",
							"type": "string"
						},
						{
							"internalType": "string",
							"name": "_name",
							"type": "string"
						},
						{
							"internalType": "string",
							"name": "_role",
							"type": "string"
						},
						{
							"internalType": "string",
							"name": "_mobile",
							"type": "string"
						},
						{
							"internalType": "string",
							"name": "_password",
							"type": "string"
						},
						{
							"internalType": "string",
							"name": "_email",
							"type": "string"
						},
						{
							"internalType": "string",
							"name": "_address1",
							"type": "string"
						},
						{
							"internalType": "string",
							"name": "_address2",
							"type": "string"
						},
						{
							"internalType": "string",
							"name": "_city",
							"type": "string"
						},
						{
							"internalType": "string",
							"name": "_state",
							"type": "string"
						},
						{
							"internalType": "string",
							"name": "_pin",
							"type": "string"
						}
					],
					"name": "createUser",
					"outputs": [],
					"stateMutability": "nonpayable",
					"type": "function"
				},
				{
					"inputs": [
						{
							"internalType": "string",
							"name": "_id",
							"type": "string"
						}
					],
					"name": "getUserDetails",
					"outputs": [
						{
							"internalType": "string",
							"name": "",
							"type": "string"
						},
						{
							"internalType": "string",
							"name": "",
							"type": "string"
						},
						{
							"internalType": "string",
							"name": "",
							"type": "string"
						},
						{
							"internalType": "string",
							"name": "",
							"type": "string"
						},
						{
							"internalType": "string",
							"name": "",
							"type": "string"
						}
					],
					"stateMutability": "view",
					"type": "function"
				},
				{
					"inputs": [
						{
							"internalType": "string",
							"name": "_id",
							"type": "string"
						},
						{
							"internalType": "string",
							"name": "_name",
							"type": "string"
						},
						{
							"internalType": "string",
							"name": "_role",
							"type": "string"
						},
						{
							"internalType": "string",
							"name": "_mobile",
							"type": "string"
						},
						{
							"internalType": "string",
							"name": "_email",
							"type": "string"
						}
					],
					"name": "updateUserDetails",
					"outputs": [],
					"stateMutability": "nonpayable",
					"type": "function"
				},
				{
					"inputs": [
						{
							"internalType": "string",
							"name": "",
							"type": "string"
						}
					],
					"name": "users",
					"outputs": [
						{
							"internalType": "string",
							"name": "_id",
							"type": "string"
						},
						{
							"internalType": "string",
							"name": "name",
							"type": "string"
						},
						{
							"internalType": "string",
							"name": "role",
							"type": "string"
						},
						{
							"internalType": "string",
							"name": "mobile",
							"type": "string"
						},
						{
							"internalType": "string",
							"name": "password",
							"type": "string"
						},
						{
							"internalType": "string",
							"name": "email",
							"type": "string"
						},
						{
							"components": [
								{
									"internalType": "string",
									"name": "address1",
									"type": "string"
								},
								{
									"internalType": "string",
									"name": "address2",
									"type": "string"
								},
								{
									"internalType": "string",
									"name": "city",
									"type": "string"
								},
								{
									"internalType": "string",
									"name": "state",
									"type": "string"
								},
								{
									"internalType": "string",
									"name": "pin",
									"type": "string"
								}
							],
							"internalType": "struct UserCRUD.addressData",
							"name": "addressInfo",
							"type": "tuple"
						},
						{
							"internalType": "uint256",
							"name": "created",
							"type": "uint256"
						},
						{
							"internalType": "uint256",
							"name": "updated",
							"type": "uint256"
						}
					],
					"stateMutability": "view",
					"type": "function"
				}
			],
			"devdoc": {
				"kind": "dev",
				"methods": {},
				"version": 1
			},
			"evm": {
				"assembly": "    /* \"users.sol\":63:3049  contract UserCRUD {... */\n  mstore(0x40, 0x80)\n  callvalue\n  dup1\n  iszero\n  tag_1\n  jumpi\n  0x00\n  dup1\n  revert\ntag_1:\n  pop\n  dataSize(sub_0)\n  dup1\n  dataOffset(sub_0)\n  0x00\n  codecopy\n  0x00\n  return\nstop\n\nsub_0: assembly {\n        /* \"users.sol\":63:3049  contract UserCRUD {... */\n      mstore(0x40, 0x80)\n      callvalue\n      dup1\n      iszero\n      tag_1\n      jumpi\n      0x00\n      dup1\n      revert\n    tag_1:\n      pop\n      jumpi(tag_2, lt(calldatasize, 0x04))\n      shr(0xe0, calldataload(0x00))\n      dup1\n      0x085ba074\n      eq\n      tag_3\n      jumpi\n      dup1\n      0x689e1c03\n      eq\n      tag_4\n      jumpi\n      dup1\n      0xd50f69ea\n      eq\n      tag_5\n      jumpi\n      dup1\n      0xe37bcb3b\n      eq\n      tag_6\n      jumpi\n    tag_2:\n      0x00\n      dup1\n      revert\n        /* \"users.sol\":2285:2595  function getUserDetails(string memory _id) public view returns (string memory, string memory, string memory, string memory, string memory) {... */\n    tag_3:\n      tag_7\n      0x04\n      dup1\n      calldatasize\n      sub\n      dup2\n      add\n      swap1\n      tag_8\n      swap2\n      swap1\n      tag_9\n      jump\t// in\n    tag_8:\n      tag_10\n      jump\t// in\n    tag_7:\n      mload(0x40)\n      tag_11\n      swap6\n      swap5\n      swap4\n      swap3\n      swap2\n      swap1\n      tag_12\n      jump\t// in\n    tag_11:\n      mload(0x40)\n      dup1\n      swap2\n      sub\n      swap1\n      return\n        /* \"users.sol\":856:892  mapping(string => User) public users */\n    tag_4:\n      tag_13\n      0x04\n      dup1\n      calldatasize\n      sub\n      dup2\n      add\n      swap1\n      tag_14\n      swap2\n      swap1\n      tag_9\n      jump\t// in\n    tag_14:\n      tag_15\n      jump\t// in\n    tag_13:\n      mload(0x40)\n      tag_16\n      swap10\n      swap9\n      swap8\n      swap7\n      swap6\n      swap5\n      swap4\n      swap3\n      swap2\n      swap1\n      tag_17\n      jump\t// in\n    tag_16:\n      mload(0x40)\n      dup1\n      swap2\n      sub\n      swap1\n      return\n        /* \"users.sol\":2654:3046  function updateUserDetails(string memory _id, string memory _name, string memory _role, string memory _mobile, string memory _email) public {... */\n    tag_5:\n      tag_18\n      0x04\n      dup1\n      calldatasize\n      sub\n      dup2\n      add\n      swap1\n      tag_19\n      swap2\n      swap1\n      tag_20\n      jump\t// in\n    tag_19:\n      tag_21\n      jump\t// in\n    tag_18:\n      stop\n        /* \"users.sol\":1121:2229  function createUser(... */\n    tag_6:\n      tag_22\n      0x04\n      dup1\n      calldatasize\n      sub\n      dup2\n      add\n      swap1\n      tag_23\n      swap2\n      swap1\n      tag_24\n      jump\t// in\n    tag_23:\n      tag_25\n      jump\t// in\n    tag_22:\n      stop\n        /* \"users.sol\":2285:2595  function getUserDetails(string memory _id) public view returns (string memory, string memory, string memory, string memory, string memory) {... */\n    tag_10:\n        /* \"users.sol\":2349:2362  string memory */\n      0x60\n        /* \"users.sol\":2364:2377  string memory */\n      dup1\n        /* \"users.sol\":2379:2392  string memory */\n      0x60\n        /* \"users.sol\":2394:2407  string memory */\n      dup1\n        /* \"users.sol\":2409:2422  string memory */\n      0x60\n        /* \"users.sol\":2435:2459  User storage currentUser */\n      0x00\n        /* \"users.sol\":2462:2467  users */\n      dup1\n        /* \"users.sol\":2468:2471  _id */\n      dup8\n        /* \"users.sol\":2462:2472  users[_id] */\n      mload(0x40)\n      tag_27\n      swap2\n      swap1\n      tag_28\n      jump\t// in\n    tag_27:\n      swap1\n      dup2\n      mstore\n      0x20\n      add\n      mload(0x40)\n      dup1\n      swap2\n      sub\n      swap1\n      keccak256\n        /* \"users.sol\":2435:2472  User storage currentUser = users[_id] */\n      swap1\n      pop\n        /* \"users.sol\":2491:2502  currentUser */\n      dup1\n        /* \"users.sol\":2491:2507  currentUser.name */\n      0x01\n      add\n        /* \"users.sol\":2509:2520  currentUser */\n      dup2\n        /* \"users.sol\":2509:2525  currentUser.role */\n      0x02\n      add\n        /* \"users.sol\":2527:2538  currentUser */\n      dup3\n        /* \"users.sol\":2527:2545  currentUser.mobile */\n      0x03\n      add\n        /* \"users.sol\":2547:2558  currentUser */\n      dup4\n        /* \"users.sol\":2547:2564  currentUser.email */\n      0x05\n      add\n        /* \"users.sol\":2566:2577  currentUser */\n      dup5\n        /* \"users.sol\":2566:2586  currentUser.password */\n      0x04\n      add\n        /* \"users.sol\":2483:2587  return (currentUser.name, currentUser.role, currentUser.mobile, currentUser.email, currentUser.password) */\n      dup5\n      dup1\n      sload\n      tag_29\n      swap1\n      tag_30\n      jump\t// in\n    tag_29:\n      dup1\n      0x1f\n      add\n      0x20\n      dup1\n      swap2\n      div\n      mul\n      0x20\n      add\n      mload(0x40)\n      swap1\n      dup2\n      add\n      0x40\n      mstore\n      dup1\n      swap3\n      swap2\n      swap1\n      dup2\n      dup2\n      mstore\n      0x20\n      add\n      dup3\n      dup1\n      sload\n      tag_31\n      swap1\n      tag_30\n      jump\t// in\n    tag_31:\n      dup1\n      iszero\n      tag_32\n      jumpi\n      dup1\n      0x1f\n      lt\n      tag_33\n      jumpi\n      0x0100\n      dup1\n      dup4\n      sload\n      div\n      mul\n      dup4\n      mstore\n      swap2\n      0x20\n      add\n      swap2\n      jump(tag_32)\n    tag_33:\n      dup3\n      add\n      swap2\n      swap1\n      0x00\n      mstore\n      keccak256(0x00, 0x20)\n      swap1\n    tag_34:\n      dup2\n      sload\n      dup2\n      mstore\n      swap1\n      0x01\n      add\n      swap1\n      0x20\n      add\n      dup1\n      dup4\n      gt\n      tag_34\n      jumpi\n      dup3\n      swap1\n      sub\n      0x1f\n      and\n      dup3\n      add\n      swap2\n    tag_32:\n      pop\n      pop\n      pop\n      pop\n      pop\n      swap5\n      pop\n      dup4\n      dup1\n      sload\n      tag_35\n      swap1\n      tag_30\n      jump\t// in\n    tag_35:\n      dup1\n      0x1f\n      add\n      0x20\n      dup1\n      swap2\n      div\n      mul\n      0x20\n      add\n      mload(0x40)\n      swap1\n      dup2\n      add\n      0x40\n      mstore\n      dup1\n      swap3\n      swap2\n      swap1\n      dup2\n      dup2\n      mstore\n      0x20\n      add\n      dup3\n      dup1\n      sload\n      tag_36\n      swap1\n      tag_30\n      jump\t// in\n    tag_36:\n      dup1\n      iszero\n      tag_37\n      jumpi\n      dup1\n      0x1f\n      lt\n      tag_38\n      jumpi\n      0x0100\n      dup1\n      dup4\n      sload\n      div\n      mul\n      dup4\n      mstore\n      swap2\n      0x20\n      add\n      swap2\n      jump(tag_37)\n    tag_38:\n      dup3\n      add\n      swap2\n      swap1\n      0x00\n      mstore\n      keccak256(0x00, 0x20)\n      swap1\n    tag_39:\n      dup2\n      sload\n      dup2\n      mstore\n      swap1\n      0x01\n      add\n      swap1\n      0x20\n      add\n      dup1\n      dup4\n      gt\n      tag_39\n      jumpi\n      dup3\n      swap1\n      sub\n      0x1f\n      and\n      dup3\n      add\n      swap2\n    tag_37:\n      pop\n      pop\n      pop\n      pop\n      pop\n      swap4\n      pop\n      dup3\n      dup1\n      sload\n      tag_40\n      swap1\n      tag_30\n      jump\t// in\n    tag_40:\n      dup1\n      0x1f\n      add\n      0x20\n      dup1\n      swap2\n      div\n      mul\n      0x20\n      add\n      mload(0x40)\n      swap1\n      dup2\n      add\n      0x40\n      mstore\n      dup1\n      swap3\n      swap2\n      swap1\n      dup2\n      dup2\n      mstore\n      0x20\n      add\n      dup3\n      dup1\n      sload\n      tag_41\n      swap1\n      tag_30\n      jump\t// in\n    tag_41:\n      dup1\n      iszero\n      tag_42\n      jumpi\n      dup1\n      0x1f\n      lt\n      tag_43\n      jumpi\n      0x0100\n      dup1\n      dup4\n      sload\n      div\n      mul\n      dup4\n      mstore\n      swap2\n      0x20\n      add\n      swap2\n      jump(tag_42)\n    tag_43:\n      dup3\n      add\n      swap2\n      swap1\n      0x00\n      mstore\n      keccak256(0x00, 0x20)\n      swap1\n    tag_44:\n      dup2\n      sload\n      dup2\n      mstore\n      swap1\n      0x01\n      add\n      swap1\n      0x20\n      add\n      dup1\n      dup4\n      gt\n      tag_44\n      jumpi\n      dup3\n      swap1\n      sub\n      0x1f\n      and\n      dup3\n      add\n      swap2\n    tag_42:\n      pop\n      pop\n      pop\n      pop\n      pop\n      swap3\n      pop\n      dup2\n      dup1\n      sload\n      tag_45\n      swap1\n      tag_30\n      jump\t// in\n    tag_45:\n      dup1\n      0x1f\n      add\n      0x20\n      dup1\n      swap2\n      div\n      mul\n      0x20\n      add\n      mload(0x40)\n      swap1\n      dup2\n      add\n      0x40\n      mstore\n      dup1\n      swap3\n      swap2\n      swap1\n      dup2\n      dup2\n      mstore\n      0x20\n      add\n      dup3\n      dup1\n      sload\n      tag_46\n      swap1\n      tag_30\n      jump\t// in\n    tag_46:\n      dup1\n      iszero\n      tag_47\n      jumpi\n      dup1\n      0x1f\n      lt\n      tag_48\n      jumpi\n      0x0100\n      dup1\n      dup4\n      sload\n      div\n      mul\n      dup4\n      mstore\n      swap2\n      0x20\n      add\n      swap2\n      jump(tag_47)\n    tag_48:\n      dup3\n      add\n      swap2\n      swap1\n      0x00\n      mstore\n      keccak256(0x00, 0x20)\n      swap1\n    tag_49:\n      dup2\n      sload\n      dup2\n      mstore\n      swap1\n      0x01\n      add\n      swap1\n      0x20\n      add\n      dup1\n      dup4\n      gt\n      tag_49\n      jumpi\n      dup3\n      swap1\n      sub\n      0x1f\n      and\n      dup3\n      add\n      swap2\n    tag_47:\n      pop\n      pop\n      pop\n      pop\n      pop\n      swap2\n      pop\n      dup1\n      dup1\n      sload\n      tag_50\n      swap1\n      tag_30\n      jump\t// in\n    tag_50:\n      dup1\n      0x1f\n      add\n      0x20\n      dup1\n      swap2\n      div\n      mul\n      0x20\n      add\n      mload(0x40)\n      swap1\n      dup2\n      add\n      0x40\n      mstore\n      dup1\n      swap3\n      swap2\n      swap1\n      dup2\n      dup2\n      mstore\n      0x20\n      add\n      dup3\n      dup1\n      sload\n      tag_51\n      swap1\n      tag_30\n      jump\t// in\n    tag_51:\n      dup1\n      iszero\n      tag_52\n      jumpi\n      dup1\n      0x1f\n      lt\n      tag_53\n      jumpi\n      0x0100\n      dup1\n      dup4\n      sload\n      div\n      mul\n      dup4\n      mstore\n      swap2\n      0x20\n      add\n      swap2\n      jump(tag_52)\n    tag_53:\n      dup3\n      add\n      swap2\n      swap1\n      0x00\n      mstore\n      keccak256(0x00, 0x20)\n      swap1\n    tag_54:\n      dup2\n      sload\n      dup2\n      mstore\n      swap1\n      0x01\n      add\n      swap1\n      0x20\n      add\n      dup1\n      dup4\n      gt\n      tag_54\n      jumpi\n      dup3\n      swap1\n      sub\n      0x1f\n      and\n      dup3\n      add\n      swap2\n    tag_52:\n      pop\n      pop\n      pop\n      pop\n      pop\n      swap1\n      pop\n      swap6\n      pop\n      swap6\n      pop\n      swap6\n      pop\n      swap6\n      pop\n      swap6\n      pop\n      pop\n        /* \"users.sol\":2285:2595  function getUserDetails(string memory _id) public view returns (string memory, string memory, string memory, string memory, string memory) {... */\n      swap2\n      swap4\n      swap6\n      swap1\n      swap3\n      swap5\n      pop\n      jump\t// out\n        /* \"users.sol\":856:892  mapping(string => User) public users */\n    tag_15:\n      0x00\n      dup2\n      dup1\n      mload\n      0x20\n      dup2\n      add\n      dup3\n      add\n      dup1\n      mload\n      dup5\n      dup3\n      mstore\n      0x20\n      dup4\n      add\n      0x20\n      dup6\n      add\n      keccak256\n      dup2\n      dup4\n      mstore\n      dup1\n      swap6\n      pop\n      pop\n      pop\n      pop\n      pop\n      pop\n      0x00\n      swap2\n      pop\n      swap1\n      pop\n      dup1\n      0x00\n      add\n      dup1\n      sload\n      tag_55\n      swap1\n      tag_30\n      jump\t// in\n    tag_55:\n      dup1\n      0x1f\n      add\n      0x20\n      dup1\n      swap2\n      div\n      mul\n      0x20\n      add\n      mload(0x40)\n      swap1\n      dup2\n      add\n      0x40\n      mstore\n      dup1\n      swap3\n      swap2\n      swap1\n      dup2\n      dup2\n      mstore\n      0x20\n      add\n      dup3\n      dup1\n      sload\n      tag_56\n      swap1\n      tag_30\n      jump\t// in\n    tag_56:\n      dup1\n      iszero\n      tag_57\n      jumpi\n      dup1\n      0x1f\n      lt\n      tag_58\n      jumpi\n      0x0100\n      dup1\n      dup4\n      sload\n      div\n      mul\n      dup4\n      mstore\n      swap2\n      0x20\n      add\n      swap2\n      jump(tag_57)\n    tag_58:\n      dup3\n      add\n      swap2\n      swap1\n      0x00\n      mstore\n      keccak256(0x00, 0x20)\n      swap1\n    tag_59:\n      dup2\n      sload\n      dup2\n      mstore\n      swap1\n      0x01\n      add\n      swap1\n      0x20\n      add\n      dup1\n      dup4\n      gt\n      tag_59\n      jumpi\n      dup3\n      swap1\n      sub\n      0x1f\n      and\n      dup3\n      add\n      swap2\n    tag_57:\n      pop\n      pop\n      pop\n      pop\n      pop\n      swap1\n      dup1\n      0x01\n      add\n      dup1\n      sload\n      tag_60\n      swap1\n      tag_30\n      jump\t// in\n    tag_60:\n      dup1\n      0x1f\n      add\n      0x20\n      dup1\n      swap2\n      div\n      mul\n      0x20\n      add\n      mload(0x40)\n      swap1\n      dup2\n      add\n      0x40\n      mstore\n      dup1\n      swap3\n      swap2\n      swap1\n      dup2\n      dup2\n      mstore\n      0x20\n      add\n      dup3\n      dup1\n      sload\n      tag_61\n      swap1\n      tag_30\n      jump\t// in\n    tag_61:\n      dup1\n      iszero\n      tag_62\n      jumpi\n      dup1\n      0x1f\n      lt\n      tag_63\n      jumpi\n      0x0100\n      dup1\n      dup4\n      sload\n      div\n      mul\n      dup4\n      mstore\n      swap2\n      0x20\n      add\n      swap2\n      jump(tag_62)\n    tag_63:\n      dup3\n      add\n      swap2\n      swap1\n      0x00\n      mstore\n      keccak256(0x00, 0x20)\n      swap1\n    tag_64:\n      dup2\n      sload\n      dup2\n      mstore\n      swap1\n      0x01\n      add\n      swap1\n      0x20\n      add\n      dup1\n      dup4\n      gt\n      tag_64\n      jumpi\n      dup3\n      swap1\n      sub\n      0x1f\n      and\n      dup3\n      add\n      swap2\n    tag_62:\n      pop\n      pop\n      pop\n      pop\n      pop\n      swap1\n      dup1\n      0x02\n      add\n      dup1\n      sload\n      tag_65\n      swap1\n      tag_30\n      jump\t// in\n    tag_65:\n      dup1\n      0x1f\n      add\n      0x20\n      dup1\n      swap2\n      div\n      mul\n      0x20\n      add\n      mload(0x40)\n      swap1\n      dup2\n      add\n      0x40\n      mstore\n      dup1\n      swap3\n      swap2\n      swap1\n      dup2\n      dup2\n      mstore\n      0x20\n      add\n      dup3\n      dup1\n      sload\n      tag_66\n      swap1\n      tag_30\n      jump\t// in\n    tag_66:\n      dup1\n      iszero\n      tag_67\n      jumpi\n      dup1\n      0x1f\n      lt\n      tag_68\n      jumpi\n      0x0100\n      dup1\n      dup4\n      sload\n      div\n      mul\n      dup4\n      mstore\n      swap2\n      0x20\n      add\n      swap2\n      jump(tag_67)\n    tag_68:\n      dup3\n      add\n      swap2\n      swap1\n      0x00\n      mstore\n      keccak256(0x00, 0x20)\n      swap1\n    tag_69:\n      dup2\n      sload\n      dup2\n      mstore\n      swap1\n      0x01\n      add\n      swap1\n      0x20\n      add\n      dup1\n      dup4\n      gt\n      tag_69\n      jumpi\n      dup3\n      swap1\n      sub\n      0x1f\n      and\n      dup3\n      add\n      swap2\n    tag_67:\n      pop\n      pop\n      pop\n      pop\n      pop\n      swap1\n      dup1\n      0x03\n      add\n      dup1\n      sload\n      tag_70\n      swap1\n      tag_30\n      jump\t// in\n    tag_70:\n      dup1\n      0x1f\n      add\n      0x20\n      dup1\n      swap2\n      div\n      mul\n      0x20\n      add\n      mload(0x40)\n      swap1\n      dup2\n      add\n      0x40\n      mstore\n      dup1\n      swap3\n      swap2\n      swap1\n      dup2\n      dup2\n      mstore\n      0x20\n      add\n      dup3\n      dup1\n      sload\n      tag_71\n      swap1\n      tag_30\n      jump\t// in\n    tag_71:\n      dup1\n      iszero\n      tag_72\n      jumpi\n      dup1\n      0x1f\n      lt\n      tag_73\n      jumpi\n      0x0100\n      dup1\n      dup4\n      sload\n      div\n      mul\n      dup4\n      mstore\n      swap2\n      0x20\n      add\n      swap2\n      jump(tag_72)\n    tag_73:\n      dup3\n      add\n      swap2\n      swap1\n      0x00\n      mstore\n      keccak256(0x00, 0x20)\n      swap1\n    tag_74:\n      dup2\n      sload\n      dup2\n      mstore\n      swap1\n      0x01\n      add\n      swap1\n      0x20\n      add\n      dup1\n      dup4\n      gt\n      tag_74\n      jumpi\n      dup3\n      swap1\n      sub\n      0x1f\n      and\n      dup3\n      add\n      swap2\n    tag_72:\n      pop\n      pop\n      pop\n      pop\n      pop\n      swap1\n      dup1\n      0x04\n      add\n      dup1\n      sload\n      tag_75\n      swap1\n      tag_30\n      jump\t// in\n    tag_75:\n      dup1\n      0x1f\n      add\n      0x20\n      dup1\n      swap2\n      div\n      mul\n      0x20\n      add\n      mload(0x40)\n      swap1\n      dup2\n      add\n      0x40\n      mstore\n      dup1\n      swap3\n      swap2\n      swap1\n      dup2\n      dup2\n      mstore\n      0x20\n      add\n      dup3\n      dup1\n      sload\n      tag_76\n      swap1\n      tag_30\n      jump\t// in\n    tag_76:\n      dup1\n      iszero\n      tag_77\n      jumpi\n      dup1\n      0x1f\n      lt\n      tag_78\n      jumpi\n      0x0100\n      dup1\n      dup4\n      sload\n      div\n      mul\n      dup4\n      mstore\n      swap2\n      0x20\n      add\n      swap2\n      jump(tag_77)\n    tag_78:\n      dup3\n      add\n      swap2\n      swap1\n      0x00\n      mstore\n      keccak256(0x00, 0x20)\n      swap1\n    tag_79:\n      dup2\n      sload\n      dup2\n      mstore\n      swap1\n      0x01\n      add\n      swap1\n      0x20\n      add\n      dup1\n      dup4\n      gt\n      tag_79\n      jumpi\n      dup3\n      swap1\n      sub\n      0x1f\n      and\n      dup3\n      add\n      swap2\n    tag_77:\n      pop\n      pop\n      pop\n      pop\n      pop\n      swap1\n      dup1\n      0x05\n      add\n      dup1\n      sload\n      tag_80\n      swap1\n      tag_30\n      jump\t// in\n    tag_80:\n      dup1\n      0x1f\n      add\n      0x20\n      dup1\n      swap2\n      div\n      mul\n      0x20\n      add\n      mload(0x40)\n      swap1\n      dup2\n      add\n      0x40\n      mstore\n      dup1\n      swap3\n      swap2\n      swap1\n      dup2\n      dup2\n      mstore\n      0x20\n      add\n      dup3\n      dup1\n      sload\n      tag_81\n      swap1\n      tag_30\n      jump\t// in\n    tag_81:\n      dup1\n      iszero\n      tag_82\n      jumpi\n      dup1\n      0x1f\n      lt\n      tag_83\n      jumpi\n      0x0100\n      dup1\n      dup4\n      sload\n      div\n      mul\n      dup4\n      mstore\n      swap2\n      0x20\n      add\n      swap2\n      jump(tag_82)\n    tag_83:\n      dup3\n      add\n      swap2\n      swap1\n      0x00\n      mstore\n      keccak256(0x00, 0x20)\n      swap1\n    tag_84:\n      dup2\n      sload\n      dup2\n      mstore\n      swap1\n      0x01\n      add\n      swap1\n      0x20\n      add\n      dup1\n      dup4\n      gt\n      tag_84\n      jumpi\n      dup3\n      swap1\n      sub\n      0x1f\n      and\n      dup3\n      add\n      swap2\n    tag_82:\n      pop\n      pop\n      pop\n      pop\n      pop\n      swap1\n      dup1\n      0x06\n      add\n      mload(0x40)\n      dup1\n      0xa0\n      add\n      0x40\n      mstore\n      swap1\n      dup2\n      0x00\n      dup3\n      add\n      dup1\n      sload\n      tag_85\n      swap1\n      tag_30\n      jump\t// in\n    tag_85:\n      dup1\n      0x1f\n      add\n      0x20\n      dup1\n      swap2\n      div\n      mul\n      0x20\n      add\n      mload(0x40)\n      swap1\n      dup2\n      add\n      0x40\n      mstore\n      dup1\n      swap3\n      swap2\n      swap1\n      dup2\n      dup2\n      mstore\n      0x20\n      add\n      dup3\n      dup1\n      sload\n      tag_86\n      swap1\n      tag_30\n      jump\t// in\n    tag_86:\n      dup1\n      iszero\n      tag_87\n      jumpi\n      dup1\n      0x1f\n      lt\n      tag_88\n      jumpi\n      0x0100\n      dup1\n      dup4\n      sload\n      div\n      mul\n      dup4\n      mstore\n      swap2\n      0x20\n      add\n      swap2\n      jump(tag_87)\n    tag_88:\n      dup3\n      add\n      swap2\n      swap1\n      0x00\n      mstore\n      keccak256(0x00, 0x20)\n      swap1\n    tag_89:\n      dup2\n      sload\n      dup2\n      mstore\n      swap1\n      0x01\n      add\n      swap1\n      0x20\n      add\n      dup1\n      dup4\n      gt\n      tag_89\n      jumpi\n      dup3\n      swap1\n      sub\n      0x1f\n      and\n      dup3\n      add\n      swap2\n    tag_87:\n      pop\n      pop\n      pop\n      pop\n      pop\n      dup2\n      mstore\n      0x20\n      add\n      0x01\n      dup3\n      add\n      dup1\n      sload\n      tag_90\n      swap1\n      tag_30\n      jump\t// in\n    tag_90:\n      dup1\n      0x1f\n      add\n      0x20\n      dup1\n      swap2\n      div\n      mul\n      0x20\n      add\n      mload(0x40)\n      swap1\n      dup2\n      add\n      0x40\n      mstore\n      dup1\n      swap3\n      swap2\n      swap1\n      dup2\n      dup2\n      mstore\n      0x20\n      add\n      dup3\n      dup1\n      sload\n      tag_91\n      swap1\n      tag_30\n      jump\t// in\n    tag_91:\n      dup1\n      iszero\n      tag_92\n      jumpi\n      dup1\n      0x1f\n      lt\n      tag_93\n      jumpi\n      0x0100\n      dup1\n      dup4\n      sload\n      div\n      mul\n      dup4\n      mstore\n      swap2\n      0x20\n      add\n      swap2\n      jump(tag_92)\n    tag_93:\n      dup3\n      add\n      swap2\n      swap1\n      0x00\n      mstore\n      keccak256(0x00, 0x20)\n      swap1\n    tag_94:\n      dup2\n      sload\n      dup2\n      mstore\n      swap1\n      0x01\n      add\n      swap1\n      0x20\n      add\n      dup1\n      dup4\n      gt\n      tag_94\n      jumpi\n      dup3\n      swap1\n      sub\n      0x1f\n      and\n      dup3\n      add\n      swap2\n    tag_92:\n      pop\n      pop\n      pop\n      pop\n      pop\n      dup2\n      mstore\n      0x20\n      add\n      0x02\n      dup3\n      add\n      dup1\n      sload\n      tag_95\n      swap1\n      tag_30\n      jump\t// in\n    tag_95:\n      dup1\n      0x1f\n      add\n      0x20\n      dup1\n      swap2\n      div\n      mul\n      0x20\n      add\n      mload(0x40)\n      swap1\n      dup2\n      add\n      0x40\n      mstore\n      dup1\n      swap3\n      swap2\n      swap1\n      dup2\n      dup2\n      mstore\n      0x20\n      add\n      dup3\n      dup1\n      sload\n      tag_96\n      swap1\n      tag_30\n      jump\t// in\n    tag_96:\n      dup1\n      iszero\n      tag_97\n      jumpi\n      dup1\n      0x1f\n      lt\n      tag_98\n      jumpi\n      0x0100\n      dup1\n      dup4\n      sload\n      div\n      mul\n      dup4\n      mstore\n      swap2\n      0x20\n      add\n      swap2\n      jump(tag_97)\n    tag_98:\n      dup3\n      add\n      swap2\n      swap1\n      0x00\n      mstore\n      keccak256(0x00, 0x20)\n      swap1\n    tag_99:\n      dup2\n      sload\n      dup2\n      mstore\n      swap1\n      0x01\n      add\n      swap1\n      0x20\n      add\n      dup1\n      dup4\n      gt\n      tag_99\n      jumpi\n      dup3\n      swap1\n      sub\n      0x1f\n      and\n      dup3\n      add\n      swap2\n    tag_97:\n      pop\n      pop\n      pop\n      pop\n      pop\n      dup2\n      mstore\n      0x20\n      add\n      0x03\n      dup3\n      add\n      dup1\n      sload\n      tag_100\n      swap1\n      tag_30\n      jump\t// in\n    tag_100:\n      dup1\n      0x1f\n      add\n      0x20\n      dup1\n      swap2\n      div\n      mul\n      0x20\n      add\n      mload(0x40)\n      swap1\n      dup2\n      add\n      0x40\n      mstore\n      dup1\n      swap3\n      swap2\n      swap1\n      dup2\n      dup2\n      mstore\n      0x20\n      add\n      dup3\n      dup1\n      sload\n      tag_101\n      swap1\n      tag_30\n      jump\t// in\n    tag_101:\n      dup1\n      iszero\n      tag_102\n      jumpi\n      dup1\n      0x1f\n      lt\n      tag_103\n      jumpi\n      0x0100\n      dup1\n      dup4\n      sload\n      div\n      mul\n      dup4\n      mstore\n      swap2\n      0x20\n      add\n      swap2\n      jump(tag_102)\n    tag_103:\n      dup3\n      add\n      swap2\n      swap1\n      0x00\n      mstore\n      keccak256(0x00, 0x20)\n      swap1\n    tag_104:\n      dup2\n      sload\n      dup2\n      mstore\n      swap1\n      0x01\n      add\n      swap1\n      0x20\n      add\n      dup1\n      dup4\n      gt\n      tag_104\n      jumpi\n      dup3\n      swap1\n      sub\n      0x1f\n      and\n      dup3\n      add\n      swap2\n    tag_102:\n      pop\n      pop\n      pop\n      pop\n      pop\n      dup2\n      mstore\n      0x20\n      add\n      0x04\n      dup3\n      add\n      dup1\n      sload\n      tag_105\n      swap1\n      tag_30\n      jump\t// in\n    tag_105:\n      dup1\n      0x1f\n      add\n      0x20\n      dup1\n      swap2\n      div\n      mul\n      0x20\n      add\n      mload(0x40)\n      swap1\n      dup2\n      add\n      0x40\n      mstore\n      dup1\n      swap3\n      swap2\n      swap1\n      dup2\n      dup2\n      mstore\n      0x20\n      add\n      dup3\n      dup1\n      sload\n      tag_106\n      swap1\n      tag_30\n      jump\t// in\n    tag_106:\n      dup1\n      iszero\n      tag_107\n      jumpi\n      dup1\n      0x1f\n      lt\n      tag_108\n      jumpi\n      0x0100\n      dup1\n      dup4\n      sload\n      div\n      mul\n      dup4\n      mstore\n      swap2\n      0x20\n      add\n      swap2\n      jump(tag_107)\n    tag_108:\n      dup3\n      add\n      swap2\n      swap1\n      0x00\n      mstore\n      keccak256(0x00, 0x20)\n      swap1\n    tag_109:\n      dup2\n      sload\n      dup2\n      mstore\n      swap1\n      0x01\n      add\n      swap1\n      0x20\n      add\n      dup1\n      dup4\n      gt\n      tag_109\n      jumpi\n      dup3\n      swap1\n      sub\n      0x1f\n      and\n      dup3\n      add\n      swap2\n    tag_107:\n      pop\n      pop\n      pop\n      pop\n      pop\n      dup2\n      mstore\n      pop\n      pop\n      swap1\n      dup1\n      0x0b\n      add\n      sload\n      swap1\n      dup1\n      0x0c\n      add\n      sload\n      swap1\n      pop\n      dup10\n      jump\t// out\n        /* \"users.sol\":2654:3046  function updateUserDetails(string memory _id, string memory _name, string memory _role, string memory _mobile, string memory _email) public {... */\n    tag_21:\n        /* \"users.sol\":2805:2829  User storage currentUser */\n      0x00\n        /* \"users.sol\":2832:2837  users */\n      dup1\n        /* \"users.sol\":2838:2841  _id */\n      dup7\n        /* \"users.sol\":2832:2842  users[_id] */\n      mload(0x40)\n      tag_111\n      swap2\n      swap1\n      tag_28\n      jump\t// in\n    tag_111:\n      swap1\n      dup2\n      mstore\n      0x20\n      add\n      mload(0x40)\n      dup1\n      swap2\n      sub\n      swap1\n      keccak256\n        /* \"users.sol\":2805:2842  User storage currentUser = users[_id] */\n      swap1\n      pop\n        /* \"users.sol\":2874:2879  _name */\n      dup5\n        /* \"users.sol\":2855:2866  currentUser */\n      dup2\n        /* \"users.sol\":2855:2871  currentUser.name */\n      0x01\n      add\n        /* \"users.sol\":2855:2879  currentUser.name = _name */\n      swap1\n      dup2\n      tag_112\n      swap2\n      swap1\n      tag_113\n      jump\t// in\n    tag_112:\n      pop\n        /* \"users.sol\":2909:2914  _role */\n      dup4\n        /* \"users.sol\":2890:2901  currentUser */\n      dup2\n        /* \"users.sol\":2890:2906  currentUser.role */\n      0x02\n      add\n        /* \"users.sol\":2890:2914  currentUser.role = _role */\n      swap1\n      dup2\n      tag_114\n      swap2\n      swap1\n      tag_113\n      jump\t// in\n    tag_114:\n      pop\n        /* \"users.sol\":2946:2953  _mobile */\n      dup3\n        /* \"users.sol\":2925:2936  currentUser */\n      dup2\n        /* \"users.sol\":2925:2943  currentUser.mobile */\n      0x03\n      add\n        /* \"users.sol\":2925:2953  currentUser.mobile = _mobile */\n      swap1\n      dup2\n      tag_115\n      swap2\n      swap1\n      tag_113\n      jump\t// in\n    tag_115:\n      pop\n        /* \"users.sol\":2984:2990  _email */\n      dup2\n        /* \"users.sol\":2964:2975  currentUser */\n      dup2\n        /* \"users.sol\":2964:2981  currentUser.email */\n      0x05\n      add\n        /* \"users.sol\":2964:2990  currentUser.email = _email */\n      swap1\n      dup2\n      tag_116\n      swap2\n      swap1\n      tag_113\n      jump\t// in\n    tag_116:\n      pop\n        /* \"users.sol\":3023:3038  block.timestamp */\n      timestamp\n        /* \"users.sol\":3001:3012  currentUser */\n      dup2\n        /* \"users.sol\":3001:3020  currentUser.updated */\n      0x0c\n      add\n        /* \"users.sol\":3001:3038  currentUser.updated = block.timestamp */\n      dup2\n      swap1\n      sstore\n      pop\n        /* \"users.sol\":2794:3046  {... */\n      pop\n        /* \"users.sol\":2654:3046  function updateUserDetails(string memory _id, string memory _name, string memory _role, string memory _mobile, string memory _email) public {... */\n      pop\n      pop\n      pop\n      pop\n      pop\n      jump\t// out\n        /* \"users.sol\":1121:2229  function createUser(... */\n    tag_25:\n        /* \"users.sol\":1511:1533  address newUserAddress */\n      0x00\n        /* \"users.sol\":1536:1546  msg.sender */\n      caller\n        /* \"users.sol\":1511:1546  address newUserAddress = msg.sender */\n      swap1\n      pop\n        /* \"users.sol\":1678:1698  User storage newUser */\n      0x00\n        /* \"users.sol\":1701:1706  users */\n      dup1\n        /* \"users.sol\":1707:1710  _id */\n      dup14\n        /* \"users.sol\":1701:1711  users[_id] */\n      mload(0x40)\n      tag_118\n      swap2\n      swap1\n      tag_28\n      jump\t// in\n    tag_118:\n      swap1\n      dup2\n      mstore\n      0x20\n      add\n      mload(0x40)\n      dup1\n      swap2\n      sub\n      swap1\n      keccak256\n        /* \"users.sol\":1678:1711  User storage newUser = users[_id] */\n      swap1\n      pop\n        /* \"users.sol\":1738:1741  _id */\n      dup13\n        /* \"users.sol\":1724:1731  newUser */\n      dup2\n        /* \"users.sol\":1724:1735  newUser._id */\n      0x00\n      add\n        /* \"users.sol\":1724:1741  newUser._id = _id */\n      swap1\n      dup2\n      tag_119\n      swap2\n      swap1\n      tag_113\n      jump\t// in\n    tag_119:\n      pop\n        /* \"users.sol\":1767:1772  _name */\n      dup12\n        /* \"users.sol\":1752:1759  newUser */\n      dup2\n        /* \"users.sol\":1752:1764  newUser.name */\n      0x01\n      add\n        /* \"users.sol\":1752:1772  newUser.name = _name */\n      swap1\n      dup2\n      tag_120\n      swap2\n      swap1\n      tag_113\n      jump\t// in\n    tag_120:\n      pop\n        /* \"users.sol\":1798:1803  _role */\n      dup11\n        /* \"users.sol\":1783:1790  newUser */\n      dup2\n        /* \"users.sol\":1783:1795  newUser.role */\n      0x02\n      add\n        /* \"users.sol\":1783:1803  newUser.role = _role */\n      swap1\n      dup2\n      tag_121\n      swap2\n      swap1\n      tag_113\n      jump\t// in\n    tag_121:\n      pop\n        /* \"users.sol\":1831:1838  _mobile */\n      dup10\n        /* \"users.sol\":1814:1821  newUser */\n      dup2\n        /* \"users.sol\":1814:1828  newUser.mobile */\n      0x03\n      add\n        /* \"users.sol\":1814:1838  newUser.mobile = _mobile */\n      swap1\n      dup2\n      tag_122\n      swap2\n      swap1\n      tag_113\n      jump\t// in\n    tag_122:\n      pop\n        /* \"users.sol\":1868:1877  _password */\n      dup9\n        /* \"users.sol\":1849:1856  newUser */\n      dup2\n        /* \"users.sol\":1849:1865  newUser.password */\n      0x04\n      add\n        /* \"users.sol\":1849:1877  newUser.password = _password */\n      swap1\n      dup2\n      tag_123\n      swap2\n      swap1\n      tag_113\n      jump\t// in\n    tag_123:\n      pop\n        /* \"users.sol\":1942:1948  _email */\n      dup8\n        /* \"users.sol\":1926:1933  newUser */\n      dup2\n        /* \"users.sol\":1926:1939  newUser.email */\n      0x05\n      add\n        /* \"users.sol\":1926:1948  newUser.email = _email */\n      swap1\n      dup2\n      tag_124\n      swap2\n      swap1\n      tag_113\n      jump\t// in\n    tag_124:\n      pop\n        /* \"users.sol\":1981:2035  addressData(_address1, _address2, _city, _state, _pin) */\n      mload(0x40)\n      dup1\n      0xa0\n      add\n      0x40\n      mstore\n      dup1\n        /* \"users.sol\":1993:2002  _address1 */\n      dup9\n        /* \"users.sol\":1981:2035  addressData(_address1, _address2, _city, _state, _pin) */\n      dup2\n      mstore\n      0x20\n      add\n        /* \"users.sol\":2004:2013  _address2 */\n      dup8\n        /* \"users.sol\":1981:2035  addressData(_address1, _address2, _city, _state, _pin) */\n      dup2\n      mstore\n      0x20\n      add\n        /* \"users.sol\":2015:2020  _city */\n      dup7\n        /* \"users.sol\":1981:2035  addressData(_address1, _address2, _city, _state, _pin) */\n      dup2\n      mstore\n      0x20\n      add\n        /* \"users.sol\":2022:2028  _state */\n      dup6\n        /* \"users.sol\":1981:2035  addressData(_address1, _address2, _city, _state, _pin) */\n      dup2\n      mstore\n      0x20\n      add\n        /* \"users.sol\":2030:2034  _pin */\n      dup5\n        /* \"users.sol\":1981:2035  addressData(_address1, _address2, _city, _state, _pin) */\n      dup2\n      mstore\n      pop\n        /* \"users.sol\":1959:1966  newUser */\n      dup2\n        /* \"users.sol\":1959:1978  newUser.addressInfo */\n      0x06\n      add\n        /* \"users.sol\":1959:2035  newUser.addressInfo = addressData(_address1, _address2, _city, _state, _pin) */\n      0x00\n      dup3\n      add\n      mload\n      dup2\n      0x00\n      add\n      swap1\n      dup2\n      tag_125\n      swap2\n      swap1\n      tag_113\n      jump\t// in\n    tag_125:\n      pop\n      0x20\n      dup3\n      add\n      mload\n      dup2\n      0x01\n      add\n      swap1\n      dup2\n      tag_126\n      swap2\n      swap1\n      tag_113\n      jump\t// in\n    tag_126:\n      pop\n      0x40\n      dup3\n      add\n      mload\n      dup2\n      0x02\n      add\n      swap1\n      dup2\n      tag_127\n      swap2\n      swap1\n      tag_113\n      jump\t// in\n    tag_127:\n      pop\n      0x60\n      dup3\n      add\n      mload\n      dup2\n      0x03\n      add\n      swap1\n      dup2\n      tag_128\n      swap2\n      swap1\n      tag_113\n      jump\t// in\n    tag_128:\n      pop\n      0x80\n      dup3\n      add\n      mload\n      dup2\n      0x04\n      add\n      swap1\n      dup2\n      tag_129\n      swap2\n      swap1\n      tag_113\n      jump\t// in\n    tag_129:\n      pop\n      swap1\n      pop\n      pop\n        /* \"users.sol\":2064:2079  block.timestamp */\n      timestamp\n        /* \"users.sol\":2046:2053  newUser */\n      dup2\n        /* \"users.sol\":2046:2061  newUser.created */\n      0x0b\n      add\n        /* \"users.sol\":2046:2079  newUser.created = block.timestamp */\n      dup2\n      swap1\n      sstore\n      pop\n        /* \"users.sol\":2108:2123  block.timestamp */\n      timestamp\n        /* \"users.sol\":2090:2097  newUser */\n      dup2\n        /* \"users.sol\":2090:2105  newUser.updated */\n      0x0c\n      add\n        /* \"users.sol\":2090:2123  newUser.updated = block.timestamp */\n      dup2\n      swap1\n      sstore\n      pop\n        /* \"users.sol\":2158:2172  newUserAddress */\n      dup2\n        /* \"users.sol\":2141:2221  UserCreated(_id, newUserAddress, _name, _role, _mobile, _email, block.timestamp) */\n      0xffffffffffffffffffffffffffffffffffffffff\n      and\n        /* \"users.sol\":2153:2156  _id */\n      dup14\n        /* \"users.sol\":2141:2221  UserCreated(_id, newUserAddress, _name, _role, _mobile, _email, block.timestamp) */\n      mload(0x40)\n      tag_130\n      swap2\n      swap1\n      tag_28\n      jump\t// in\n    tag_130:\n      mload(0x40)\n      dup1\n      swap2\n      sub\n      swap1\n      keccak256\n      0xb64d79bd85aa57c7b7b646c0757c186a316cac6ee17f5862be4e27098d25929b\n        /* \"users.sol\":2174:2179  _name */\n      dup15\n        /* \"users.sol\":2181:2186  _role */\n      dup15\n        /* \"users.sol\":2188:2195  _mobile */\n      dup15\n        /* \"users.sol\":2197:2203  _email */\n      dup14\n        /* \"users.sol\":2205:2220  block.timestamp */\n      timestamp\n        /* \"users.sol\":2141:2221  UserCreated(_id, newUserAddress, _name, _role, _mobile, _email, block.timestamp) */\n      mload(0x40)\n      tag_131\n      swap6\n      swap5\n      swap4\n      swap3\n      swap2\n      swap1\n      tag_132\n      jump\t// in\n    tag_131:\n      mload(0x40)\n      dup1\n      swap2\n      sub\n      swap1\n      log3\n        /* \"users.sol\":1498:2229  {... */\n      pop\n      pop\n        /* \"users.sol\":1121:2229  function createUser(... */\n      pop\n      pop\n      pop\n      pop\n      pop\n      pop\n      pop\n      pop\n      pop\n      pop\n      pop\n      jump\t// out\n        /* \"#utility.yul\":7:82   */\n    tag_133:\n        /* \"#utility.yul\":40:46   */\n      0x00\n        /* \"#utility.yul\":73:75   */\n      0x40\n        /* \"#utility.yul\":67:76   */\n      mload\n        /* \"#utility.yul\":57:76   */\n      swap1\n      pop\n        /* \"#utility.yul\":7:82   */\n      swap1\n      jump\t// out\n        /* \"#utility.yul\":88:205   */\n    tag_134:\n        /* \"#utility.yul\":197:198   */\n      0x00\n        /* \"#utility.yul\":194:195   */\n      dup1\n        /* \"#utility.yul\":187:199   */\n      revert\n        /* \"#utility.yul\":211:328   */\n    tag_135:\n        /* \"#utility.yul\":320:321   */\n      0x00\n        /* \"#utility.yul\":317:318   */\n      dup1\n        /* \"#utility.yul\":310:322   */\n      revert\n        /* \"#utility.yul\":334:451   */\n    tag_136:\n        /* \"#utility.yul\":443:444   */\n      0x00\n        /* \"#utility.yul\":440:441   */\n      dup1\n        /* \"#utility.yul\":433:445   */\n      revert\n        /* \"#utility.yul\":457:574   */\n    tag_137:\n        /* \"#utility.yul\":566:567   */\n      0x00\n        /* \"#utility.yul\":563:564   */\n      dup1\n        /* \"#utility.yul\":556:568   */\n      revert\n        /* \"#utility.yul\":580:682   */\n    tag_138:\n        /* \"#utility.yul\":621:627   */\n      0x00\n        /* \"#utility.yul\":672:674   */\n      0x1f\n        /* \"#utility.yul\":668:675   */\n      not\n        /* \"#utility.yul\":663:665   */\n      0x1f\n        /* \"#utility.yul\":656:661   */\n      dup4\n        /* \"#utility.yul\":652:666   */\n      add\n        /* \"#utility.yul\":648:676   */\n      and\n        /* \"#utility.yul\":638:676   */\n      swap1\n      pop\n        /* \"#utility.yul\":580:682   */\n      swap2\n      swap1\n      pop\n      jump\t// out\n        /* \"#utility.yul\":688:868   */\n    tag_139:\n        /* \"#utility.yul\":736:813   */\n      0x4e487b7100000000000000000000000000000000000000000000000000000000\n        /* \"#utility.yul\":733:734   */\n      0x00\n        /* \"#utility.yul\":726:814   */\n      mstore\n        /* \"#utility.yul\":833:837   */\n      0x41\n        /* \"#utility.yul\":830:831   */\n      0x04\n        /* \"#utility.yul\":823:838   */\n      mstore\n        /* \"#utility.yul\":857:861   */\n      0x24\n        /* \"#utility.yul\":854:855   */\n      0x00\n        /* \"#utility.yul\":847:862   */\n      revert\n        /* \"#utility.yul\":874:1155   */\n    tag_140:\n        /* \"#utility.yul\":957:984   */\n      tag_182\n        /* \"#utility.yul\":979:983   */\n      dup3\n        /* \"#utility.yul\":957:984   */\n      tag_138\n      jump\t// in\n    tag_182:\n        /* \"#utility.yul\":949:955   */\n      dup2\n        /* \"#utility.yul\":945:985   */\n      add\n        /* \"#utility.yul\":1087:1093   */\n      dup2\n        /* \"#utility.yul\":1075:1085   */\n      dup2\n        /* \"#utility.yul\":1072:1094   */\n      lt\n        /* \"#utility.yul\":1051:1069   */\n      0xffffffffffffffff\n        /* \"#utility.yul\":1039:1049   */\n      dup3\n        /* \"#utility.yul\":1036:1070   */\n      gt\n        /* \"#utility.yul\":1033:1095   */\n      or\n        /* \"#utility.yul\":1030:1118   */\n      iszero\n      tag_183\n      jumpi\n        /* \"#utility.yul\":1098:1116   */\n      tag_184\n      tag_139\n      jump\t// in\n    tag_184:\n        /* \"#utility.yul\":1030:1118   */\n    tag_183:\n        /* \"#utility.yul\":1138:1148   */\n      dup1\n        /* \"#utility.yul\":1134:1136   */\n      0x40\n        /* \"#utility.yul\":1127:1149   */\n      mstore\n        /* \"#utility.yul\":917:1155   */\n      pop\n        /* \"#utility.yul\":874:1155   */\n      pop\n      pop\n      jump\t// out\n        /* \"#utility.yul\":1161:1290   */\n    tag_141:\n        /* \"#utility.yul\":1195:1201   */\n      0x00\n        /* \"#utility.yul\":1222:1242   */\n      tag_186\n      tag_133\n      jump\t// in\n    tag_186:\n        /* \"#utility.yul\":1212:1242   */\n      swap1\n      pop\n        /* \"#utility.yul\":1251:1284   */\n      tag_187\n        /* \"#utility.yul\":1279:1283   */\n      dup3\n        /* \"#utility.yul\":1271:1277   */\n      dup3\n        /* \"#utility.yul\":1251:1284   */\n      tag_140\n      jump\t// in\n    tag_187:\n        /* \"#utility.yul\":1161:1290   */\n      swap2\n      swap1\n      pop\n      jump\t// out\n        /* \"#utility.yul\":1296:1604   */\n    tag_142:\n        /* \"#utility.yul\":1358:1362   */\n      0x00\n        /* \"#utility.yul\":1448:1466   */\n      0xffffffffffffffff\n        /* \"#utility.yul\":1440:1446   */\n      dup3\n        /* \"#utility.yul\":1437:1467   */\n      gt\n        /* \"#utility.yul\":1434:1490   */\n      iszero\n      tag_189\n      jumpi\n        /* \"#utility.yul\":1470:1488   */\n      tag_190\n      tag_139\n      jump\t// in\n    tag_190:\n        /* \"#utility.yul\":1434:1490   */\n    tag_189:\n        /* \"#utility.yul\":1508:1537   */\n      tag_191\n        /* \"#utility.yul\":1530:1536   */\n      dup3\n        /* \"#utility.yul\":1508:1537   */\n      tag_138\n      jump\t// in\n    tag_191:\n        /* \"#utility.yul\":1500:1537   */\n      swap1\n      pop\n        /* \"#utility.yul\":1592:1596   */\n      0x20\n        /* \"#utility.yul\":1586:1590   */\n      dup2\n        /* \"#utility.yul\":1582:1597   */\n      add\n        /* \"#utility.yul\":1574:1597   */\n      swap1\n      pop\n        /* \"#utility.yul\":1296:1604   */\n      swap2\n      swap1\n      pop\n      jump\t// out\n        /* \"#utility.yul\":1610:1756   */\n    tag_143:\n        /* \"#utility.yul\":1707:1713   */\n      dup3\n        /* \"#utility.yul\":1702:1705   */\n      dup2\n        /* \"#utility.yul\":1697:1700   */\n      dup4\n        /* \"#utility.yul\":1684:1714   */\n      calldatacopy\n        /* \"#utility.yul\":1748:1749   */\n      0x00\n        /* \"#utility.yul\":1739:1745   */\n      dup4\n        /* \"#utility.yul\":1734:1737   */\n      dup4\n        /* \"#utility.yul\":1730:1746   */\n      add\n        /* \"#utility.yul\":1723:1750   */\n      mstore\n        /* \"#utility.yul\":1610:1756   */\n      pop\n      pop\n      pop\n      jump\t// out\n        /* \"#utility.yul\":1762:2187   */\n    tag_144:\n        /* \"#utility.yul\":1840:1845   */\n      0x00\n        /* \"#utility.yul\":1865:1931   */\n      tag_194\n        /* \"#utility.yul\":1881:1930   */\n      tag_195\n        /* \"#utility.yul\":1923:1929   */\n      dup5\n        /* \"#utility.yul\":1881:1930   */\n      tag_142\n      jump\t// in\n    tag_195:\n        /* \"#utility.yul\":1865:1931   */\n      tag_141\n      jump\t// in\n    tag_194:\n        /* \"#utility.yul\":1856:1931   */\n      swap1\n      pop\n        /* \"#utility.yul\":1954:1960   */\n      dup3\n        /* \"#utility.yul\":1947:1952   */\n      dup2\n        /* \"#utility.yul\":1940:1961   */\n      mstore\n        /* \"#utility.yul\":1992:1996   */\n      0x20\n        /* \"#utility.yul\":1985:1990   */\n      dup2\n        /* \"#utility.yul\":1981:1997   */\n      add\n        /* \"#utility.yul\":2030:2033   */\n      dup5\n        /* \"#utility.yul\":2021:2027   */\n      dup5\n        /* \"#utility.yul\":2016:2019   */\n      dup5\n        /* \"#utility.yul\":2012:2028   */\n      add\n        /* \"#utility.yul\":2009:2034   */\n      gt\n        /* \"#utility.yul\":2006:2118   */\n      iszero\n      tag_196\n      jumpi\n        /* \"#utility.yul\":2037:2116   */\n      tag_197\n      tag_137\n      jump\t// in\n    tag_197:\n        /* \"#utility.yul\":2006:2118   */\n    tag_196:\n        /* \"#utility.yul\":2127:2181   */\n      tag_198\n        /* \"#utility.yul\":2174:2180   */\n      dup5\n        /* \"#utility.yul\":2169:2172   */\n      dup3\n        /* \"#utility.yul\":2164:2167   */\n      dup6\n        /* \"#utility.yul\":2127:2181   */\n      tag_143\n      jump\t// in\n    tag_198:\n        /* \"#utility.yul\":1846:2187   */\n      pop\n        /* \"#utility.yul\":1762:2187   */\n      swap4\n      swap3\n      pop\n      pop\n      pop\n      jump\t// out\n        /* \"#utility.yul\":2207:2547   */\n    tag_145:\n        /* \"#utility.yul\":2263:2268   */\n      0x00\n        /* \"#utility.yul\":2312:2315   */\n      dup3\n        /* \"#utility.yul\":2305:2309   */\n      0x1f\n        /* \"#utility.yul\":2297:2303   */\n      dup4\n        /* \"#utility.yul\":2293:2310   */\n      add\n        /* \"#utility.yul\":2289:2316   */\n      slt\n        /* \"#utility.yul\":2279:2401   */\n      tag_200\n      jumpi\n        /* \"#utility.yul\":2320:2399   */\n      tag_201\n      tag_136\n      jump\t// in\n    tag_201:\n        /* \"#utility.yul\":2279:2401   */\n    tag_200:\n        /* \"#utility.yul\":2437:2443   */\n      dup2\n        /* \"#utility.yul\":2424:2444   */\n      calldataload\n        /* \"#utility.yul\":2462:2541   */\n      tag_202\n        /* \"#utility.yul\":2537:2540   */\n      dup5\n        /* \"#utility.yul\":2529:2535   */\n      dup3\n        /* \"#utility.yul\":2522:2526   */\n      0x20\n        /* \"#utility.yul\":2514:2520   */\n      dup7\n        /* \"#utility.yul\":2510:2527   */\n      add\n        /* \"#utility.yul\":2462:2541   */\n      tag_144\n      jump\t// in\n    tag_202:\n        /* \"#utility.yul\":2453:2541   */\n      swap2\n      pop\n        /* \"#utility.yul\":2269:2547   */\n      pop\n        /* \"#utility.yul\":2207:2547   */\n      swap3\n      swap2\n      pop\n      pop\n      jump\t// out\n        /* \"#utility.yul\":2553:3062   */\n    tag_9:\n        /* \"#utility.yul\":2622:2628   */\n      0x00\n        /* \"#utility.yul\":2671:2673   */\n      0x20\n        /* \"#utility.yul\":2659:2668   */\n      dup3\n        /* \"#utility.yul\":2650:2657   */\n      dup5\n        /* \"#utility.yul\":2646:2669   */\n      sub\n        /* \"#utility.yul\":2642:2674   */\n      slt\n        /* \"#utility.yul\":2639:2758   */\n      iszero\n      tag_204\n      jumpi\n        /* \"#utility.yul\":2677:2756   */\n      tag_205\n      tag_134\n      jump\t// in\n    tag_205:\n        /* \"#utility.yul\":2639:2758   */\n    tag_204:\n        /* \"#utility.yul\":2825:2826   */\n      0x00\n        /* \"#utility.yul\":2814:2823   */\n      dup3\n        /* \"#utility.yul\":2810:2827   */\n      add\n        /* \"#utility.yul\":2797:2828   */\n      calldataload\n        /* \"#utility.yul\":2855:2873   */\n      0xffffffffffffffff\n        /* \"#utility.yul\":2847:2853   */\n      dup2\n        /* \"#utility.yul\":2844:2874   */\n      gt\n        /* \"#utility.yul\":2841:2958   */\n      iszero\n      tag_206\n      jumpi\n        /* \"#utility.yul\":2877:2956   */\n      tag_207\n      tag_135\n      jump\t// in\n    tag_207:\n        /* \"#utility.yul\":2841:2958   */\n    tag_206:\n        /* \"#utility.yul\":2982:3045   */\n      tag_208\n        /* \"#utility.yul\":3037:3044   */\n      dup5\n        /* \"#utility.yul\":3028:3034   */\n      dup3\n        /* \"#utility.yul\":3017:3026   */\n      dup6\n        /* \"#utility.yul\":3013:3035   */\n      add\n        /* \"#utility.yul\":2982:3045   */\n      tag_145\n      jump\t// in\n    tag_208:\n        /* \"#utility.yul\":2972:3045   */\n      swap2\n      pop\n        /* \"#utility.yul\":2768:3055   */\n      pop\n        /* \"#utility.yul\":2553:3062   */\n      swap3\n      swap2\n      pop\n      pop\n      jump\t// out\n        /* \"#utility.yul\":3068:3167   */\n    tag_146:\n        /* \"#utility.yul\":3120:3126   */\n      0x00\n        /* \"#utility.yul\":3154:3159   */\n      dup2\n        /* \"#utility.yul\":3148:3160   */\n      mload\n        /* \"#utility.yul\":3138:3160   */\n      swap1\n      pop\n        /* \"#utility.yul\":3068:3167   */\n      swap2\n      swap1\n      pop\n      jump\t// out\n        /* \"#utility.yul\":3173:3342   */\n    tag_147:\n        /* \"#utility.yul\":3257:3268   */\n      0x00\n        /* \"#utility.yul\":3291:3297   */\n      dup3\n        /* \"#utility.yul\":3286:3289   */\n      dup3\n        /* \"#utility.yul\":3279:3298   */\n      mstore\n        /* \"#utility.yul\":3331:3335   */\n      0x20\n        /* \"#utility.yul\":3326:3329   */\n      dup3\n        /* \"#utility.yul\":3322:3336   */\n      add\n        /* \"#utility.yul\":3307:3336   */\n      swap1\n      pop\n        /* \"#utility.yul\":3173:3342   */\n      swap3\n      swap2\n      pop\n      pop\n      jump\t// out\n        /* \"#utility.yul\":3348:3594   */\n    tag_148:\n        /* \"#utility.yul\":3429:3430   */\n      0x00\n        /* \"#utility.yul\":3439:3552   */\n    tag_212:\n        /* \"#utility.yul\":3453:3459   */\n      dup4\n        /* \"#utility.yul\":3450:3451   */\n      dup2\n        /* \"#utility.yul\":3447:3460   */\n      lt\n        /* \"#utility.yul\":3439:3552   */\n      iszero\n      tag_214\n      jumpi\n        /* \"#utility.yul\":3538:3539   */\n      dup1\n        /* \"#utility.yul\":3533:3536   */\n      dup3\n        /* \"#utility.yul\":3529:3540   */\n      add\n        /* \"#utility.yul\":3523:3541   */\n      mload\n        /* \"#utility.yul\":3519:3520   */\n      dup2\n        /* \"#utility.yul\":3514:3517   */\n      dup5\n        /* \"#utility.yul\":3510:3521   */\n      add\n        /* \"#utility.yul\":3503:3542   */\n      mstore\n        /* \"#utility.yul\":3475:3477   */\n      0x20\n        /* \"#utility.yul\":3472:3473   */\n      dup2\n        /* \"#utility.yul\":3468:3478   */\n      add\n        /* \"#utility.yul\":3463:3478   */\n      swap1\n      pop\n        /* \"#utility.yul\":3439:3552   */\n      jump(tag_212)\n    tag_214:\n        /* \"#utility.yul\":3586:3587   */\n      0x00\n        /* \"#utility.yul\":3577:3583   */\n      dup5\n        /* \"#utility.yul\":3572:3575   */\n      dup5\n        /* \"#utility.yul\":3568:3584   */\n      add\n        /* \"#utility.yul\":3561:3588   */\n      mstore\n        /* \"#utility.yul\":3410:3594   */\n      pop\n        /* \"#utility.yul\":3348:3594   */\n      pop\n      pop\n      pop\n      jump\t// out\n        /* \"#utility.yul\":3600:3977   */\n    tag_149:\n        /* \"#utility.yul\":3688:3691   */\n      0x00\n        /* \"#utility.yul\":3716:3755   */\n      tag_216\n        /* \"#utility.yul\":3749:3754   */\n      dup3\n        /* \"#utility.yul\":3716:3755   */\n      tag_146\n      jump\t// in\n    tag_216:\n        /* \"#utility.yul\":3771:3842   */\n      tag_217\n        /* \"#utility.yul\":3835:3841   */\n      dup2\n        /* \"#utility.yul\":3830:3833   */\n      dup6\n        /* \"#utility.yul\":3771:3842   */\n      tag_147\n      jump\t// in\n    tag_217:\n        /* \"#utility.yul\":3764:3842   */\n      swap4\n      pop\n        /* \"#utility.yul\":3851:3916   */\n      tag_218\n        /* \"#utility.yul\":3909:3915   */\n      dup2\n        /* \"#utility.yul\":3904:3907   */\n      dup6\n        /* \"#utility.yul\":3897:3901   */\n      0x20\n        /* \"#utility.yul\":3890:3895   */\n      dup7\n        /* \"#utility.yul\":3886:3902   */\n      add\n        /* \"#utility.yul\":3851:3916   */\n      tag_148\n      jump\t// in\n    tag_218:\n        /* \"#utility.yul\":3941:3970   */\n      tag_219\n        /* \"#utility.yul\":3963:3969   */\n      dup2\n        /* \"#utility.yul\":3941:3970   */\n      tag_138\n      jump\t// in\n    tag_219:\n        /* \"#utility.yul\":3936:3939   */\n      dup5\n        /* \"#utility.yul\":3932:3971   */\n      add\n        /* \"#utility.yul\":3925:3971   */\n      swap2\n      pop\n        /* \"#utility.yul\":3692:3977   */\n      pop\n        /* \"#utility.yul\":3600:3977   */\n      swap3\n      swap2\n      pop\n      pop\n      jump\t// out\n        /* \"#utility.yul\":3983:5102   */\n    tag_12:\n        /* \"#utility.yul\":4288:4292   */\n      0x00\n        /* \"#utility.yul\":4326:4329   */\n      0xa0\n        /* \"#utility.yul\":4315:4324   */\n      dup3\n        /* \"#utility.yul\":4311:4330   */\n      add\n        /* \"#utility.yul\":4303:4330   */\n      swap1\n      pop\n        /* \"#utility.yul\":4376:4385   */\n      dup2\n        /* \"#utility.yul\":4370:4374   */\n      dup2\n        /* \"#utility.yul\":4366:4386   */\n      sub\n        /* \"#utility.yul\":4362:4363   */\n      0x00\n        /* \"#utility.yul\":4351:4360   */\n      dup4\n        /* \"#utility.yul\":4347:4364   */\n      add\n        /* \"#utility.yul\":4340:4387   */\n      mstore\n        /* \"#utility.yul\":4404:4482   */\n      tag_221\n        /* \"#utility.yul\":4477:4481   */\n      dup2\n        /* \"#utility.yul\":4468:4474   */\n      dup9\n        /* \"#utility.yul\":4404:4482   */\n      tag_149\n      jump\t// in\n    tag_221:\n        /* \"#utility.yul\":4396:4482   */\n      swap1\n      pop\n        /* \"#utility.yul\":4529:4538   */\n      dup2\n        /* \"#utility.yul\":4523:4527   */\n      dup2\n        /* \"#utility.yul\":4519:4539   */\n      sub\n        /* \"#utility.yul\":4514:4516   */\n      0x20\n        /* \"#utility.yul\":4503:4512   */\n      dup4\n        /* \"#utility.yul\":4499:4517   */\n      add\n        /* \"#utility.yul\":4492:4540   */\n      mstore\n        /* \"#utility.yul\":4557:4635   */\n      tag_222\n        /* \"#utility.yul\":4630:4634   */\n      dup2\n        /* \"#utility.yul\":4621:4627   */\n      dup8\n        /* \"#utility.yul\":4557:4635   */\n      tag_149\n      jump\t// in\n    tag_222:\n        /* \"#utility.yul\":4549:4635   */\n      swap1\n      pop\n        /* \"#utility.yul\":4682:4691   */\n      dup2\n        /* \"#utility.yul\":4676:4680   */\n      dup2\n        /* \"#utility.yul\":4672:4692   */\n      sub\n        /* \"#utility.yul\":4667:4669   */\n      0x40\n        /* \"#utility.yul\":4656:4665   */\n      dup4\n        /* \"#utility.yul\":4652:4670   */\n      add\n        /* \"#utility.yul\":4645:4693   */\n      mstore\n        /* \"#utility.yul\":4710:4788   */\n      tag_223\n        /* \"#utility.yul\":4783:4787   */\n      dup2\n        /* \"#utility.yul\":4774:4780   */\n      dup7\n        /* \"#utility.yul\":4710:4788   */\n      tag_149\n      jump\t// in\n    tag_223:\n        /* \"#utility.yul\":4702:4788   */\n      swap1\n      pop\n        /* \"#utility.yul\":4835:4844   */\n      dup2\n        /* \"#utility.yul\":4829:4833   */\n      dup2\n        /* \"#utility.yul\":4825:4845   */\n      sub\n        /* \"#utility.yul\":4820:4822   */\n      0x60\n        /* \"#utility.yul\":4809:4818   */\n      dup4\n        /* \"#utility.yul\":4805:4823   */\n      add\n        /* \"#utility.yul\":4798:4846   */\n      mstore\n        /* \"#utility.yul\":4863:4941   */\n      tag_224\n        /* \"#utility.yul\":4936:4940   */\n      dup2\n        /* \"#utility.yul\":4927:4933   */\n      dup6\n        /* \"#utility.yul\":4863:4941   */\n      tag_149\n      jump\t// in\n    tag_224:\n        /* \"#utility.yul\":4855:4941   */\n      swap1\n      pop\n        /* \"#utility.yul\":4989:4998   */\n      dup2\n        /* \"#utility.yul\":4983:4987   */\n      dup2\n        /* \"#utility.yul\":4979:4999   */\n      sub\n        /* \"#utility.yul\":4973:4976   */\n      0x80\n        /* \"#utility.yul\":4962:4971   */\n      dup4\n        /* \"#utility.yul\":4958:4977   */\n      add\n        /* \"#utility.yul\":4951:5000   */\n      mstore\n        /* \"#utility.yul\":5017:5095   */\n      tag_225\n        /* \"#utility.yul\":5090:5094   */\n      dup2\n        /* \"#utility.yul\":5081:5087   */\n      dup5\n        /* \"#utility.yul\":5017:5095   */\n      tag_149\n      jump\t// in\n    tag_225:\n        /* \"#utility.yul\":5009:5095   */\n      swap1\n      pop\n        /* \"#utility.yul\":3983:5102   */\n      swap7\n      swap6\n      pop\n      pop\n      pop\n      pop\n      pop\n      pop\n      jump\t// out\n        /* \"#utility.yul\":5108:5267   */\n    tag_150:\n        /* \"#utility.yul\":5182:5193   */\n      0x00\n        /* \"#utility.yul\":5216:5222   */\n      dup3\n        /* \"#utility.yul\":5211:5214   */\n      dup3\n        /* \"#utility.yul\":5204:5223   */\n      mstore\n        /* \"#utility.yul\":5256:5260   */\n      0x20\n        /* \"#utility.yul\":5251:5254   */\n      dup3\n        /* \"#utility.yul\":5247:5261   */\n      add\n        /* \"#utility.yul\":5232:5261   */\n      swap1\n      pop\n        /* \"#utility.yul\":5108:5267   */\n      swap3\n      swap2\n      pop\n      pop\n      jump\t// out\n        /* \"#utility.yul\":5273:5630   */\n    tag_151:\n        /* \"#utility.yul\":5351:5354   */\n      0x00\n        /* \"#utility.yul\":5379:5418   */\n      tag_228\n        /* \"#utility.yul\":5412:5417   */\n      dup3\n        /* \"#utility.yul\":5379:5418   */\n      tag_146\n      jump\t// in\n    tag_228:\n        /* \"#utility.yul\":5434:5495   */\n      tag_229\n        /* \"#utility.yul\":5488:5494   */\n      dup2\n        /* \"#utility.yul\":5483:5486   */\n      dup6\n        /* \"#utility.yul\":5434:5495   */\n      tag_150\n      jump\t// in\n    tag_229:\n        /* \"#utility.yul\":5427:5495   */\n      swap4\n      pop\n        /* \"#utility.yul\":5504:5569   */\n      tag_230\n        /* \"#utility.yul\":5562:5568   */\n      dup2\n        /* \"#utility.yul\":5557:5560   */\n      dup6\n        /* \"#utility.yul\":5550:5554   */\n      0x20\n        /* \"#utility.yul\":5543:5548   */\n      dup7\n        /* \"#utility.yul\":5539:5555   */\n      add\n        /* \"#utility.yul\":5504:5569   */\n      tag_148\n      jump\t// in\n    tag_230:\n        /* \"#utility.yul\":5594:5623   */\n      tag_231\n        /* \"#utility.yul\":5616:5622   */\n      dup2\n        /* \"#utility.yul\":5594:5623   */\n      tag_138\n      jump\t// in\n    tag_231:\n        /* \"#utility.yul\":5589:5592   */\n      dup5\n        /* \"#utility.yul\":5585:5624   */\n      add\n        /* \"#utility.yul\":5578:5624   */\n      swap2\n      pop\n        /* \"#utility.yul\":5355:5630   */\n      pop\n        /* \"#utility.yul\":5273:5630   */\n      swap3\n      swap2\n      pop\n      pop\n      jump\t// out\n        /* \"#utility.yul\":5702:7126   */\n    tag_152:\n        /* \"#utility.yul\":5825:5828   */\n      0x00\n        /* \"#utility.yul\":5861:5865   */\n      0xa0\n        /* \"#utility.yul\":5856:5859   */\n      dup4\n        /* \"#utility.yul\":5852:5866   */\n      add\n        /* \"#utility.yul\":5952:5956   */\n      0x00\n        /* \"#utility.yul\":5945:5950   */\n      dup4\n        /* \"#utility.yul\":5941:5957   */\n      add\n        /* \"#utility.yul\":5935:5958   */\n      mload\n        /* \"#utility.yul\":6005:6008   */\n      dup5\n        /* \"#utility.yul\":5999:6003   */\n      dup3\n        /* \"#utility.yul\":5995:6009   */\n      sub\n        /* \"#utility.yul\":5988:5992   */\n      0x00\n        /* \"#utility.yul\":5983:5986   */\n      dup7\n        /* \"#utility.yul\":5979:5993   */\n      add\n        /* \"#utility.yul\":5972:6010   */\n      mstore\n        /* \"#utility.yul\":6031:6104   */\n      tag_233\n        /* \"#utility.yul\":6099:6103   */\n      dup3\n        /* \"#utility.yul\":6085:6097   */\n      dup3\n        /* \"#utility.yul\":6031:6104   */\n      tag_151\n      jump\t// in\n    tag_233:\n        /* \"#utility.yul\":6023:6104   */\n      swap2\n      pop\n        /* \"#utility.yul\":5876:6115   */\n      pop\n        /* \"#utility.yul\":6201:6205   */\n      0x20\n        /* \"#utility.yul\":6194:6199   */\n      dup4\n        /* \"#utility.yul\":6190:6206   */\n      add\n        /* \"#utility.yul\":6184:6207   */\n      mload\n        /* \"#utility.yul\":6254:6257   */\n      dup5\n        /* \"#utility.yul\":6248:6252   */\n      dup3\n        /* \"#utility.yul\":6244:6258   */\n      sub\n        /* \"#utility.yul\":6237:6241   */\n      0x20\n        /* \"#utility.yul\":6232:6235   */\n      dup7\n        /* \"#utility.yul\":6228:6242   */\n      add\n        /* \"#utility.yul\":6221:6259   */\n      mstore\n        /* \"#utility.yul\":6280:6353   */\n      tag_234\n        /* \"#utility.yul\":6348:6352   */\n      dup3\n        /* \"#utility.yul\":6334:6346   */\n      dup3\n        /* \"#utility.yul\":6280:6353   */\n      tag_151\n      jump\t// in\n    tag_234:\n        /* \"#utility.yul\":6272:6353   */\n      swap2\n      pop\n        /* \"#utility.yul\":6125:6364   */\n      pop\n        /* \"#utility.yul\":6446:6450   */\n      0x40\n        /* \"#utility.yul\":6439:6444   */\n      dup4\n        /* \"#utility.yul\":6435:6451   */\n      add\n        /* \"#utility.yul\":6429:6452   */\n      mload\n        /* \"#utility.yul\":6499:6502   */\n      dup5\n        /* \"#utility.yul\":6493:6497   */\n      dup3\n        /* \"#utility.yul\":6489:6503   */\n      sub\n        /* \"#utility.yul\":6482:6486   */\n      0x40\n        /* \"#utility.yul\":6477:6480   */\n      dup7\n        /* \"#utility.yul\":6473:6487   */\n      add\n        /* \"#utility.yul\":6466:6504   */\n      mstore\n        /* \"#utility.yul\":6525:6598   */\n      tag_235\n        /* \"#utility.yul\":6593:6597   */\n      dup3\n        /* \"#utility.yul\":6579:6591   */\n      dup3\n        /* \"#utility.yul\":6525:6598   */\n      tag_151\n      jump\t// in\n    tag_235:\n        /* \"#utility.yul\":6517:6598   */\n      swap2\n      pop\n        /* \"#utility.yul\":6374:6609   */\n      pop\n        /* \"#utility.yul\":6692:6696   */\n      0x60\n        /* \"#utility.yul\":6685:6690   */\n      dup4\n        /* \"#utility.yul\":6681:6697   */\n      add\n        /* \"#utility.yul\":6675:6698   */\n      mload\n        /* \"#utility.yul\":6745:6748   */\n      dup5\n        /* \"#utility.yul\":6739:6743   */\n      dup3\n        /* \"#utility.yul\":6735:6749   */\n      sub\n        /* \"#utility.yul\":6728:6732   */\n      0x60\n        /* \"#utility.yul\":6723:6726   */\n      dup7\n        /* \"#utility.yul\":6719:6733   */\n      add\n        /* \"#utility.yul\":6712:6750   */\n      mstore\n        /* \"#utility.yul\":6771:6844   */\n      tag_236\n        /* \"#utility.yul\":6839:6843   */\n      dup3\n        /* \"#utility.yul\":6825:6837   */\n      dup3\n        /* \"#utility.yul\":6771:6844   */\n      tag_151\n      jump\t// in\n    tag_236:\n        /* \"#utility.yul\":6763:6844   */\n      swap2\n      pop\n        /* \"#utility.yul\":6619:6855   */\n      pop\n        /* \"#utility.yul\":6936:6940   */\n      0x80\n        /* \"#utility.yul\":6929:6934   */\n      dup4\n        /* \"#utility.yul\":6925:6941   */\n      add\n        /* \"#utility.yul\":6919:6942   */\n      mload\n        /* \"#utility.yul\":6989:6992   */\n      dup5\n        /* \"#utility.yul\":6983:6987   */\n      dup3\n        /* \"#utility.yul\":6979:6993   */\n      sub\n        /* \"#utility.yul\":6972:6976   */\n      0x80\n        /* \"#utility.yul\":6967:6970   */\n      dup7\n        /* \"#utility.yul\":6963:6977   */\n      add\n        /* \"#utility.yul\":6956:6994   */\n      mstore\n        /* \"#utility.yul\":7015:7088   */\n      tag_237\n        /* \"#utility.yul\":7083:7087   */\n      dup3\n        /* \"#utility.yul\":7069:7081   */\n      dup3\n        /* \"#utility.yul\":7015:7088   */\n      tag_151\n      jump\t// in\n    tag_237:\n        /* \"#utility.yul\":7007:7088   */\n      swap2\n      pop\n        /* \"#utility.yul\":6865:7099   */\n      pop\n        /* \"#utility.yul\":7116:7120   */\n      dup1\n        /* \"#utility.yul\":7109:7120   */\n      swap2\n      pop\n        /* \"#utility.yul\":5830:7126   */\n      pop\n        /* \"#utility.yul\":5702:7126   */\n      swap3\n      swap2\n      pop\n      pop\n      jump\t// out\n        /* \"#utility.yul\":7132:7209   */\n    tag_153:\n        /* \"#utility.yul\":7169:7176   */\n      0x00\n        /* \"#utility.yul\":7198:7203   */\n      dup2\n        /* \"#utility.yul\":7187:7203   */\n      swap1\n      pop\n        /* \"#utility.yul\":7132:7209   */\n      swap2\n      swap1\n      pop\n      jump\t// out\n        /* \"#utility.yul\":7215:7333   */\n    tag_154:\n        /* \"#utility.yul\":7302:7326   */\n      tag_240\n        /* \"#utility.yul\":7320:7325   */\n      dup2\n        /* \"#utility.yul\":7302:7326   */\n      tag_153\n      jump\t// in\n    tag_240:\n        /* \"#utility.yul\":7297:7300   */\n      dup3\n        /* \"#utility.yul\":7290:7327   */\n      mstore\n        /* \"#utility.yul\":7215:7333   */\n      pop\n      pop\n      jump\t// out\n        /* \"#utility.yul\":7339:9152   */\n    tag_17:\n        /* \"#utility.yul\":7830:7834   */\n      0x00\n        /* \"#utility.yul\":7868:7871   */\n      0x0120\n        /* \"#utility.yul\":7857:7866   */\n      dup3\n        /* \"#utility.yul\":7853:7872   */\n      add\n        /* \"#utility.yul\":7845:7872   */\n      swap1\n      pop\n        /* \"#utility.yul\":7918:7927   */\n      dup2\n        /* \"#utility.yul\":7912:7916   */\n      dup2\n        /* \"#utility.yul\":7908:7928   */\n      sub\n        /* \"#utility.yul\":7904:7905   */\n      0x00\n        /* \"#utility.yul\":7893:7902   */\n      dup4\n        /* \"#utility.yul\":7889:7906   */\n      add\n        /* \"#utility.yul\":7882:7929   */\n      mstore\n        /* \"#utility.yul\":7946:8024   */\n      tag_242\n        /* \"#utility.yul\":8019:8023   */\n      dup2\n        /* \"#utility.yul\":8010:8016   */\n      dup13\n        /* \"#utility.yul\":7946:8024   */\n      tag_149\n      jump\t// in\n    tag_242:\n        /* \"#utility.yul\":7938:8024   */\n      swap1\n      pop\n        /* \"#utility.yul\":8071:8080   */\n      dup2\n        /* \"#utility.yul\":8065:8069   */\n      dup2\n        /* \"#utility.yul\":8061:8081   */\n      sub\n        /* \"#utility.yul\":8056:8058   */\n      0x20\n        /* \"#utility.yul\":8045:8054   */\n      dup4\n        /* \"#utility.yul\":8041:8059   */\n      add\n        /* \"#utility.yul\":8034:8082   */\n      mstore\n        /* \"#utility.yul\":8099:8177   */\n      tag_243\n        /* \"#utility.yul\":8172:8176   */\n      dup2\n        /* \"#utility.yul\":8163:8169   */\n      dup12\n        /* \"#utility.yul\":8099:8177   */\n      tag_149\n      jump\t// in\n    tag_243:\n        /* \"#utility.yul\":8091:8177   */\n      swap1\n      pop\n        /* \"#utility.yul\":8224:8233   */\n      dup2\n        /* \"#utility.yul\":8218:8222   */\n      dup2\n        /* \"#utility.yul\":8214:8234   */\n      sub\n        /* \"#utility.yul\":8209:8211   */\n      0x40\n        /* \"#utility.yul\":8198:8207   */\n      dup4\n        /* \"#utility.yul\":8194:8212   */\n      add\n        /* \"#utility.yul\":8187:8235   */\n      mstore\n        /* \"#utility.yul\":8252:8330   */\n      tag_244\n        /* \"#utility.yul\":8325:8329   */\n      dup2\n        /* \"#utility.yul\":8316:8322   */\n      dup11\n        /* \"#utility.yul\":8252:8330   */\n      tag_149\n      jump\t// in\n    tag_244:\n        /* \"#utility.yul\":8244:8330   */\n      swap1\n      pop\n        /* \"#utility.yul\":8377:8386   */\n      dup2\n        /* \"#utility.yul\":8371:8375   */\n      dup2\n        /* \"#utility.yul\":8367:8387   */\n      sub\n        /* \"#utility.yul\":8362:8364   */\n      0x60\n        /* \"#utility.yul\":8351:8360   */\n      dup4\n        /* \"#utility.yul\":8347:8365   */\n      add\n        /* \"#utility.yul\":8340:8388   */\n      mstore\n        /* \"#utility.yul\":8405:8483   */\n      tag_245\n        /* \"#utility.yul\":8478:8482   */\n      dup2\n        /* \"#utility.yul\":8469:8475   */\n      dup10\n        /* \"#utility.yul\":8405:8483   */\n      tag_149\n      jump\t// in\n    tag_245:\n        /* \"#utility.yul\":8397:8483   */\n      swap1\n      pop\n        /* \"#utility.yul\":8531:8540   */\n      dup2\n        /* \"#utility.yul\":8525:8529   */\n      dup2\n        /* \"#utility.yul\":8521:8541   */\n      sub\n        /* \"#utility.yul\":8515:8518   */\n      0x80\n        /* \"#utility.yul\":8504:8513   */\n      dup4\n        /* \"#utility.yul\":8500:8519   */\n      add\n        /* \"#utility.yul\":8493:8542   */\n      mstore\n        /* \"#utility.yul\":8559:8637   */\n      tag_246\n        /* \"#utility.yul\":8632:8636   */\n      dup2\n        /* \"#utility.yul\":8623:8629   */\n      dup9\n        /* \"#utility.yul\":8559:8637   */\n      tag_149\n      jump\t// in\n    tag_246:\n        /* \"#utility.yul\":8551:8637   */\n      swap1\n      pop\n        /* \"#utility.yul\":8685:8694   */\n      dup2\n        /* \"#utility.yul\":8679:8683   */\n      dup2\n        /* \"#utility.yul\":8675:8695   */\n      sub\n        /* \"#utility.yul\":8669:8672   */\n      0xa0\n        /* \"#utility.yul\":8658:8667   */\n      dup4\n        /* \"#utility.yul\":8654:8673   */\n      add\n        /* \"#utility.yul\":8647:8696   */\n      mstore\n        /* \"#utility.yul\":8713:8791   */\n      tag_247\n        /* \"#utility.yul\":8786:8790   */\n      dup2\n        /* \"#utility.yul\":8777:8783   */\n      dup8\n        /* \"#utility.yul\":8713:8791   */\n      tag_149\n      jump\t// in\n    tag_247:\n        /* \"#utility.yul\":8705:8791   */\n      swap1\n      pop\n        /* \"#utility.yul\":8839:8848   */\n      dup2\n        /* \"#utility.yul\":8833:8837   */\n      dup2\n        /* \"#utility.yul\":8829:8849   */\n      sub\n        /* \"#utility.yul\":8823:8826   */\n      0xc0\n        /* \"#utility.yul\":8812:8821   */\n      dup4\n        /* \"#utility.yul\":8808:8827   */\n      add\n        /* \"#utility.yul\":8801:8850   */\n      mstore\n        /* \"#utility.yul\":8867:8979   */\n      tag_248\n        /* \"#utility.yul\":8974:8978   */\n      dup2\n        /* \"#utility.yul\":8965:8971   */\n      dup7\n        /* \"#utility.yul\":8867:8979   */\n      tag_152\n      jump\t// in\n    tag_248:\n        /* \"#utility.yul\":8859:8979   */\n      swap1\n      pop\n        /* \"#utility.yul\":8989:9062   */\n      tag_249\n        /* \"#utility.yul\":9057:9060   */\n      0xe0\n        /* \"#utility.yul\":9046:9055   */\n      dup4\n        /* \"#utility.yul\":9042:9061   */\n      add\n        /* \"#utility.yul\":9033:9039   */\n      dup6\n        /* \"#utility.yul\":8989:9062   */\n      tag_154\n      jump\t// in\n    tag_249:\n        /* \"#utility.yul\":9072:9145   */\n      tag_250\n        /* \"#utility.yul\":9140:9143   */\n      0x0100\n        /* \"#utility.yul\":9129:9138   */\n      dup4\n        /* \"#utility.yul\":9125:9144   */\n      add\n        /* \"#utility.yul\":9116:9122   */\n      dup5\n        /* \"#utility.yul\":9072:9145   */\n      tag_154\n      jump\t// in\n    tag_250:\n        /* \"#utility.yul\":7339:9152   */\n      swap11\n      swap10\n      pop\n      pop\n      pop\n      pop\n      pop\n      pop\n      pop\n      pop\n      pop\n      pop\n      jump\t// out\n        /* \"#utility.yul\":9158:10969   */\n    tag_20:\n        /* \"#utility.yul\":9303:9309   */\n      0x00\n        /* \"#utility.yul\":9311:9317   */\n      dup1\n        /* \"#utility.yul\":9319:9325   */\n      0x00\n        /* \"#utility.yul\":9327:9333   */\n      dup1\n        /* \"#utility.yul\":9335:9341   */\n      0x00\n        /* \"#utility.yul\":9384:9387   */\n      0xa0\n        /* \"#utility.yul\":9372:9381   */\n      dup7\n        /* \"#utility.yul\":9363:9370   */\n      dup9\n        /* \"#utility.yul\":9359:9382   */\n      sub\n        /* \"#utility.yul\":9355:9388   */\n      slt\n        /* \"#utility.yul\":9352:9472   */\n      iszero\n      tag_252\n      jumpi\n        /* \"#utility.yul\":9391:9470   */\n      tag_253\n      tag_134\n      jump\t// in\n    tag_253:\n        /* \"#utility.yul\":9352:9472   */\n    tag_252:\n        /* \"#utility.yul\":9539:9540   */\n      0x00\n        /* \"#utility.yul\":9528:9537   */\n      dup7\n        /* \"#utility.yul\":9524:9541   */\n      add\n        /* \"#utility.yul\":9511:9542   */\n      calldataload\n        /* \"#utility.yul\":9569:9587   */\n      0xffffffffffffffff\n        /* \"#utility.yul\":9561:9567   */\n      dup2\n        /* \"#utility.yul\":9558:9588   */\n      gt\n        /* \"#utility.yul\":9555:9672   */\n      iszero\n      tag_254\n      jumpi\n        /* \"#utility.yul\":9591:9670   */\n      tag_255\n      tag_135\n      jump\t// in\n    tag_255:\n        /* \"#utility.yul\":9555:9672   */\n    tag_254:\n        /* \"#utility.yul\":9696:9759   */\n      tag_256\n        /* \"#utility.yul\":9751:9758   */\n      dup9\n        /* \"#utility.yul\":9742:9748   */\n      dup3\n        /* \"#utility.yul\":9731:9740   */\n      dup10\n        /* \"#utility.yul\":9727:9749   */\n      add\n        /* \"#utility.yul\":9696:9759   */\n      tag_145\n      jump\t// in\n    tag_256:\n        /* \"#utility.yul\":9686:9759   */\n      swap6\n      pop\n        /* \"#utility.yul\":9482:9769   */\n      pop\n        /* \"#utility.yul\":9836:9838   */\n      0x20\n        /* \"#utility.yul\":9825:9834   */\n      dup7\n        /* \"#utility.yul\":9821:9839   */\n      add\n        /* \"#utility.yul\":9808:9840   */\n      calldataload\n        /* \"#utility.yul\":9867:9885   */\n      0xffffffffffffffff\n        /* \"#utility.yul\":9859:9865   */\n      dup2\n        /* \"#utility.yul\":9856:9886   */\n      gt\n        /* \"#utility.yul\":9853:9970   */\n      iszero\n      tag_257\n      jumpi\n        /* \"#utility.yul\":9889:9968   */\n      tag_258\n      tag_135\n      jump\t// in\n    tag_258:\n        /* \"#utility.yul\":9853:9970   */\n    tag_257:\n        /* \"#utility.yul\":9994:10057   */\n      tag_259\n        /* \"#utility.yul\":10049:10056   */\n      dup9\n        /* \"#utility.yul\":10040:10046   */\n      dup3\n        /* \"#utility.yul\":10029:10038   */\n      dup10\n        /* \"#utility.yul\":10025:10047   */\n      add\n        /* \"#utility.yul\":9994:10057   */\n      tag_145\n      jump\t// in\n    tag_259:\n        /* \"#utility.yul\":9984:10057   */\n      swap5\n      pop\n        /* \"#utility.yul\":9779:10067   */\n      pop\n        /* \"#utility.yul\":10134:10136   */\n      0x40\n        /* \"#utility.yul\":10123:10132   */\n      dup7\n        /* \"#utility.yul\":10119:10137   */\n      add\n        /* \"#utility.yul\":10106:10138   */\n      calldataload\n        /* \"#utility.yul\":10165:10183   */\n      0xffffffffffffffff\n        /* \"#utility.yul\":10157:10163   */\n      dup2\n        /* \"#utility.yul\":10154:10184   */\n      gt\n        /* \"#utility.yul\":10151:10268   */\n      iszero\n      tag_260\n      jumpi\n        /* \"#utility.yul\":10187:10266   */\n      tag_261\n      tag_135\n      jump\t// in\n    tag_261:\n        /* \"#utility.yul\":10151:10268   */\n    tag_260:\n        /* \"#utility.yul\":10292:10355   */\n      tag_262\n        /* \"#utility.yul\":10347:10354   */\n      dup9\n        /* \"#utility.yul\":10338:10344   */\n      dup3\n        /* \"#utility.yul\":10327:10336   */\n      dup10\n        /* \"#utility.yul\":10323:10345   */\n      add\n        /* \"#utility.yul\":10292:10355   */\n      tag_145\n      jump\t// in\n    tag_262:\n        /* \"#utility.yul\":10282:10355   */\n      swap4\n      pop\n        /* \"#utility.yul\":10077:10365   */\n      pop\n        /* \"#utility.yul\":10432:10434   */\n      0x60\n        /* \"#utility.yul\":10421:10430   */\n      dup7\n        /* \"#utility.yul\":10417:10435   */\n      add\n        /* \"#utility.yul\":10404:10436   */\n      calldataload\n        /* \"#utility.yul\":10463:10481   */\n      0xffffffffffffffff\n        /* \"#utility.yul\":10455:10461   */\n      dup2\n        /* \"#utility.yul\":10452:10482   */\n      gt\n        /* \"#utility.yul\":10449:10566   */\n      iszero\n      tag_263\n      jumpi\n        /* \"#utility.yul\":10485:10564   */\n      tag_264\n      tag_135\n      jump\t// in\n    tag_264:\n        /* \"#utility.yul\":10449:10566   */\n    tag_263:\n        /* \"#utility.yul\":10590:10653   */\n      tag_265\n        /* \"#utility.yul\":10645:10652   */\n      dup9\n        /* \"#utility.yul\":10636:10642   */\n      dup3\n        /* \"#utility.yul\":10625:10634   */\n      dup10\n        /* \"#utility.yul\":10621:10643   */\n      add\n        /* \"#utility.yul\":10590:10653   */\n      tag_145\n      jump\t// in\n    tag_265:\n        /* \"#utility.yul\":10580:10653   */\n      swap3\n      pop\n        /* \"#utility.yul\":10375:10663   */\n      pop\n        /* \"#utility.yul\":10730:10733   */\n      0x80\n        /* \"#utility.yul\":10719:10728   */\n      dup7\n        /* \"#utility.yul\":10715:10734   */\n      add\n        /* \"#utility.yul\":10702:10735   */\n      calldataload\n        /* \"#utility.yul\":10762:10780   */\n      0xffffffffffffffff\n        /* \"#utility.yul\":10754:10760   */\n      dup2\n        /* \"#utility.yul\":10751:10781   */\n      gt\n        /* \"#utility.yul\":10748:10865   */\n      iszero\n      tag_266\n      jumpi\n        /* \"#utility.yul\":10784:10863   */\n      tag_267\n      tag_135\n      jump\t// in\n    tag_267:\n        /* \"#utility.yul\":10748:10865   */\n    tag_266:\n        /* \"#utility.yul\":10889:10952   */\n      tag_268\n        /* \"#utility.yul\":10944:10951   */\n      dup9\n        /* \"#utility.yul\":10935:10941   */\n      dup3\n        /* \"#utility.yul\":10924:10933   */\n      dup10\n        /* \"#utility.yul\":10920:10942   */\n      add\n        /* \"#utility.yul\":10889:10952   */\n      tag_145\n      jump\t// in\n    tag_268:\n        /* \"#utility.yul\":10879:10952   */\n      swap2\n      pop\n        /* \"#utility.yul\":10673:10962   */\n      pop\n        /* \"#utility.yul\":9158:10969   */\n      swap3\n      swap6\n      pop\n      swap3\n      swap6\n      swap1\n      swap4\n      pop\n      jump\t// out\n        /* \"#utility.yul\":10975:14744   */\n    tag_24:\n        /* \"#utility.yul\":11234:11240   */\n      0x00\n        /* \"#utility.yul\":11242:11248   */\n      dup1\n        /* \"#utility.yul\":11250:11256   */\n      0x00\n        /* \"#utility.yul\":11258:11264   */\n      dup1\n        /* \"#utility.yul\":11266:11272   */\n      0x00\n        /* \"#utility.yul\":11274:11280   */\n      dup1\n        /* \"#utility.yul\":11282:11288   */\n      0x00\n        /* \"#utility.yul\":11290:11296   */\n      dup1\n        /* \"#utility.yul\":11298:11304   */\n      0x00\n        /* \"#utility.yul\":11306:11312   */\n      dup1\n        /* \"#utility.yul\":11314:11321   */\n      0x00\n        /* \"#utility.yul\":11364:11367   */\n      0x0160\n        /* \"#utility.yul\":11352:11361   */\n      dup13\n        /* \"#utility.yul\":11343:11350   */\n      dup15\n        /* \"#utility.yul\":11339:11362   */\n      sub\n        /* \"#utility.yul\":11335:11368   */\n      slt\n        /* \"#utility.yul\":11332:11452   */\n      iszero\n      tag_270\n      jumpi\n        /* \"#utility.yul\":11371:11450   */\n      tag_271\n      tag_134\n      jump\t// in\n    tag_271:\n        /* \"#utility.yul\":11332:11452   */\n    tag_270:\n        /* \"#utility.yul\":11519:11520   */\n      0x00\n        /* \"#utility.yul\":11508:11517   */\n      dup13\n        /* \"#utility.yul\":11504:11521   */\n      add\n        /* \"#utility.yul\":11491:11522   */\n      calldataload\n        /* \"#utility.yul\":11549:11567   */\n      0xffffffffffffffff\n        /* \"#utility.yul\":11541:11547   */\n      dup2\n        /* \"#utility.yul\":11538:11568   */\n      gt\n        /* \"#utility.yul\":11535:11652   */\n      iszero\n      tag_272\n      jumpi\n        /* \"#utility.yul\":11571:11650   */\n      tag_273\n      tag_135\n      jump\t// in\n    tag_273:\n        /* \"#utility.yul\":11535:11652   */\n    tag_272:\n        /* \"#utility.yul\":11676:11739   */\n      tag_274\n        /* \"#utility.yul\":11731:11738   */\n      dup15\n        /* \"#utility.yul\":11722:11728   */\n      dup3\n        /* \"#utility.yul\":11711:11720   */\n      dup16\n        /* \"#utility.yul\":11707:11729   */\n      add\n        /* \"#utility.yul\":11676:11739   */\n      tag_145\n      jump\t// in\n    tag_274:\n        /* \"#utility.yul\":11666:11739   */\n      swap12\n      pop\n        /* \"#utility.yul\":11462:11749   */\n      pop\n        /* \"#utility.yul\":11816:11818   */\n      0x20\n        /* \"#utility.yul\":11805:11814   */\n      dup13\n        /* \"#utility.yul\":11801:11819   */\n      add\n        /* \"#utility.yul\":11788:11820   */\n      calldataload\n        /* \"#utility.yul\":11847:11865   */\n      0xffffffffffffffff\n        /* \"#utility.yul\":11839:11845   */\n      dup2\n        /* \"#utility.yul\":11836:11866   */\n      gt\n        /* \"#utility.yul\":11833:11950   */\n      iszero\n      tag_275\n      jumpi\n        /* \"#utility.yul\":11869:11948   */\n      tag_276\n      tag_135\n      jump\t// in\n    tag_276:\n        /* \"#utility.yul\":11833:11950   */\n    tag_275:\n        /* \"#utility.yul\":11974:12037   */\n      tag_277\n        /* \"#utility.yul\":12029:12036   */\n      dup15\n        /* \"#utility.yul\":12020:12026   */\n      dup3\n        /* \"#utility.yul\":12009:12018   */\n      dup16\n        /* \"#utility.yul\":12005:12027   */\n      add\n        /* \"#utility.yul\":11974:12037   */\n      tag_145\n      jump\t// in\n    tag_277:\n        /* \"#utility.yul\":11964:12037   */\n      swap11\n      pop\n        /* \"#utility.yul\":11759:12047   */\n      pop\n        /* \"#utility.yul\":12114:12116   */\n      0x40\n        /* \"#utility.yul\":12103:12112   */\n      dup13\n        /* \"#utility.yul\":12099:12117   */\n      add\n        /* \"#utility.yul\":12086:12118   */\n      calldataload\n        /* \"#utility.yul\":12145:12163   */\n      0xffffffffffffffff\n        /* \"#utility.yul\":12137:12143   */\n      dup2\n        /* \"#utility.yul\":12134:12164   */\n      gt\n        /* \"#utility.yul\":12131:12248   */\n      iszero\n      tag_278\n      jumpi\n        /* \"#utility.yul\":12167:12246   */\n      tag_279\n      tag_135\n      jump\t// in\n    tag_279:\n        /* \"#utility.yul\":12131:12248   */\n    tag_278:\n        /* \"#utility.yul\":12272:12335   */\n      tag_280\n        /* \"#utility.yul\":12327:12334   */\n      dup15\n        /* \"#utility.yul\":12318:12324   */\n      dup3\n        /* \"#utility.yul\":12307:12316   */\n      dup16\n        /* \"#utility.yul\":12303:12325   */\n      add\n        /* \"#utility.yul\":12272:12335   */\n      tag_145\n      jump\t// in\n    tag_280:\n        /* \"#utility.yul\":12262:12335   */\n      swap10\n      pop\n        /* \"#utility.yul\":12057:12345   */\n      pop\n        /* \"#utility.yul\":12412:12414   */\n      0x60\n        /* \"#utility.yul\":12401:12410   */\n      dup13\n        /* \"#utility.yul\":12397:12415   */\n      add\n        /* \"#utility.yul\":12384:12416   */\n      calldataload\n        /* \"#utility.yul\":12443:12461   */\n      0xffffffffffffffff\n        /* \"#utility.yul\":12435:12441   */\n      dup2\n        /* \"#utility.yul\":12432:12462   */\n      gt\n        /* \"#utility.yul\":12429:12546   */\n      iszero\n      tag_281\n      jumpi\n        /* \"#utility.yul\":12465:12544   */\n      tag_282\n      tag_135\n      jump\t// in\n    tag_282:\n        /* \"#utility.yul\":12429:12546   */\n    tag_281:\n        /* \"#utility.yul\":12570:12633   */\n      tag_283\n        /* \"#utility.yul\":12625:12632   */\n      dup15\n        /* \"#utility.yul\":12616:12622   */\n      dup3\n        /* \"#utility.yul\":12605:12614   */\n      dup16\n        /* \"#utility.yul\":12601:12623   */\n      add\n        /* \"#utility.yul\":12570:12633   */\n      tag_145\n      jump\t// in\n    tag_283:\n        /* \"#utility.yul\":12560:12633   */\n      swap9\n      pop\n        /* \"#utility.yul\":12355:12643   */\n      pop\n        /* \"#utility.yul\":12710:12713   */\n      0x80\n        /* \"#utility.yul\":12699:12708   */\n      dup13\n        /* \"#utility.yul\":12695:12714   */\n      add\n        /* \"#utility.yul\":12682:12715   */\n      calldataload\n        /* \"#utility.yul\":12742:12760   */\n      0xffffffffffffffff\n        /* \"#utility.yul\":12734:12740   */\n      dup2\n        /* \"#utility.yul\":12731:12761   */\n      gt\n        /* \"#utility.yul\":12728:12845   */\n      iszero\n      tag_284\n      jumpi\n        /* \"#utility.yul\":12764:12843   */\n      tag_285\n      tag_135\n      jump\t// in\n    tag_285:\n        /* \"#utility.yul\":12728:12845   */\n    tag_284:\n        /* \"#utility.yul\":12869:12932   */\n      tag_286\n        /* \"#utility.yul\":12924:12931   */\n      dup15\n        /* \"#utility.yul\":12915:12921   */\n      dup3\n        /* \"#utility.yul\":12904:12913   */\n      dup16\n        /* \"#utility.yul\":12900:12922   */\n      add\n        /* \"#utility.yul\":12869:12932   */\n      tag_145\n      jump\t// in\n    tag_286:\n        /* \"#utility.yul\":12859:12932   */\n      swap8\n      pop\n        /* \"#utility.yul\":12653:12942   */\n      pop\n        /* \"#utility.yul\":13009:13012   */\n      0xa0\n        /* \"#utility.yul\":12998:13007   */\n      dup13\n        /* \"#utility.yul\":12994:13013   */\n      add\n        /* \"#utility.yul\":12981:13014   */\n      calldataload\n        /* \"#utility.yul\":13041:13059   */\n      0xffffffffffffffff\n        /* \"#utility.yul\":13033:13039   */\n      dup2\n        /* \"#utility.yul\":13030:13060   */\n      gt\n        /* \"#utility.yul\":13027:13144   */\n      iszero\n      tag_287\n      jumpi\n        /* \"#utility.yul\":13063:13142   */\n      tag_288\n      tag_135\n      jump\t// in\n    tag_288:\n        /* \"#utility.yul\":13027:13144   */\n    tag_287:\n        /* \"#utility.yul\":13168:13231   */\n      tag_289\n        /* \"#utility.yul\":13223:13230   */\n      dup15\n        /* \"#utility.yul\":13214:13220   */\n      dup3\n        /* \"#utility.yul\":13203:13212   */\n      dup16\n        /* \"#utility.yul\":13199:13221   */\n      add\n        /* \"#utility.yul\":13168:13231   */\n      tag_145\n      jump\t// in\n    tag_289:\n        /* \"#utility.yul\":13158:13231   */\n      swap7\n      pop\n        /* \"#utility.yul\":12952:13241   */\n      pop\n        /* \"#utility.yul\":13308:13311   */\n      0xc0\n        /* \"#utility.yul\":13297:13306   */\n      dup13\n        /* \"#utility.yul\":13293:13312   */\n      add\n        /* \"#utility.yul\":13280:13313   */\n      calldataload\n        /* \"#utility.yul\":13340:13358   */\n      0xffffffffffffffff\n        /* \"#utility.yul\":13332:13338   */\n      dup2\n        /* \"#utility.yul\":13329:13359   */\n      gt\n        /* \"#utility.yul\":13326:13443   */\n      iszero\n      tag_290\n      jumpi\n        /* \"#utility.yul\":13362:13441   */\n      tag_291\n      tag_135\n      jump\t// in\n    tag_291:\n        /* \"#utility.yul\":13326:13443   */\n    tag_290:\n        /* \"#utility.yul\":13467:13530   */\n      tag_292\n        /* \"#utility.yul\":13522:13529   */\n      dup15\n        /* \"#utility.yul\":13513:13519   */\n      dup3\n        /* \"#utility.yul\":13502:13511   */\n      dup16\n        /* \"#utility.yul\":13498:13520   */\n      add\n        /* \"#utility.yul\":13467:13530   */\n      tag_145\n      jump\t// in\n    tag_292:\n        /* \"#utility.yul\":13457:13530   */\n      swap6\n      pop\n        /* \"#utility.yul\":13251:13540   */\n      pop\n        /* \"#utility.yul\":13607:13610   */\n      0xe0\n        /* \"#utility.yul\":13596:13605   */\n      dup13\n        /* \"#utility.yul\":13592:13611   */\n      add\n        /* \"#utility.yul\":13579:13612   */\n      calldataload\n        /* \"#utility.yul\":13639:13657   */\n      0xffffffffffffffff\n        /* \"#utility.yul\":13631:13637   */\n      dup2\n        /* \"#utility.yul\":13628:13658   */\n      gt\n        /* \"#utility.yul\":13625:13742   */\n      iszero\n      tag_293\n      jumpi\n        /* \"#utility.yul\":13661:13740   */\n      tag_294\n      tag_135\n      jump\t// in\n    tag_294:\n        /* \"#utility.yul\":13625:13742   */\n    tag_293:\n        /* \"#utility.yul\":13766:13829   */\n      tag_295\n        /* \"#utility.yul\":13821:13828   */\n      dup15\n        /* \"#utility.yul\":13812:13818   */\n      dup3\n        /* \"#utility.yul\":13801:13810   */\n      dup16\n        /* \"#utility.yul\":13797:13819   */\n      add\n        /* \"#utility.yul\":13766:13829   */\n      tag_145\n      jump\t// in\n    tag_295:\n        /* \"#utility.yul\":13756:13829   */\n      swap5\n      pop\n        /* \"#utility.yul\":13550:13839   */\n      pop\n        /* \"#utility.yul\":13906:13909   */\n      0x0100\n        /* \"#utility.yul\":13895:13904   */\n      dup13\n        /* \"#utility.yul\":13891:13910   */\n      add\n        /* \"#utility.yul\":13878:13911   */\n      calldataload\n        /* \"#utility.yul\":13938:13956   */\n      0xffffffffffffffff\n        /* \"#utility.yul\":13930:13936   */\n      dup2\n        /* \"#utility.yul\":13927:13957   */\n      gt\n        /* \"#utility.yul\":13924:14041   */\n      iszero\n      tag_296\n      jumpi\n        /* \"#utility.yul\":13960:14039   */\n      tag_297\n      tag_135\n      jump\t// in\n    tag_297:\n        /* \"#utility.yul\":13924:14041   */\n    tag_296:\n        /* \"#utility.yul\":14065:14128   */\n      tag_298\n        /* \"#utility.yul\":14120:14127   */\n      dup15\n        /* \"#utility.yul\":14111:14117   */\n      dup3\n        /* \"#utility.yul\":14100:14109   */\n      dup16\n        /* \"#utility.yul\":14096:14118   */\n      add\n        /* \"#utility.yul\":14065:14128   */\n      tag_145\n      jump\t// in\n    tag_298:\n        /* \"#utility.yul\":14055:14128   */\n      swap4\n      pop\n        /* \"#utility.yul\":13849:14138   */\n      pop\n        /* \"#utility.yul\":14205:14208   */\n      0x0120\n        /* \"#utility.yul\":14194:14203   */\n      dup13\n        /* \"#utility.yul\":14190:14209   */\n      add\n        /* \"#utility.yul\":14177:14210   */\n      calldataload\n        /* \"#utility.yul\":14237:14255   */\n      0xffffffffffffffff\n        /* \"#utility.yul\":14229:14235   */\n      dup2\n        /* \"#utility.yul\":14226:14256   */\n      gt\n        /* \"#utility.yul\":14223:14340   */\n      iszero\n      tag_299\n      jumpi\n        /* \"#utility.yul\":14259:14338   */\n      tag_300\n      tag_135\n      jump\t// in\n    tag_300:\n        /* \"#utility.yul\":14223:14340   */\n    tag_299:\n        /* \"#utility.yul\":14364:14427   */\n      tag_301\n        /* \"#utility.yul\":14419:14426   */\n      dup15\n        /* \"#utility.yul\":14410:14416   */\n      dup3\n        /* \"#utility.yul\":14399:14408   */\n      dup16\n        /* \"#utility.yul\":14395:14417   */\n      add\n        /* \"#utility.yul\":14364:14427   */\n      tag_145\n      jump\t// in\n    tag_301:\n        /* \"#utility.yul\":14354:14427   */\n      swap3\n      pop\n        /* \"#utility.yul\":14148:14437   */\n      pop\n        /* \"#utility.yul\":14504:14507   */\n      0x0140\n        /* \"#utility.yul\":14493:14502   */\n      dup13\n        /* \"#utility.yul\":14489:14508   */\n      add\n        /* \"#utility.yul\":14476:14509   */\n      calldataload\n        /* \"#utility.yul\":14536:14554   */\n      0xffffffffffffffff\n        /* \"#utility.yul\":14528:14534   */\n      dup2\n        /* \"#utility.yul\":14525:14555   */\n      gt\n        /* \"#utility.yul\":14522:14639   */\n      iszero\n      tag_302\n      jumpi\n        /* \"#utility.yul\":14558:14637   */\n      tag_303\n      tag_135\n      jump\t// in\n    tag_303:\n        /* \"#utility.yul\":14522:14639   */\n    tag_302:\n        /* \"#utility.yul\":14664:14727   */\n      tag_304\n        /* \"#utility.yul\":14719:14726   */\n      dup15\n        /* \"#utility.yul\":14710:14716   */\n      dup3\n        /* \"#utility.yul\":14699:14708   */\n      dup16\n        /* \"#utility.yul\":14695:14717   */\n      add\n        /* \"#utility.yul\":14664:14727   */\n      tag_145\n      jump\t// in\n    tag_304:\n        /* \"#utility.yul\":14653:14727   */\n      swap2\n      pop\n        /* \"#utility.yul\":14447:14737   */\n      pop\n        /* \"#utility.yul\":10975:14744   */\n      swap3\n      swap6\n      swap9\n      swap12\n      pop\n      swap3\n      swap6\n      swap9\n      swap12\n      swap1\n      swap4\n      swap7\n      swap10\n      pop\n      jump\t// out\n        /* \"#utility.yul\":14750:14898   */\n    tag_155:\n        /* \"#utility.yul\":14852:14863   */\n      0x00\n        /* \"#utility.yul\":14889:14892   */\n      dup2\n        /* \"#utility.yul\":14874:14892   */\n      swap1\n      pop\n        /* \"#utility.yul\":14750:14898   */\n      swap3\n      swap2\n      pop\n      pop\n      jump\t// out\n        /* \"#utility.yul\":14904:15294   */\n    tag_156:\n        /* \"#utility.yul\":15010:15013   */\n      0x00\n        /* \"#utility.yul\":15038:15077   */\n      tag_307\n        /* \"#utility.yul\":15071:15076   */\n      dup3\n        /* \"#utility.yul\":15038:15077   */\n      tag_146\n      jump\t// in\n    tag_307:\n        /* \"#utility.yul\":15093:15182   */\n      tag_308\n        /* \"#utility.yul\":15175:15181   */\n      dup2\n        /* \"#utility.yul\":15170:15173   */\n      dup6\n        /* \"#utility.yul\":15093:15182   */\n      tag_155\n      jump\t// in\n    tag_308:\n        /* \"#utility.yul\":15086:15182   */\n      swap4\n      pop\n        /* \"#utility.yul\":15191:15256   */\n      tag_309\n        /* \"#utility.yul\":15249:15255   */\n      dup2\n        /* \"#utility.yul\":15244:15247   */\n      dup6\n        /* \"#utility.yul\":15237:15241   */\n      0x20\n        /* \"#utility.yul\":15230:15235   */\n      dup7\n        /* \"#utility.yul\":15226:15242   */\n      add\n        /* \"#utility.yul\":15191:15256   */\n      tag_148\n      jump\t// in\n    tag_309:\n        /* \"#utility.yul\":15281:15287   */\n      dup1\n        /* \"#utility.yul\":15276:15279   */\n      dup5\n        /* \"#utility.yul\":15272:15288   */\n      add\n        /* \"#utility.yul\":15265:15288   */\n      swap2\n      pop\n        /* \"#utility.yul\":15014:15294   */\n      pop\n        /* \"#utility.yul\":14904:15294   */\n      swap3\n      swap2\n      pop\n      pop\n      jump\t// out\n        /* \"#utility.yul\":15300:15575   */\n    tag_28:\n        /* \"#utility.yul\":15432:15435   */\n      0x00\n        /* \"#utility.yul\":15454:15549   */\n      tag_311\n        /* \"#utility.yul\":15545:15548   */\n      dup3\n        /* \"#utility.yul\":15536:15542   */\n      dup5\n        /* \"#utility.yul\":15454:15549   */\n      tag_156\n      jump\t// in\n    tag_311:\n        /* \"#utility.yul\":15447:15549   */\n      swap2\n      pop\n        /* \"#utility.yul\":15566:15569   */\n      dup2\n        /* \"#utility.yul\":15559:15569   */\n      swap1\n      pop\n        /* \"#utility.yul\":15300:15575   */\n      swap3\n      swap2\n      pop\n      pop\n      jump\t// out\n        /* \"#utility.yul\":15581:15761   */\n    tag_157:\n        /* \"#utility.yul\":15629:15706   */\n      0x4e487b7100000000000000000000000000000000000000000000000000000000\n        /* \"#utility.yul\":15626:15627   */\n      0x00\n        /* \"#utility.yul\":15619:15707   */\n      mstore\n        /* \"#utility.yul\":15726:15730   */\n      0x22\n        /* \"#utility.yul\":15723:15724   */\n      0x04\n        /* \"#utility.yul\":15716:15731   */\n      mstore\n        /* \"#utility.yul\":15750:15754   */\n      0x24\n        /* \"#utility.yul\":15747:15748   */\n      0x00\n        /* \"#utility.yul\":15740:15755   */\n      revert\n        /* \"#utility.yul\":15767:16087   */\n    tag_30:\n        /* \"#utility.yul\":15811:15817   */\n      0x00\n        /* \"#utility.yul\":15848:15849   */\n      0x02\n        /* \"#utility.yul\":15842:15846   */\n      dup3\n        /* \"#utility.yul\":15838:15850   */\n      div\n        /* \"#utility.yul\":15828:15850   */\n      swap1\n      pop\n        /* \"#utility.yul\":15895:15896   */\n      0x01\n        /* \"#utility.yul\":15889:15893   */\n      dup3\n        /* \"#utility.yul\":15885:15897   */\n      and\n        /* \"#utility.yul\":15916:15934   */\n      dup1\n        /* \"#utility.yul\":15906:15987   */\n      tag_314\n      jumpi\n        /* \"#utility.yul\":15972:15976   */\n      0x7f\n        /* \"#utility.yul\":15964:15970   */\n      dup3\n        /* \"#utility.yul\":15960:15977   */\n      and\n        /* \"#utility.yul\":15950:15977   */\n      swap2\n      pop\n        /* \"#utility.yul\":15906:15987   */\n    tag_314:\n        /* \"#utility.yul\":16034:16036   */\n      0x20\n        /* \"#utility.yul\":16026:16032   */\n      dup3\n        /* \"#utility.yul\":16023:16037   */\n      lt\n        /* \"#utility.yul\":16003:16021   */\n      dup2\n        /* \"#utility.yul\":16000:16038   */\n      sub\n        /* \"#utility.yul\":15997:16081   */\n      tag_315\n      jumpi\n        /* \"#utility.yul\":16053:16071   */\n      tag_316\n      tag_157\n      jump\t// in\n    tag_316:\n        /* \"#utility.yul\":15997:16081   */\n    tag_315:\n        /* \"#utility.yul\":15818:16087   */\n      pop\n        /* \"#utility.yul\":15767:16087   */\n      swap2\n      swap1\n      pop\n      jump\t// out\n        /* \"#utility.yul\":16093:16234   */\n    tag_158:\n        /* \"#utility.yul\":16142:16146   */\n      0x00\n        /* \"#utility.yul\":16165:16168   */\n      dup2\n        /* \"#utility.yul\":16157:16168   */\n      swap1\n      pop\n        /* \"#utility.yul\":16188:16191   */\n      dup2\n        /* \"#utility.yul\":16185:16186   */\n      0x00\n        /* \"#utility.yul\":16178:16192   */\n      mstore\n        /* \"#utility.yul\":16222:16226   */\n      0x20\n        /* \"#utility.yul\":16219:16220   */\n      0x00\n        /* \"#utility.yul\":16209:16227   */\n      keccak256\n        /* \"#utility.yul\":16201:16227   */\n      swap1\n      pop\n        /* \"#utility.yul\":16093:16234   */\n      swap2\n      swap1\n      pop\n      jump\t// out\n        /* \"#utility.yul\":16240:16333   */\n    tag_159:\n        /* \"#utility.yul\":16277:16283   */\n      0x00\n        /* \"#utility.yul\":16324:16326   */\n      0x20\n        /* \"#utility.yul\":16319:16321   */\n      0x1f\n        /* \"#utility.yul\":16312:16317   */\n      dup4\n        /* \"#utility.yul\":16308:16322   */\n      add\n        /* \"#utility.yul\":16304:16327   */\n      div\n        /* \"#utility.yul\":16294:16327   */\n      swap1\n      pop\n        /* \"#utility.yul\":16240:16333   */\n      swap2\n      swap1\n      pop\n      jump\t// out\n        /* \"#utility.yul\":16339:16446   */\n    tag_160:\n        /* \"#utility.yul\":16383:16391   */\n      0x00\n        /* \"#utility.yul\":16433:16438   */\n      dup3\n        /* \"#utility.yul\":16427:16431   */\n      dup3\n        /* \"#utility.yul\":16423:16439   */\n      shl\n        /* \"#utility.yul\":16402:16439   */\n      swap1\n      pop\n        /* \"#utility.yul\":16339:16446   */\n      swap3\n      swap2\n      pop\n      pop\n      jump\t// out\n        /* \"#utility.yul\":16452:16845   */\n    tag_161:\n        /* \"#utility.yul\":16521:16527   */\n      0x00\n        /* \"#utility.yul\":16571:16572   */\n      0x08\n        /* \"#utility.yul\":16559:16569   */\n      dup4\n        /* \"#utility.yul\":16555:16573   */\n      mul\n        /* \"#utility.yul\":16594:16691   */\n      tag_321\n        /* \"#utility.yul\":16624:16690   */\n      0xffffffffffffffffffffffffffffffffffffffffffffffffffffffffffffffff\n        /* \"#utility.yul\":16613:16622   */\n      dup3\n        /* \"#utility.yul\":16594:16691   */\n      tag_160\n      jump\t// in\n    tag_321:\n        /* \"#utility.yul\":16712:16751   */\n      tag_322\n        /* \"#utility.yul\":16742:16750   */\n      dup7\n        /* \"#utility.yul\":16731:16740   */\n      dup4\n        /* \"#utility.yul\":16712:16751   */\n      tag_160\n      jump\t// in\n    tag_322:\n        /* \"#utility.yul\":16700:16751   */\n      swap6\n      pop\n        /* \"#utility.yul\":16784:16788   */\n      dup1\n        /* \"#utility.yul\":16780:16789   */\n      not\n        /* \"#utility.yul\":16773:16778   */\n      dup5\n        /* \"#utility.yul\":16769:16790   */\n      and\n        /* \"#utility.yul\":16760:16790   */\n      swap4\n      pop\n        /* \"#utility.yul\":16833:16837   */\n      dup1\n        /* \"#utility.yul\":16823:16831   */\n      dup7\n        /* \"#utility.yul\":16819:16838   */\n      and\n        /* \"#utility.yul\":16812:16817   */\n      dup5\n        /* \"#utility.yul\":16809:16839   */\n      or\n        /* \"#utility.yul\":16799:16839   */\n      swap3\n      pop\n        /* \"#utility.yul\":16528:16845   */\n      pop\n      pop\n        /* \"#utility.yul\":16452:16845   */\n      swap4\n      swap3\n      pop\n      pop\n      pop\n      jump\t// out\n        /* \"#utility.yul\":16851:16911   */\n    tag_162:\n        /* \"#utility.yul\":16879:16882   */\n      0x00\n        /* \"#utility.yul\":16900:16905   */\n      dup2\n        /* \"#utility.yul\":16893:16905   */\n      swap1\n      pop\n        /* \"#utility.yul\":16851:16911   */\n      swap2\n      swap1\n      pop\n      jump\t// out\n        /* \"#utility.yul\":16917:17059   */\n    tag_163:\n        /* \"#utility.yul\":16967:16976   */\n      0x00\n        /* \"#utility.yul\":17000:17053   */\n      tag_325\n        /* \"#utility.yul\":17018:17052   */\n      tag_326\n        /* \"#utility.yul\":17027:17051   */\n      tag_327\n        /* \"#utility.yul\":17045:17050   */\n      dup5\n        /* \"#utility.yul\":17027:17051   */\n      tag_153\n      jump\t// in\n    tag_327:\n        /* \"#utility.yul\":17018:17052   */\n      tag_162\n      jump\t// in\n    tag_326:\n        /* \"#utility.yul\":17000:17053   */\n      tag_153\n      jump\t// in\n    tag_325:\n        /* \"#utility.yul\":16987:17053   */\n      swap1\n      pop\n        /* \"#utility.yul\":16917:17059   */\n      swap2\n      swap1\n      pop\n      jump\t// out\n        /* \"#utility.yul\":17065:17140   */\n    tag_164:\n        /* \"#utility.yul\":17108:17111   */\n      0x00\n        /* \"#utility.yul\":17129:17134   */\n      dup2\n        /* \"#utility.yul\":17122:17134   */\n      swap1\n      pop\n        /* \"#utility.yul\":17065:17140   */\n      swap2\n      swap1\n      pop\n      jump\t// out\n        /* \"#utility.yul\":17146:17415   */\n    tag_165:\n        /* \"#utility.yul\":17256:17295   */\n      tag_330\n        /* \"#utility.yul\":17287:17294   */\n      dup4\n        /* \"#utility.yul\":17256:17295   */\n      tag_163\n      jump\t// in\n    tag_330:\n        /* \"#utility.yul\":17317:17408   */\n      tag_331\n        /* \"#utility.yul\":17366:17407   */\n      tag_332\n        /* \"#utility.yul\":17390:17406   */\n      dup3\n        /* \"#utility.yul\":17366:17407   */\n      tag_164\n      jump\t// in\n    tag_332:\n        /* \"#utility.yul\":17358:17364   */\n      dup5\n        /* \"#utility.yul\":17351:17355   */\n      dup5\n        /* \"#utility.yul\":17345:17356   */\n      sload\n        /* \"#utility.yul\":17317:17408   */\n      tag_161\n      jump\t// in\n    tag_331:\n        /* \"#utility.yul\":17311:17315   */\n      dup3\n        /* \"#utility.yul\":17304:17409   */\n      sstore\n        /* \"#utility.yul\":17222:17415   */\n      pop\n        /* \"#utility.yul\":17146:17415   */\n      pop\n      pop\n      pop\n      jump\t// out\n        /* \"#utility.yul\":17421:17494   */\n    tag_166:\n        /* \"#utility.yul\":17466:17469   */\n      0x00\n        /* \"#utility.yul\":17421:17494   */\n      swap1\n      jump\t// out\n        /* \"#utility.yul\":17500:17689   */\n    tag_167:\n        /* \"#utility.yul\":17577:17609   */\n      tag_335\n      tag_166\n      jump\t// in\n    tag_335:\n        /* \"#utility.yul\":17618:17683   */\n      tag_336\n        /* \"#utility.yul\":17676:17682   */\n      dup2\n        /* \"#utility.yul\":17668:17674   */\n      dup5\n        /* \"#utility.yul\":17662:17666   */\n      dup5\n        /* \"#utility.yul\":17618:17683   */\n      tag_165\n      jump\t// in\n    tag_336:\n        /* \"#utility.yul\":17553:17689   */\n      pop\n        /* \"#utility.yul\":17500:17689   */\n      pop\n      pop\n      jump\t// out\n        /* \"#utility.yul\":17695:17881   */\n    tag_168:\n        /* \"#utility.yul\":17755:17875   */\n    tag_338:\n        /* \"#utility.yul\":17772:17775   */\n      dup2\n        /* \"#utility.yul\":17765:17770   */\n      dup2\n        /* \"#utility.yul\":17762:17776   */\n      lt\n        /* \"#utility.yul\":17755:17875   */\n      iszero\n      tag_340\n      jumpi\n        /* \"#utility.yul\":17826:17865   */\n      tag_341\n        /* \"#utility.yul\":17863:17864   */\n      0x00\n        /* \"#utility.yul\":17856:17861   */\n      dup3\n        /* \"#utility.yul\":17826:17865   */\n      tag_167\n      jump\t// in\n    tag_341:\n        /* \"#utility.yul\":17799:17800   */\n      0x01\n        /* \"#utility.yul\":17792:17797   */\n      dup2\n        /* \"#utility.yul\":17788:17801   */\n      add\n        /* \"#utility.yul\":17779:17801   */\n      swap1\n      pop\n        /* \"#utility.yul\":17755:17875   */\n      jump(tag_338)\n    tag_340:\n        /* \"#utility.yul\":17695:17881   */\n      pop\n      pop\n      jump\t// out\n        /* \"#utility.yul\":17887:18430   */\n    tag_169:\n        /* \"#utility.yul\":17988:17990   */\n      0x1f\n        /* \"#utility.yul\":17983:17986   */\n      dup3\n        /* \"#utility.yul\":17980:17991   */\n      gt\n        /* \"#utility.yul\":17977:18423   */\n      iszero\n      tag_343\n      jumpi\n        /* \"#utility.yul\":18022:18060   */\n      tag_344\n        /* \"#utility.yul\":18054:18059   */\n      dup2\n        /* \"#utility.yul\":18022:18060   */\n      tag_158\n      jump\t// in\n    tag_344:\n        /* \"#utility.yul\":18106:18135   */\n      tag_345\n        /* \"#utility.yul\":18124:18134   */\n      dup5\n        /* \"#utility.yul\":18106:18135   */\n      tag_159\n      jump\t// in\n    tag_345:\n        /* \"#utility.yul\":18096:18104   */\n      dup2\n        /* \"#utility.yul\":18092:18136   */\n      add\n        /* \"#utility.yul\":18289:18291   */\n      0x20\n        /* \"#utility.yul\":18277:18287   */\n      dup6\n        /* \"#utility.yul\":18274:18292   */\n      lt\n        /* \"#utility.yul\":18271:18320   */\n      iszero\n      tag_346\n      jumpi\n        /* \"#utility.yul\":18310:18318   */\n      dup2\n        /* \"#utility.yul\":18295:18318   */\n      swap1\n      pop\n        /* \"#utility.yul\":18271:18320   */\n    tag_346:\n        /* \"#utility.yul\":18333:18413   */\n      tag_347\n        /* \"#utility.yul\":18389:18411   */\n      tag_348\n        /* \"#utility.yul\":18407:18410   */\n      dup6\n        /* \"#utility.yul\":18389:18411   */\n      tag_159\n      jump\t// in\n    tag_348:\n        /* \"#utility.yul\":18379:18387   */\n      dup4\n        /* \"#utility.yul\":18375:18412   */\n      add\n        /* \"#utility.yul\":18362:18373   */\n      dup3\n        /* \"#utility.yul\":18333:18413   */\n      tag_168\n      jump\t// in\n    tag_347:\n        /* \"#utility.yul\":17992:18423   */\n      pop\n      pop\n        /* \"#utility.yul\":17977:18423   */\n    tag_343:\n        /* \"#utility.yul\":17887:18430   */\n      pop\n      pop\n      pop\n      jump\t// out\n        /* \"#utility.yul\":18436:18553   */\n    tag_170:\n        /* \"#utility.yul\":18490:18498   */\n      0x00\n        /* \"#utility.yul\":18540:18545   */\n      dup3\n        /* \"#utility.yul\":18534:18538   */\n      dup3\n        /* \"#utility.yul\":18530:18546   */\n      shr\n        /* \"#utility.yul\":18509:18546   */\n      swap1\n      pop\n        /* \"#utility.yul\":18436:18553   */\n      swap3\n      swap2\n      pop\n      pop\n      jump\t// out\n        /* \"#utility.yul\":18559:18728   */\n    tag_171:\n        /* \"#utility.yul\":18603:18609   */\n      0x00\n        /* \"#utility.yul\":18636:18687   */\n      tag_351\n        /* \"#utility.yul\":18684:18685   */\n      0x00\n        /* \"#utility.yul\":18680:18686   */\n      not\n        /* \"#utility.yul\":18672:18677   */\n      dup5\n        /* \"#utility.yul\":18669:18670   */\n      0x08\n        /* \"#utility.yul\":18665:18678   */\n      mul\n        /* \"#utility.yul\":18636:18687   */\n      tag_170\n      jump\t// in\n    tag_351:\n        /* \"#utility.yul\":18632:18688   */\n      not\n        /* \"#utility.yul\":18717:18721   */\n      dup1\n        /* \"#utility.yul\":18711:18715   */\n      dup4\n        /* \"#utility.yul\":18707:18722   */\n      and\n        /* \"#utility.yul\":18697:18722   */\n      swap2\n      pop\n        /* \"#utility.yul\":18610:18728   */\n      pop\n        /* \"#utility.yul\":18559:18728   */\n      swap3\n      swap2\n      pop\n      pop\n      jump\t// out\n        /* \"#utility.yul\":18733:19028   */\n    tag_172:\n        /* \"#utility.yul\":18809:18813   */\n      0x00\n        /* \"#utility.yul\":18955:18984   */\n      tag_353\n        /* \"#utility.yul\":18980:18983   */\n      dup4\n        /* \"#utility.yul\":18974:18978   */\n      dup4\n        /* \"#utility.yul\":18955:18984   */\n      tag_171\n      jump\t// in\n    tag_353:\n        /* \"#utility.yul\":18947:18984   */\n      swap2\n      pop\n        /* \"#utility.yul\":19017:19020   */\n      dup3\n        /* \"#utility.yul\":19014:19015   */\n      0x02\n        /* \"#utility.yul\":19010:19021   */\n      mul\n        /* \"#utility.yul\":19004:19008   */\n      dup3\n        /* \"#utility.yul\":19001:19022   */\n      or\n        /* \"#utility.yul\":18993:19022   */\n      swap1\n      pop\n        /* \"#utility.yul\":18733:19028   */\n      swap3\n      swap2\n      pop\n      pop\n      jump\t// out\n        /* \"#utility.yul\":19033:20428   */\n    tag_113:\n        /* \"#utility.yul\":19150:19187   */\n      tag_355\n        /* \"#utility.yul\":19183:19186   */\n      dup3\n        /* \"#utility.yul\":19150:19187   */\n      tag_146\n      jump\t// in\n    tag_355:\n        /* \"#utility.yul\":19252:19270   */\n      0xffffffffffffffff\n        /* \"#utility.yul\":19244:19250   */\n      dup2\n        /* \"#utility.yul\":19241:19271   */\n      gt\n        /* \"#utility.yul\":19238:19294   */\n      iszero\n      tag_356\n      jumpi\n        /* \"#utility.yul\":19274:19292   */\n      tag_357\n      tag_139\n      jump\t// in\n    tag_357:\n        /* \"#utility.yul\":19238:19294   */\n    tag_356:\n        /* \"#utility.yul\":19318:19356   */\n      tag_358\n        /* \"#utility.yul\":19350:19354   */\n      dup3\n        /* \"#utility.yul\":19344:19355   */\n      sload\n        /* \"#utility.yul\":19318:19356   */\n      tag_30\n      jump\t// in\n    tag_358:\n        /* \"#utility.yul\":19403:19470   */\n      tag_359\n        /* \"#utility.yul\":19463:19469   */\n      dup3\n        /* \"#utility.yul\":19455:19461   */\n      dup3\n        /* \"#utility.yul\":19449:19453   */\n      dup6\n        /* \"#utility.yul\":19403:19470   */\n      tag_169\n      jump\t// in\n    tag_359:\n        /* \"#utility.yul\":19497:19498   */\n      0x00\n        /* \"#utility.yul\":19521:19525   */\n      0x20\n        /* \"#utility.yul\":19508:19525   */\n      swap1\n      pop\n        /* \"#utility.yul\":19553:19555   */\n      0x1f\n        /* \"#utility.yul\":19545:19551   */\n      dup4\n        /* \"#utility.yul\":19542:19556   */\n      gt\n        /* \"#utility.yul\":19570:19571   */\n      0x01\n        /* \"#utility.yul\":19565:20183   */\n      dup2\n      eq\n      tag_361\n      jumpi\n        /* \"#utility.yul\":20227:20228   */\n      0x00\n        /* \"#utility.yul\":20244:20250   */\n      dup5\n        /* \"#utility.yul\":20241:20318   */\n      iszero\n      tag_362\n      jumpi\n        /* \"#utility.yul\":20293:20302   */\n      dup3\n        /* \"#utility.yul\":20288:20291   */\n      dup8\n        /* \"#utility.yul\":20284:20303   */\n      add\n        /* \"#utility.yul\":20278:20304   */\n      mload\n        /* \"#utility.yul\":20269:20304   */\n      swap1\n      pop\n        /* \"#utility.yul\":20241:20318   */\n    tag_362:\n        /* \"#utility.yul\":20344:20411   */\n      tag_363\n        /* \"#utility.yul\":20404:20410   */\n      dup6\n        /* \"#utility.yul\":20397:20402   */\n      dup3\n        /* \"#utility.yul\":20344:20411   */\n      tag_172\n      jump\t// in\n    tag_363:\n        /* \"#utility.yul\":20338:20342   */\n      dup7\n        /* \"#utility.yul\":20331:20412   */\n      sstore\n        /* \"#utility.yul\":20200:20422   */\n      pop\n        /* \"#utility.yul\":19535:20422   */\n      jump(tag_360)\n        /* \"#utility.yul\":19565:20183   */\n    tag_361:\n        /* \"#utility.yul\":19617:19621   */\n      0x1f\n        /* \"#utility.yul\":19613:19622   */\n      not\n        /* \"#utility.yul\":19605:19611   */\n      dup5\n        /* \"#utility.yul\":19601:19623   */\n      and\n        /* \"#utility.yul\":19651:19688   */\n      tag_364\n        /* \"#utility.yul\":19683:19687   */\n      dup7\n        /* \"#utility.yul\":19651:19688   */\n      tag_158\n      jump\t// in\n    tag_364:\n        /* \"#utility.yul\":19710:19711   */\n      0x00\n        /* \"#utility.yul\":19724:19932   */\n    tag_365:\n        /* \"#utility.yul\":19738:19745   */\n      dup3\n        /* \"#utility.yul\":19735:19736   */\n      dup2\n        /* \"#utility.yul\":19732:19746   */\n      lt\n        /* \"#utility.yul\":19724:19932   */\n      iszero\n      tag_367\n      jumpi\n        /* \"#utility.yul\":19817:19826   */\n      dup5\n        /* \"#utility.yul\":19812:19815   */\n      dup10\n        /* \"#utility.yul\":19808:19827   */\n      add\n        /* \"#utility.yul\":19802:19828   */\n      mload\n        /* \"#utility.yul\":19794:19800   */\n      dup3\n        /* \"#utility.yul\":19787:19829   */\n      sstore\n        /* \"#utility.yul\":19868:19869   */\n      0x01\n        /* \"#utility.yul\":19860:19866   */\n      dup3\n        /* \"#utility.yul\":19856:19870   */\n      add\n        /* \"#utility.yul\":19846:19870   */\n      swap2\n      pop\n        /* \"#utility.yul\":19915:19917   */\n      0x20\n        /* \"#utility.yul\":19904:19913   */\n      dup6\n        /* \"#utility.yul\":19900:19918   */\n      add\n        /* \"#utility.yul\":19887:19918   */\n      swap5\n      pop\n        /* \"#utility.yul\":19761:19765   */\n      0x20\n        /* \"#utility.yul\":19758:19759   */\n      dup2\n        /* \"#utility.yul\":19754:19766   */\n      add\n        /* \"#utility.yul\":19749:19766   */\n      swap1\n      pop\n        /* \"#utility.yul\":19724:19932   */\n      jump(tag_365)\n    tag_367:\n        /* \"#utility.yul\":19960:19966   */\n      dup7\n        /* \"#utility.yul\":19951:19958   */\n      dup4\n        /* \"#utility.yul\":19948:19967   */\n      lt\n        /* \"#utility.yul\":19945:20124   */\n      iszero\n      tag_368\n      jumpi\n        /* \"#utility.yul\":20018:20027   */\n      dup5\n        /* \"#utility.yul\":20013:20016   */\n      dup10\n        /* \"#utility.yul\":20009:20028   */\n      add\n        /* \"#utility.yul\":20003:20029   */\n      mload\n        /* \"#utility.yul\":20061:20109   */\n      tag_369\n        /* \"#utility.yul\":20103:20107   */\n      0x1f\n        /* \"#utility.yul\":20095:20101   */\n      dup10\n        /* \"#utility.yul\":20091:20108   */\n      and\n        /* \"#utility.yul\":20080:20089   */\n      dup3\n        /* \"#utility.yul\":20061:20109   */\n      tag_171\n      jump\t// in\n    tag_369:\n        /* \"#utility.yul\":20053:20059   */\n      dup4\n        /* \"#utility.yul\":20046:20110   */\n      sstore\n        /* \"#utility.yul\":19968:20124   */\n      pop\n        /* \"#utility.yul\":19945:20124   */\n    tag_368:\n        /* \"#utility.yul\":20170:20171   */\n      0x01\n        /* \"#utility.yul\":20166:20167   */\n      0x02\n        /* \"#utility.yul\":20158:20164   */\n      dup9\n        /* \"#utility.yul\":20154:20168   */\n      mul\n        /* \"#utility.yul\":20150:20172   */\n      add\n        /* \"#utility.yul\":20144:20148   */\n      dup9\n        /* \"#utility.yul\":20137:20173   */\n      sstore\n        /* \"#utility.yul\":19572:20183   */\n      pop\n      pop\n      pop\n        /* \"#utility.yul\":19535:20422   */\n    tag_360:\n      pop\n        /* \"#utility.yul\":19125:20428   */\n      pop\n      pop\n      pop\n        /* \"#utility.yul\":19033:20428   */\n      pop\n      pop\n      jump\t// out\n        /* \"#utility.yul\":20434:21462   */\n    tag_132:\n        /* \"#utility.yul\":20719:20723   */\n      0x00\n        /* \"#utility.yul\":20757:20760   */\n      0xa0\n        /* \"#utility.yul\":20746:20755   */\n      dup3\n        /* \"#utility.yul\":20742:20761   */\n      add\n        /* \"#utility.yul\":20734:20761   */\n      swap1\n      pop\n        /* \"#utility.yul\":20807:20816   */\n      dup2\n        /* \"#utility.yul\":20801:20805   */\n      dup2\n        /* \"#utility.yul\":20797:20817   */\n      sub\n        /* \"#utility.yul\":20793:20794   */\n      0x00\n        /* \"#utility.yul\":20782:20791   */\n      dup4\n        /* \"#utility.yul\":20778:20795   */\n      add\n        /* \"#utility.yul\":20771:20818   */\n      mstore\n        /* \"#utility.yul\":20835:20913   */\n      tag_371\n        /* \"#utility.yul\":20908:20912   */\n      dup2\n        /* \"#utility.yul\":20899:20905   */\n      dup9\n        /* \"#utility.yul\":20835:20913   */\n      tag_149\n      jump\t// in\n    tag_371:\n        /* \"#utility.yul\":20827:20913   */\n      swap1\n      pop\n        /* \"#utility.yul\":20960:20969   */\n      dup2\n        /* \"#utility.yul\":20954:20958   */\n      dup2\n        /* \"#utility.yul\":20950:20970   */\n      sub\n        /* \"#utility.yul\":20945:20947   */\n      0x20\n        /* \"#utility.yul\":20934:20943   */\n      dup4\n        /* \"#utility.yul\":20930:20948   */\n      add\n        /* \"#utility.yul\":20923:20971   */\n      mstore\n        /* \"#utility.yul\":20988:21066   */\n      tag_372\n        /* \"#utility.yul\":21061:21065   */\n      dup2\n        /* \"#utility.yul\":21052:21058   */\n      dup8\n        /* \"#utility.yul\":20988:21066   */\n      tag_149\n      jump\t// in\n    tag_372:\n        /* \"#utility.yul\":20980:21066   */\n      swap1\n      pop\n        /* \"#utility.yul\":21113:21122   */\n      dup2\n        /* \"#utility.yul\":21107:21111   */\n      dup2\n        /* \"#utility.yul\":21103:21123   */\n      sub\n        /* \"#utility.yul\":21098:21100   */\n      0x40\n        /* \"#utility.yul\":21087:21096   */\n      dup4\n        /* \"#utility.yul\":21083:21101   */\n      add\n        /* \"#utility.yul\":21076:21124   */\n      mstore\n        /* \"#utility.yul\":21141:21219   */\n      tag_373\n        /* \"#utility.yul\":21214:21218   */\n      dup2\n        /* \"#utility.yul\":21205:21211   */\n      dup7\n        /* \"#utility.yul\":21141:21219   */\n      tag_149\n      jump\t// in\n    tag_373:\n        /* \"#utility.yul\":21133:21219   */\n      swap1\n      pop\n        /* \"#utility.yul\":21266:21275   */\n      dup2\n        /* \"#utility.yul\":21260:21264   */\n      dup2\n        /* \"#utility.yul\":21256:21276   */\n      sub\n        /* \"#utility.yul\":21251:21253   */\n      0x60\n        /* \"#utility.yul\":21240:21249   */\n      dup4\n        /* \"#utility.yul\":21236:21254   */\n      add\n        /* \"#utility.yul\":21229:21277   */\n      mstore\n        /* \"#utility.yul\":21294:21372   */\n      tag_374\n        /* \"#utility.yul\":21367:21371   */\n      dup2\n        /* \"#utility.yul\":21358:21364   */\n      dup6\n        /* \"#utility.yul\":21294:21372   */\n      tag_149\n      jump\t// in\n    tag_374:\n        /* \"#utility.yul\":21286:21372   */\n      swap1\n      pop\n        /* \"#utility.yul\":21382:21455   */\n      tag_375\n        /* \"#utility.yul\":21450:21453   */\n      0x80\n        /* \"#utility.yul\":21439:21448   */\n      dup4\n        /* \"#utility.yul\":21435:21454   */\n      add\n        /* \"#utility.yul\":21426:21432   */\n      dup5\n        /* \"#utility.yul\":21382:21455   */\n      tag_154\n      jump\t// in\n    tag_375:\n        /* \"#utility.yul\":20434:21462   */\n      swap7\n      swap6\n      pop\n      pop\n      pop\n      pop\n      pop\n      pop\n      jump\t// out\n\n    auxdata: 0xa2646970667358221220fb472edf245f7a66111d6990d7270fe1f4a5805cb67105546bcf07772b22caf264736f6c63430008180033\n}\n",
				"bytecode": {
					"linkReferences": {},
					"object": "608060405234801561000f575f80fd5b5061178e8061001d5f395ff3fe608060405234801561000f575f80fd5b506004361061004a575f3560e01c8063085ba0741461004e578063689e1c0314610082578063d50f69ea146100ba578063e37bcb3b146100d6575b5f80fd5b61006860048036038101906100639190610dce565b6100f2565b604051610079959493929190610e8f565b60405180910390f35b61009c60048036038101906100979190610dce565b6103f4565b6040516100b199989796959493929190610ff2565b60405180910390f35b6100d460048036038101906100cf91906110ae565b610a52565b005b6100f060048036038101906100eb91906111b1565b610acb565b005b60608060608060605f808760405161010a919061140c565b90815260200160405180910390209050806001018160020182600301836005018460040184805461013a9061144f565b80601f01602080910402602001604051908101604052809291908181526020018280546101669061144f565b80156101b15780601f10610188576101008083540402835291602001916101b1565b820191905f5260205f20905b81548152906001019060200180831161019457829003601f168201915b505050505094508380546101c49061144f565b80601f01602080910402602001604051908101604052809291908181526020018280546101f09061144f565b801561023b5780601f106102125761010080835404028352916020019161023b565b820191905f5260205f20905b81548152906001019060200180831161021e57829003601f168201915b5050505050935082805461024e9061144f565b80601f016020809104026020016040519081016040528092919081815260200182805461027a9061144f565b80156102c55780601f1061029c576101008083540402835291602001916102c5565b820191905f5260205f20905b8154815290600101906020018083116102a857829003601f168201915b505050505092508180546102d89061144f565b80601f01602080910402602001604051908101604052809291908181526020018280546103049061144f565b801561034f5780601f106103265761010080835404028352916020019161034f565b820191905f5260205f20905b81548152906001019060200180831161033257829003601f168201915b505050505091508080546103629061144f565b80601f016020809104026020016040519081016040528092919081815260200182805461038e9061144f565b80156103d95780601f106103b0576101008083540402835291602001916103d9565b820191905f5260205f20905b8154815290600101906020018083116103bc57829003601f168201915b50505050509050955095509550955095505091939590929450565b5f818051602081018201805184825260208301602085012081835280955050505050505f91509050805f01805461042a9061144f565b80601f01602080910402602001604051908101604052809291908181526020018280546104569061144f565b80156104a15780601f10610478576101008083540402835291602001916104a1565b820191905f5260205f20905b81548152906001019060200180831161048457829003601f168201915b5050505050908060010180546104b69061144f565b80601f01602080910402602001604051908101604052809291908181526020018280546104e29061144f565b801561052d5780601f106105045761010080835404028352916020019161052d565b820191905f5260205f20905b81548152906001019060200180831161051057829003601f168201915b5050505050908060020180546105429061144f565b80601f016020809104026020016040519081016040528092919081815260200182805461056e9061144f565b80156105b95780601f10610590576101008083540402835291602001916105b9565b820191905f5260205f20905b81548152906001019060200180831161059c57829003601f168201915b5050505050908060030180546105ce9061144f565b80601f01602080910402602001604051908101604052809291908181526020018280546105fa9061144f565b80156106455780601f1061061c57610100808354040283529160200191610645565b820191905f5260205f20905b81548152906001019060200180831161062857829003601f168201915b50505050509080600401805461065a9061144f565b80601f01602080910402602001604051908101604052809291908181526020018280546106869061144f565b80156106d15780601f106106a8576101008083540402835291602001916106d1565b820191905f5260205f20905b8154815290600101906020018083116106b457829003601f168201915b5050505050908060050180546106e69061144f565b80601f01602080910402602001604051908101604052809291908181526020018280546107129061144f565b801561075d5780601f106107345761010080835404028352916020019161075d565b820191905f5260205f20905b81548152906001019060200180831161074057829003601f168201915b505050505090806006016040518060a00160405290815f820180546107819061144f565b80601f01602080910402602001604051908101604052809291908181526020018280546107ad9061144f565b80156107f85780601f106107cf576101008083540402835291602001916107f8565b820191905f5260205f20905b8154815290600101906020018083116107db57829003601f168201915b505050505081526020016001820180546108119061144f565b80601f016020809104026020016040519081016040528092919081815260200182805461083d9061144f565b80156108885780601f1061085f57610100808354040283529160200191610888565b820191905f5260205f20905b81548152906001019060200180831161086b57829003601f168201915b505050505081526020016002820180546108a19061144f565b80601f01602080910402602001604051908101604052809291908181526020018280546108cd9061144f565b80156109185780601f106108ef57610100808354040283529160200191610918565b820191905f5260205f20905b8154815290600101906020018083116108fb57829003601f168201915b505050505081526020016003820180546109319061144f565b80601f016020809104026020016040519081016040528092919081815260200182805461095d9061144f565b80156109a85780601f1061097f576101008083540402835291602001916109a8565b820191905f5260205f20905b81548152906001019060200180831161098b57829003601f168201915b505050505081526020016004820180546109c19061144f565b80601f01602080910402602001604051908101604052809291908181526020018280546109ed9061144f565b8015610a385780601f10610a0f57610100808354040283529160200191610a38565b820191905f5260205f20905b815481529060010190602001808311610a1b57829003601f168201915b5050505050815250509080600b01549080600c0154905089565b5f8086604051610a62919061140c565b9081526020016040518091039020905084816001019081610a83919061161c565b5083816002019081610a95919061161c565b5082816003019081610aa7919061161c565b5081816005019081610ab9919061161c565b504281600c0181905550505050505050565b5f3390505f808d604051610adf919061140c565b908152602001604051809103902090508c815f019081610aff919061161c565b508b816001019081610b11919061161c565b508a816002019081610b23919061161c565b5089816003019081610b35919061161c565b5088816004019081610b47919061161c565b5087816005019081610b59919061161c565b506040518060a0016040528088815260200187815260200186815260200185815260200184815250816006015f820151815f019081610b98919061161c565b506020820151816001019081610bae919061161c565b506040820151816002019081610bc4919061161c565b506060820151816003019081610bda919061161c565b506080820151816004019081610bf0919061161c565b509050504281600b01819055504281600c01819055508173ffffffffffffffffffffffffffffffffffffffff168d604051610c2b919061140c565b60405180910390207fb64d79bd85aa57c7b7b646c0757c186a316cac6ee17f5862be4e27098d25929b8e8e8e8d42604051610c6a9594939291906116eb565b60405180910390a350505050505050505050505050565b5f604051905090565b5f80fd5b5f80fd5b5f80fd5b5f80fd5b5f601f19601f8301169050919050565b7f4e487b71000000000000000000000000000000000000000000000000000000005f52604160045260245ffd5b610ce082610c9a565b810181811067ffffffffffffffff82111715610cff57610cfe610caa565b5b80604052505050565b5f610d11610c81565b9050610d1d8282610cd7565b919050565b5f67ffffffffffffffff821115610d3c57610d3b610caa565b5b610d4582610c9a565b9050602081019050919050565b828183375f83830152505050565b5f610d72610d6d84610d22565b610d08565b905082815260208101848484011115610d8e57610d8d610c96565b5b610d99848285610d52565b509392505050565b5f82601f830112610db557610db4610c92565b5b8135610dc5848260208601610d60565b91505092915050565b5f60208284031215610de357610de2610c8a565b5b5f82013567ffffffffffffffff811115610e0057610dff610c8e565b5b610e0c84828501610da1565b91505092915050565b5f81519050919050565b5f82825260208201905092915050565b5f5b83811015610e4c578082015181840152602081019050610e31565b5f8484015250505050565b5f610e6182610e15565b610e6b8185610e1f565b9350610e7b818560208601610e2f565b610e8481610c9a565b840191505092915050565b5f60a0820190508181035f830152610ea78188610e57565b90508181036020830152610ebb8187610e57565b90508181036040830152610ecf8186610e57565b90508181036060830152610ee38185610e57565b90508181036080830152610ef78184610e57565b90509695505050505050565b5f82825260208201905092915050565b5f610f1d82610e15565b610f278185610f03565b9350610f37818560208601610e2f565b610f4081610c9a565b840191505092915050565b5f60a083015f8301518482035f860152610f658282610f13565b91505060208301518482036020860152610f7f8282610f13565b91505060408301518482036040860152610f998282610f13565b91505060608301518482036060860152610fb38282610f13565b91505060808301518482036080860152610fcd8282610f13565b9150508091505092915050565b5f819050919050565b610fec81610fda565b82525050565b5f610120820190508181035f83015261100b818c610e57565b9050818103602083015261101f818b610e57565b90508181036040830152611033818a610e57565b905081810360608301526110478189610e57565b9050818103608083015261105b8188610e57565b905081810360a083015261106f8187610e57565b905081810360c08301526110838186610f4b565b905061109260e0830185610fe3565b6110a0610100830184610fe3565b9a9950505050505050505050565b5f805f805f60a086880312156110c7576110c6610c8a565b5b5f86013567ffffffffffffffff8111156110e4576110e3610c8e565b5b6110f088828901610da1565b955050602086013567ffffffffffffffff81111561111157611110610c8e565b5b61111d88828901610da1565b945050604086013567ffffffffffffffff81111561113e5761113d610c8e565b5b61114a88828901610da1565b935050606086013567ffffffffffffffff81111561116b5761116a610c8e565b5b61117788828901610da1565b925050608086013567ffffffffffffffff81111561119857611197610c8e565b5b6111a488828901610da1565b9150509295509295909350565b5f805f805f805f805f805f6101608c8e0312156111d1576111d0610c8a565b5b5f8c013567ffffffffffffffff8111156111ee576111ed610c8e565b5b6111fa8e828f01610da1565b9b505060208c013567ffffffffffffffff81111561121b5761121a610c8e565b5b6112278e828f01610da1565b9a505060408c013567ffffffffffffffff81111561124857611247610c8e565b5b6112548e828f01610da1565b99505060608c013567ffffffffffffffff81111561127557611274610c8e565b5b6112818e828f01610da1565b98505060808c013567ffffffffffffffff8111156112a2576112a1610c8e565b5b6112ae8e828f01610da1565b97505060a08c013567ffffffffffffffff8111156112cf576112ce610c8e565b5b6112db8e828f01610da1565b96505060c08c013567ffffffffffffffff8111156112fc576112fb610c8e565b5b6113088e828f01610da1565b95505060e08c013567ffffffffffffffff81111561132957611328610c8e565b5b6113358e828f01610da1565b9450506101008c013567ffffffffffffffff81111561135757611356610c8e565b5b6113638e828f01610da1565b9350506101208c013567ffffffffffffffff81111561138557611384610c8e565b5b6113918e828f01610da1565b9250506101408c013567ffffffffffffffff8111156113b3576113b2610c8e565b5b6113bf8e828f01610da1565b9150509295989b509295989b9093969950565b5f81905092915050565b5f6113e682610e15565b6113f081856113d2565b9350611400818560208601610e2f565b80840191505092915050565b5f61141782846113dc565b915081905092915050565b7f4e487b71000000000000000000000000000000000000000000000000000000005f52602260045260245ffd5b5f600282049050600182168061146657607f821691505b60208210810361147957611478611422565b5b50919050565b5f819050815f5260205f209050919050565b5f6020601f8301049050919050565b5f82821b905092915050565b5f600883026114db7fffffffffffffffffffffffffffffffffffffffffffffffffffffffffffffffff826114a0565b6114e586836114a0565b95508019841693508086168417925050509392505050565b5f819050919050565b5f61152061151b61151684610fda565b6114fd565b610fda565b9050919050565b5f819050919050565b61153983611506565b61154d61154582611527565b8484546114ac565b825550505050565b5f90565b611561611555565b61156c818484611530565b505050565b5b8181101561158f576115845f82611559565b600181019050611572565b5050565b601f8211156115d4576115a58161147f565b6115ae84611491565b810160208510156115bd578190505b6115d16115c985611491565b830182611571565b50505b505050565b5f82821c905092915050565b5f6115f45f19846008026115d9565b1980831691505092915050565b5f61160c83836115e5565b9150826002028217905092915050565b61162582610e15565b67ffffffffffffffff81111561163e5761163d610caa565b5b611648825461144f565b611653828285611593565b5f60209050601f831160018114611684575f8415611672578287015190505b61167c8582611601565b8655506116e3565b601f1984166116928661147f565b5f5b828110156116b957848901518255600182019150602085019450602081019050611694565b868310156116d657848901516116d2601f8916826115e5565b8355505b6001600288020188555050505b505050505050565b5f60a0820190508181035f8301526117038188610e57565b905081810360208301526117178187610e57565b9050818103604083015261172b8186610e57565b9050818103606083015261173f8185610e57565b905061174e6080830184610fe3565b969550505050505056fea2646970667358221220fb472edf245f7a66111d6990d7270fe1f4a5805cb67105546bcf07772b22caf264736f6c63430008180033",
					"opcodes": "PUSH1 0x80 PUSH1 0x40 MSTORE CALLVALUE DUP1 ISZERO PUSH2 0xF JUMPI PUSH0 DUP1 REVERT JUMPDEST POP PUSH2 0x178E DUP1 PUSH2 0x1D PUSH0 CODECOPY PUSH0 RETURN INVALID PUSH1 0x80 PUSH1 0x40 MSTORE CALLVALUE DUP1 ISZERO PUSH2 0xF JUMPI PUSH0 DUP1 REVERT JUMPDEST POP PUSH1 0x4 CALLDATASIZE LT PUSH2 0x4A JUMPI PUSH0 CALLDATALOAD PUSH1 0xE0 SHR DUP1 PUSH4 0x85BA074 EQ PUSH2 0x4E JUMPI DUP1 PUSH4 0x689E1C03 EQ PUSH2 0x82 JUMPI DUP1 PUSH4 0xD50F69EA EQ PUSH2 0xBA JUMPI DUP1 PUSH4 0xE37BCB3B EQ PUSH2 0xD6 JUMPI JUMPDEST PUSH0 DUP1 REVERT JUMPDEST PUSH2 0x68 PUSH1 0x4 DUP1 CALLDATASIZE SUB DUP2 ADD SWAP1 PUSH2 0x63 SWAP2 SWAP1 PUSH2 0xDCE JUMP JUMPDEST PUSH2 0xF2 JUMP JUMPDEST PUSH1 0x40 MLOAD PUSH2 0x79 SWAP6 SWAP5 SWAP4 SWAP3 SWAP2 SWAP1 PUSH2 0xE8F JUMP JUMPDEST PUSH1 0x40 MLOAD DUP1 SWAP2 SUB SWAP1 RETURN JUMPDEST PUSH2 0x9C PUSH1 0x4 DUP1 CALLDATASIZE SUB DUP2 ADD SWAP1 PUSH2 0x97 SWAP2 SWAP1 PUSH2 0xDCE JUMP JUMPDEST PUSH2 0x3F4 JUMP JUMPDEST PUSH1 0x40 MLOAD PUSH2 0xB1 SWAP10 SWAP9 SWAP8 SWAP7 SWAP6 SWAP5 SWAP4 SWAP3 SWAP2 SWAP1 PUSH2 0xFF2 JUMP JUMPDEST PUSH1 0x40 MLOAD DUP1 SWAP2 SUB SWAP1 RETURN JUMPDEST PUSH2 0xD4 PUSH1 0x4 DUP1 CALLDATASIZE SUB DUP2 ADD SWAP1 PUSH2 0xCF SWAP2 SWAP1 PUSH2 0x10AE JUMP JUMPDEST PUSH2 0xA52 JUMP JUMPDEST STOP JUMPDEST PUSH2 0xF0 PUSH1 0x4 DUP1 CALLDATASIZE SUB DUP2 ADD SWAP1 PUSH2 0xEB SWAP2 SWAP1 PUSH2 0x11B1 JUMP JUMPDEST PUSH2 0xACB JUMP JUMPDEST STOP JUMPDEST PUSH1 0x60 DUP1 PUSH1 0x60 DUP1 PUSH1 0x60 PUSH0 DUP1 DUP8 PUSH1 0x40 MLOAD PUSH2 0x10A SWAP2 SWAP1 PUSH2 0x140C JUMP JUMPDEST SWAP1 DUP2 MSTORE PUSH1 0x20 ADD PUSH1 0x40 MLOAD DUP1 SWAP2 SUB SWAP1 KECCAK256 SWAP1 POP DUP1 PUSH1 0x1 ADD DUP2 PUSH1 0x2 ADD DUP3 PUSH1 0x3 ADD DUP4 PUSH1 0x5 ADD DUP5 PUSH1 0x4 ADD DUP5 DUP1 SLOAD PUSH2 0x13A SWAP1 PUSH2 0x144F JUMP JUMPDEST DUP1 PUSH1 0x1F ADD PUSH1 0x20 DUP1 SWAP2 DIV MUL PUSH1 0x20 ADD PUSH1 0x40 MLOAD SWAP1 DUP2 ADD PUSH1 0x40 MSTORE DUP1 SWAP3 SWAP2 SWAP1 DUP2 DUP2 MSTORE PUSH1 0x20 ADD DUP3 DUP1 SLOAD PUSH2 0x166 SWAP1 PUSH2 0x144F JUMP JUMPDEST DUP1 ISZERO PUSH2 0x1B1 JUMPI DUP1 PUSH1 0x1F LT PUSH2 0x188 JUMPI PUSH2 0x100 DUP1 DUP4 SLOAD DIV MUL DUP4 MSTORE SWAP2 PUSH1 0x20 ADD SWAP2 PUSH2 0x1B1 JUMP JUMPDEST DUP3 ADD SWAP2 SWAP1 PUSH0 MSTORE PUSH1 0x20 PUSH0 KECCAK256 SWAP1 JUMPDEST DUP2 SLOAD DUP2 MSTORE SWAP1 PUSH1 0x1 ADD SWAP1 PUSH1 0x20 ADD DUP1 DUP4 GT PUSH2 0x194 JUMPI DUP3 SWAP1 SUB PUSH1 0x1F AND DUP3 ADD SWAP2 JUMPDEST POP POP POP POP POP SWAP5 POP DUP4 DUP1 SLOAD PUSH2 0x1C4 SWAP1 PUSH2 0x144F JUMP JUMPDEST DUP1 PUSH1 0x1F ADD PUSH1 0x20 DUP1 SWAP2 DIV MUL PUSH1 0x20 ADD PUSH1 0x40 MLOAD SWAP1 DUP2 ADD PUSH1 0x40 MSTORE DUP1 SWAP3 SWAP2 SWAP1 DUP2 DUP2 MSTORE PUSH1 0x20 ADD DUP3 DUP1 SLOAD PUSH2 0x1F0 SWAP1 PUSH2 0x144F JUMP JUMPDEST DUP1 ISZERO PUSH2 0x23B JUMPI DUP1 PUSH1 0x1F LT PUSH2 0x212 JUMPI PUSH2 0x100 DUP1 DUP4 SLOAD DIV MUL DUP4 MSTORE SWAP2 PUSH1 0x20 ADD SWAP2 PUSH2 0x23B JUMP JUMPDEST DUP3 ADD SWAP2 SWAP1 PUSH0 MSTORE PUSH1 0x20 PUSH0 KECCAK256 SWAP1 JUMPDEST DUP2 SLOAD DUP2 MSTORE SWAP1 PUSH1 0x1 ADD SWAP1 PUSH1 0x20 ADD DUP1 DUP4 GT PUSH2 0x21E JUMPI DUP3 SWAP1 SUB PUSH1 0x1F AND DUP3 ADD SWAP2 JUMPDEST POP POP POP POP POP SWAP4 POP DUP3 DUP1 SLOAD PUSH2 0x24E SWAP1 PUSH2 0x144F JUMP JUMPDEST DUP1 PUSH1 0x1F ADD PUSH1 0x20 DUP1 SWAP2 DIV MUL PUSH1 0x20 ADD PUSH1 0x40 MLOAD SWAP1 DUP2 ADD PUSH1 0x40 MSTORE DUP1 SWAP3 SWAP2 SWAP1 DUP2 DUP2 MSTORE PUSH1 0x20 ADD DUP3 DUP1 SLOAD PUSH2 0x27A SWAP1 PUSH2 0x144F JUMP JUMPDEST DUP1 ISZERO PUSH2 0x2C5 JUMPI DUP1 PUSH1 0x1F LT PUSH2 0x29C JUMPI PUSH2 0x100 DUP1 DUP4 SLOAD DIV MUL DUP4 MSTORE SWAP2 PUSH1 0x20 ADD SWAP2 PUSH2 0x2C5 JUMP JUMPDEST DUP3 ADD SWAP2 SWAP1 PUSH0 MSTORE PUSH1 0x20 PUSH0 KECCAK256 SWAP1 JUMPDEST DUP2 SLOAD DUP2 MSTORE SWAP1 PUSH1 0x1 ADD SWAP1 PUSH1 0x20 ADD DUP1 DUP4 GT PUSH2 0x2A8 JUMPI DUP3 SWAP1 SUB PUSH1 0x1F AND DUP3 ADD SWAP2 JUMPDEST POP POP POP POP POP SWAP3 POP DUP2 DUP1 SLOAD PUSH2 0x2D8 SWAP1 PUSH2 0x144F JUMP JUMPDEST DUP1 PUSH1 0x1F ADD PUSH1 0x20 DUP1 SWAP2 DIV MUL PUSH1 0x20 ADD PUSH1 0x40 MLOAD SWAP1 DUP2 ADD PUSH1 0x40 MSTORE DUP1 SWAP3 SWAP2 SWAP1 DUP2 DUP2 MSTORE PUSH1 0x20 ADD DUP3 DUP1 SLOAD PUSH2 0x304 SWAP1 PUSH2 0x144F JUMP JUMPDEST DUP1 ISZERO PUSH2 0x34F JUMPI DUP1 PUSH1 0x1F LT PUSH2 0x326 JUMPI PUSH2 0x100 DUP1 DUP4 SLOAD DIV MUL DUP4 MSTORE SWAP2 PUSH1 0x20 ADD SWAP2 PUSH2 0x34F JUMP JUMPDEST DUP3 ADD SWAP2 SWAP1 PUSH0 MSTORE PUSH1 0x20 PUSH0 KECCAK256 SWAP1 JUMPDEST DUP2 SLOAD DUP2 MSTORE SWAP1 PUSH1 0x1 ADD SWAP1 PUSH1 0x20 ADD DUP1 DUP4 GT PUSH2 0x332 JUMPI DUP3 SWAP1 SUB PUSH1 0x1F AND DUP3 ADD SWAP2 JUMPDEST POP POP POP POP POP SWAP2 POP DUP1 DUP1 SLOAD PUSH2 0x362 SWAP1 PUSH2 0x144F JUMP JUMPDEST DUP1 PUSH1 0x1F ADD PUSH1 0x20 DUP1 SWAP2 DIV MUL PUSH1 0x20 ADD PUSH1 0x40 MLOAD SWAP1 DUP2 ADD PUSH1 0x40 MSTORE DUP1 SWAP3 SWAP2 SWAP1 DUP2 DUP2 MSTORE PUSH1 0x20 ADD DUP3 DUP1 SLOAD PUSH2 0x38E SWAP1 PUSH2 0x144F JUMP JUMPDEST DUP1 ISZERO PUSH2 0x3D9 JUMPI DUP1 PUSH1 0x1F LT PUSH2 0x3B0 JUMPI PUSH2 0x100 DUP1 DUP4 SLOAD DIV MUL DUP4 MSTORE SWAP2 PUSH1 0x20 ADD SWAP2 PUSH2 0x3D9 JUMP JUMPDEST DUP3 ADD SWAP2 SWAP1 PUSH0 MSTORE PUSH1 0x20 PUSH0 KECCAK256 SWAP1 JUMPDEST DUP2 SLOAD DUP2 MSTORE SWAP1 PUSH1 0x1 ADD SWAP1 PUSH1 0x20 ADD DUP1 DUP4 GT PUSH2 0x3BC JUMPI DUP3 SWAP1 SUB PUSH1 0x1F AND DUP3 ADD SWAP2 JUMPDEST POP POP POP POP POP SWAP1 POP SWAP6 POP SWAP6 POP SWAP6 POP SWAP6 POP SWAP6 POP POP SWAP2 SWAP4 SWAP6 SWAP1 SWAP3 SWAP5 POP JUMP JUMPDEST PUSH0 DUP2 DUP1 MLOAD PUSH1 0x20 DUP2 ADD DUP3 ADD DUP1 MLOAD DUP5 DUP3 MSTORE PUSH1 0x20 DUP4 ADD PUSH1 0x20 DUP6 ADD KECCAK256 DUP2 DUP4 MSTORE DUP1 SWAP6 POP POP POP POP POP POP PUSH0 SWAP2 POP SWAP1 POP DUP1 PUSH0 ADD DUP1 SLOAD PUSH2 0x42A SWAP1 PUSH2 0x144F JUMP JUMPDEST DUP1 PUSH1 0x1F ADD PUSH1 0x20 DUP1 SWAP2 DIV MUL PUSH1 0x20 ADD PUSH1 0x40 MLOAD SWAP1 DUP2 ADD PUSH1 0x40 MSTORE DUP1 SWAP3 SWAP2 SWAP1 DUP2 DUP2 MSTORE PUSH1 0x20 ADD DUP3 DUP1 SLOAD PUSH2 0x456 SWAP1 PUSH2 0x144F JUMP JUMPDEST DUP1 ISZERO PUSH2 0x4A1 JUMPI DUP1 PUSH1 0x1F LT PUSH2 0x478 JUMPI PUSH2 0x100 DUP1 DUP4 SLOAD DIV MUL DUP4 MSTORE SWAP2 PUSH1 0x20 ADD SWAP2 PUSH2 0x4A1 JUMP JUMPDEST DUP3 ADD SWAP2 SWAP1 PUSH0 MSTORE PUSH1 0x20 PUSH0 KECCAK256 SWAP1 JUMPDEST DUP2 SLOAD DUP2 MSTORE SWAP1 PUSH1 0x1 ADD SWAP1 PUSH1 0x20 ADD DUP1 DUP4 GT PUSH2 0x484 JUMPI DUP3 SWAP1 SUB PUSH1 0x1F AND DUP3 ADD SWAP2 JUMPDEST POP POP POP POP POP SWAP1 DUP1 PUSH1 0x1 ADD DUP1 SLOAD PUSH2 0x4B6 SWAP1 PUSH2 0x144F JUMP JUMPDEST DUP1 PUSH1 0x1F ADD PUSH1 0x20 DUP1 SWAP2 DIV MUL PUSH1 0x20 ADD PUSH1 0x40 MLOAD SWAP1 DUP2 ADD PUSH1 0x40 MSTORE DUP1 SWAP3 SWAP2 SWAP1 DUP2 DUP2 MSTORE PUSH1 0x20 ADD DUP3 DUP1 SLOAD PUSH2 0x4E2 SWAP1 PUSH2 0x144F JUMP JUMPDEST DUP1 ISZERO PUSH2 0x52D JUMPI DUP1 PUSH1 0x1F LT PUSH2 0x504 JUMPI PUSH2 0x100 DUP1 DUP4 SLOAD DIV MUL DUP4 MSTORE SWAP2 PUSH1 0x20 ADD SWAP2 PUSH2 0x52D JUMP JUMPDEST DUP3 ADD SWAP2 SWAP1 PUSH0 MSTORE PUSH1 0x20 PUSH0 KECCAK256 SWAP1 JUMPDEST DUP2 SLOAD DUP2 MSTORE SWAP1 PUSH1 0x1 ADD SWAP1 PUSH1 0x20 ADD DUP1 DUP4 GT PUSH2 0x510 JUMPI DUP3 SWAP1 SUB PUSH1 0x1F AND DUP3 ADD SWAP2 JUMPDEST POP POP POP POP POP SWAP1 DUP1 PUSH1 0x2 ADD DUP1 SLOAD PUSH2 0x542 SWAP1 PUSH2 0x144F JUMP JUMPDEST DUP1 PUSH1 0x1F ADD PUSH1 0x20 DUP1 SWAP2 DIV MUL PUSH1 0x20 ADD PUSH1 0x40 MLOAD SWAP1 DUP2 ADD PUSH1 0x40 MSTORE DUP1 SWAP3 SWAP2 SWAP1 DUP2 DUP2 MSTORE PUSH1 0x20 ADD DUP3 DUP1 SLOAD PUSH2 0x56E SWAP1 PUSH2 0x144F JUMP JUMPDEST DUP1 ISZERO PUSH2 0x5B9 JUMPI DUP1 PUSH1 0x1F LT PUSH2 0x590 JUMPI PUSH2 0x100 DUP1 DUP4 SLOAD DIV MUL DUP4 MSTORE SWAP2 PUSH1 0x20 ADD SWAP2 PUSH2 0x5B9 JUMP JUMPDEST DUP3 ADD SWAP2 SWAP1 PUSH0 MSTORE PUSH1 0x20 PUSH0 KECCAK256 SWAP1 JUMPDEST DUP2 SLOAD DUP2 MSTORE SWAP1 PUSH1 0x1 ADD SWAP1 PUSH1 0x20 ADD DUP1 DUP4 GT PUSH2 0x59C JUMPI DUP3 SWAP1 SUB PUSH1 0x1F AND DUP3 ADD SWAP2 JUMPDEST POP POP POP POP POP SWAP1 DUP1 PUSH1 0x3 ADD DUP1 SLOAD PUSH2 0x5CE SWAP1 PUSH2 0x144F JUMP JUMPDEST DUP1 PUSH1 0x1F ADD PUSH1 0x20 DUP1 SWAP2 DIV MUL PUSH1 0x20 ADD PUSH1 0x40 MLOAD SWAP1 DUP2 ADD PUSH1 0x40 MSTORE DUP1 SWAP3 SWAP2 SWAP1 DUP2 DUP2 MSTORE PUSH1 0x20 ADD DUP3 DUP1 SLOAD PUSH2 0x5FA SWAP1 PUSH2 0x144F JUMP JUMPDEST DUP1 ISZERO PUSH2 0x645 JUMPI DUP1 PUSH1 0x1F LT PUSH2 0x61C JUMPI PUSH2 0x100 DUP1 DUP4 SLOAD DIV MUL DUP4 MSTORE SWAP2 PUSH1 0x20 ADD SWAP2 PUSH2 0x645 JUMP JUMPDEST DUP3 ADD SWAP2 SWAP1 PUSH0 MSTORE PUSH1 0x20 PUSH0 KECCAK256 SWAP1 JUMPDEST DUP2 SLOAD DUP2 MSTORE SWAP1 PUSH1 0x1 ADD SWAP1 PUSH1 0x20 ADD DUP1 DUP4 GT PUSH2 0x628 JUMPI DUP3 SWAP1 SUB PUSH1 0x1F AND DUP3 ADD SWAP2 JUMPDEST POP POP POP POP POP SWAP1 DUP1 PUSH1 0x4 ADD DUP1 SLOAD PUSH2 0x65A SWAP1 PUSH2 0x144F JUMP JUMPDEST DUP1 PUSH1 0x1F ADD PUSH1 0x20 DUP1 SWAP2 DIV MUL PUSH1 0x20 ADD PUSH1 0x40 MLOAD SWAP1 DUP2 ADD PUSH1 0x40 MSTORE DUP1 SWAP3 SWAP2 SWAP1 DUP2 DUP2 MSTORE PUSH1 0x20 ADD DUP3 DUP1 SLOAD PUSH2 0x686 SWAP1 PUSH2 0x144F JUMP JUMPDEST DUP1 ISZERO PUSH2 0x6D1 JUMPI DUP1 PUSH1 0x1F LT PUSH2 0x6A8 JUMPI PUSH2 0x100 DUP1 DUP4 SLOAD DIV MUL DUP4 MSTORE SWAP2 PUSH1 0x20 ADD SWAP2 PUSH2 0x6D1 JUMP JUMPDEST DUP3 ADD SWAP2 SWAP1 PUSH0 MSTORE PUSH1 0x20 PUSH0 KECCAK256 SWAP1 JUMPDEST DUP2 SLOAD DUP2 MSTORE SWAP1 PUSH1 0x1 ADD SWAP1 PUSH1 0x20 ADD DUP1 DUP4 GT PUSH2 0x6B4 JUMPI DUP3 SWAP1 SUB PUSH1 0x1F AND DUP3 ADD SWAP2 JUMPDEST POP POP POP POP POP SWAP1 DUP1 PUSH1 0x5 ADD DUP1 SLOAD PUSH2 0x6E6 SWAP1 PUSH2 0x144F JUMP JUMPDEST DUP1 PUSH1 0x1F ADD PUSH1 0x20 DUP1 SWAP2 DIV MUL PUSH1 0x20 ADD PUSH1 0x40 MLOAD SWAP1 DUP2 ADD PUSH1 0x40 MSTORE DUP1 SWAP3 SWAP2 SWAP1 DUP2 DUP2 MSTORE PUSH1 0x20 ADD DUP3 DUP1 SLOAD PUSH2 0x712 SWAP1 PUSH2 0x144F JUMP JUMPDEST DUP1 ISZERO PUSH2 0x75D JUMPI DUP1 PUSH1 0x1F LT PUSH2 0x734 JUMPI PUSH2 0x100 DUP1 DUP4 SLOAD DIV MUL DUP4 MSTORE SWAP2 PUSH1 0x20 ADD SWAP2 PUSH2 0x75D JUMP JUMPDEST DUP3 ADD SWAP2 SWAP1 PUSH0 MSTORE PUSH1 0x20 PUSH0 KECCAK256 SWAP1 JUMPDEST DUP2 SLOAD DUP2 MSTORE SWAP1 PUSH1 0x1 ADD SWAP1 PUSH1 0x20 ADD DUP1 DUP4 GT PUSH2 0x740 JUMPI DUP3 SWAP1 SUB PUSH1 0x1F AND DUP3 ADD SWAP2 JUMPDEST POP POP POP POP POP SWAP1 DUP1 PUSH1 0x6 ADD PUSH1 0x40 MLOAD DUP1 PUSH1 0xA0 ADD PUSH1 0x40 MSTORE SWAP1 DUP2 PUSH0 DUP3 ADD DUP1 SLOAD PUSH2 0x781 SWAP1 PUSH2 0x144F JUMP JUMPDEST DUP1 PUSH1 0x1F ADD PUSH1 0x20 DUP1 SWAP2 DIV MUL PUSH1 0x20 ADD PUSH1 0x40 MLOAD SWAP1 DUP2 ADD PUSH1 0x40 MSTORE DUP1 SWAP3 SWAP2 SWAP1 DUP2 DUP2 MSTORE PUSH1 0x20 ADD DUP3 DUP1 SLOAD PUSH2 0x7AD SWAP1 PUSH2 0x144F JUMP JUMPDEST DUP1 ISZERO PUSH2 0x7F8 JUMPI DUP1 PUSH1 0x1F LT PUSH2 0x7CF JUMPI PUSH2 0x100 DUP1 DUP4 SLOAD DIV MUL DUP4 MSTORE SWAP2 PUSH1 0x20 ADD SWAP2 PUSH2 0x7F8 JUMP JUMPDEST DUP3 ADD SWAP2 SWAP1 PUSH0 MSTORE PUSH1 0x20 PUSH0 KECCAK256 SWAP1 JUMPDEST DUP2 SLOAD DUP2 MSTORE SWAP1 PUSH1 0x1 ADD SWAP1 PUSH1 0x20 ADD DUP1 DUP4 GT PUSH2 0x7DB JUMPI DUP3 SWAP1 SUB PUSH1 0x1F AND DUP3 ADD SWAP2 JUMPDEST POP POP POP POP POP DUP2 MSTORE PUSH1 0x20 ADD PUSH1 0x1 DUP3 ADD DUP1 SLOAD PUSH2 0x811 SWAP1 PUSH2 0x144F JUMP JUMPDEST DUP1 PUSH1 0x1F ADD PUSH1 0x20 DUP1 SWAP2 DIV MUL PUSH1 0x20 ADD PUSH1 0x40 MLOAD SWAP1 DUP2 ADD PUSH1 0x40 MSTORE DUP1 SWAP3 SWAP2 SWAP1 DUP2 DUP2 MSTORE PUSH1 0x20 ADD DUP3 DUP1 SLOAD PUSH2 0x83D SWAP1 PUSH2 0x144F JUMP JUMPDEST DUP1 ISZERO PUSH2 0x888 JUMPI DUP1 PUSH1 0x1F LT PUSH2 0x85F JUMPI PUSH2 0x100 DUP1 DUP4 SLOAD DIV MUL DUP4 MSTORE SWAP2 PUSH1 0x20 ADD SWAP2 PUSH2 0x888 JUMP JUMPDEST DUP3 ADD SWAP2 SWAP1 PUSH0 MSTORE PUSH1 0x20 PUSH0 KECCAK256 SWAP1 JUMPDEST DUP2 SLOAD DUP2 MSTORE SWAP1 PUSH1 0x1 ADD SWAP1 PUSH1 0x20 ADD DUP1 DUP4 GT PUSH2 0x86B JUMPI DUP3 SWAP1 SUB PUSH1 0x1F AND DUP3 ADD SWAP2 JUMPDEST POP POP POP POP POP DUP2 MSTORE PUSH1 0x20 ADD PUSH1 0x2 DUP3 ADD DUP1 SLOAD PUSH2 0x8A1 SWAP1 PUSH2 0x144F JUMP JUMPDEST DUP1 PUSH1 0x1F ADD PUSH1 0x20 DUP1 SWAP2 DIV MUL PUSH1 0x20 ADD PUSH1 0x40 MLOAD SWAP1 DUP2 ADD PUSH1 0x40 MSTORE DUP1 SWAP3 SWAP2 SWAP1 DUP2 DUP2 MSTORE PUSH1 0x20 ADD DUP3 DUP1 SLOAD PUSH2 0x8CD SWAP1 PUSH2 0x144F JUMP JUMPDEST DUP1 ISZERO PUSH2 0x918 JUMPI DUP1 PUSH1 0x1F LT PUSH2 0x8EF JUMPI PUSH2 0x100 DUP1 DUP4 SLOAD DIV MUL DUP4 MSTORE SWAP2 PUSH1 0x20 ADD SWAP2 PUSH2 0x918 JUMP JUMPDEST DUP3 ADD SWAP2 SWAP1 PUSH0 MSTORE PUSH1 0x20 PUSH0 KECCAK256 SWAP1 JUMPDEST DUP2 SLOAD DUP2 MSTORE SWAP1 PUSH1 0x1 ADD SWAP1 PUSH1 0x20 ADD DUP1 DUP4 GT PUSH2 0x8FB JUMPI DUP3 SWAP1 SUB PUSH1 0x1F AND DUP3 ADD SWAP2 JUMPDEST POP POP POP POP POP DUP2 MSTORE PUSH1 0x20 ADD PUSH1 0x3 DUP3 ADD DUP1 SLOAD PUSH2 0x931 SWAP1 PUSH2 0x144F JUMP JUMPDEST DUP1 PUSH1 0x1F ADD PUSH1 0x20 DUP1 SWAP2 DIV MUL PUSH1 0x20 ADD PUSH1 0x40 MLOAD SWAP1 DUP2 ADD PUSH1 0x40 MSTORE DUP1 SWAP3 SWAP2 SWAP1 DUP2 DUP2 MSTORE PUSH1 0x20 ADD DUP3 DUP1 SLOAD PUSH2 0x95D SWAP1 PUSH2 0x144F JUMP JUMPDEST DUP1 ISZERO PUSH2 0x9A8 JUMPI DUP1 PUSH1 0x1F LT PUSH2 0x97F JUMPI PUSH2 0x100 DUP1 DUP4 SLOAD DIV MUL DUP4 MSTORE SWAP2 PUSH1 0x20 ADD SWAP2 PUSH2 0x9A8 JUMP JUMPDEST DUP3 ADD SWAP2 SWAP1 PUSH0 MSTORE PUSH1 0x20 PUSH0 KECCAK256 SWAP1 JUMPDEST DUP2 SLOAD DUP2 MSTORE SWAP1 PUSH1 0x1 ADD SWAP1 PUSH1 0x20 ADD DUP1 DUP4 GT PUSH2 0x98B JUMPI DUP3 SWAP1 SUB PUSH1 0x1F AND DUP3 ADD SWAP2 JUMPDEST POP POP POP POP POP DUP2 MSTORE PUSH1 0x20 ADD PUSH1 0x4 DUP3 ADD DUP1 SLOAD PUSH2 0x9C1 SWAP1 PUSH2 0x144F JUMP JUMPDEST DUP1 PUSH1 0x1F ADD PUSH1 0x20 DUP1 SWAP2 DIV MUL PUSH1 0x20 ADD PUSH1 0x40 MLOAD SWAP1 DUP2 ADD PUSH1 0x40 MSTORE DUP1 SWAP3 SWAP2 SWAP1 DUP2 DUP2 MSTORE PUSH1 0x20 ADD DUP3 DUP1 SLOAD PUSH2 0x9ED SWAP1 PUSH2 0x144F JUMP JUMPDEST DUP1 ISZERO PUSH2 0xA38 JUMPI DUP1 PUSH1 0x1F LT PUSH2 0xA0F JUMPI PUSH2 0x100 DUP1 DUP4 SLOAD DIV MUL DUP4 MSTORE SWAP2 PUSH1 0x20 ADD SWAP2 PUSH2 0xA38 JUMP JUMPDEST DUP3 ADD SWAP2 SWAP1 PUSH0 MSTORE PUSH1 0x20 PUSH0 KECCAK256 SWAP1 JUMPDEST DUP2 SLOAD DUP2 MSTORE SWAP1 PUSH1 0x1 ADD SWAP1 PUSH1 0x20 ADD DUP1 DUP4 GT PUSH2 0xA1B JUMPI DUP3 SWAP1 SUB PUSH1 0x1F AND DUP3 ADD SWAP2 JUMPDEST POP POP POP POP POP DUP2 MSTORE POP POP SWAP1 DUP1 PUSH1 0xB ADD SLOAD SWAP1 DUP1 PUSH1 0xC ADD SLOAD SWAP1 POP DUP10 JUMP JUMPDEST PUSH0 DUP1 DUP7 PUSH1 0x40 MLOAD PUSH2 0xA62 SWAP2 SWAP1 PUSH2 0x140C JUMP JUMPDEST SWAP1 DUP2 MSTORE PUSH1 0x20 ADD PUSH1 0x40 MLOAD DUP1 SWAP2 SUB SWAP1 KECCAK256 SWAP1 POP DUP5 DUP2 PUSH1 0x1 ADD SWAP1 DUP2 PUSH2 0xA83 SWAP2 SWAP1 PUSH2 0x161C JUMP JUMPDEST POP DUP4 DUP2 PUSH1 0x2 ADD SWAP1 DUP2 PUSH2 0xA95 SWAP2 SWAP1 PUSH2 0x161C JUMP JUMPDEST POP DUP3 DUP2 PUSH1 0x3 ADD SWAP1 DUP2 PUSH2 0xAA7 SWAP2 SWAP1 PUSH2 0x161C JUMP JUMPDEST POP DUP2 DUP2 PUSH1 0x5 ADD SWAP1 DUP2 PUSH2 0xAB9 SWAP2 SWAP1 PUSH2 0x161C JUMP JUMPDEST POP TIMESTAMP DUP2 PUSH1 0xC ADD DUP2 SWAP1 SSTORE POP POP POP POP POP POP POP JUMP JUMPDEST PUSH0 CALLER SWAP1 POP PUSH0 DUP1 DUP14 PUSH1 0x40 MLOAD PUSH2 0xADF SWAP2 SWAP1 PUSH2 0x140C JUMP JUMPDEST SWAP1 DUP2 MSTORE PUSH1 0x20 ADD PUSH1 0x40 MLOAD DUP1 SWAP2 SUB SWAP1 KECCAK256 SWAP1 POP DUP13 DUP2 PUSH0 ADD SWAP1 DUP2 PUSH2 0xAFF SWAP2 SWAP1 PUSH2 0x161C JUMP JUMPDEST POP DUP12 DUP2 PUSH1 0x1 ADD SWAP1 DUP2 PUSH2 0xB11 SWAP2 SWAP1 PUSH2 0x161C JUMP JUMPDEST POP DUP11 DUP2 PUSH1 0x2 ADD SWAP1 DUP2 PUSH2 0xB23 SWAP2 SWAP1 PUSH2 0x161C JUMP JUMPDEST POP DUP10 DUP2 PUSH1 0x3 ADD SWAP1 DUP2 PUSH2 0xB35 SWAP2 SWAP1 PUSH2 0x161C JUMP JUMPDEST POP DUP9 DUP2 PUSH1 0x4 ADD SWAP1 DUP2 PUSH2 0xB47 SWAP2 SWAP1 PUSH2 0x161C JUMP JUMPDEST POP DUP8 DUP2 PUSH1 0x5 ADD SWAP1 DUP2 PUSH2 0xB59 SWAP2 SWAP1 PUSH2 0x161C JUMP JUMPDEST POP PUSH1 0x40 MLOAD DUP1 PUSH1 0xA0 ADD PUSH1 0x40 MSTORE DUP1 DUP9 DUP2 MSTORE PUSH1 0x20 ADD DUP8 DUP2 MSTORE PUSH1 0x20 ADD DUP7 DUP2 MSTORE PUSH1 0x20 ADD DUP6 DUP2 MSTORE PUSH1 0x20 ADD DUP5 DUP2 MSTORE POP DUP2 PUSH1 0x6 ADD PUSH0 DUP3 ADD MLOAD DUP2 PUSH0 ADD SWAP1 DUP2 PUSH2 0xB98 SWAP2 SWAP1 PUSH2 0x161C JUMP JUMPDEST POP PUSH1 0x20 DUP3 ADD MLOAD DUP2 PUSH1 0x1 ADD SWAP1 DUP2 PUSH2 0xBAE SWAP2 SWAP1 PUSH2 0x161C JUMP JUMPDEST POP PUSH1 0x40 DUP3 ADD MLOAD DUP2 PUSH1 0x2 ADD SWAP1 DUP2 PUSH2 0xBC4 SWAP2 SWAP1 PUSH2 0x161C JUMP JUMPDEST POP PUSH1 0x60 DUP3 ADD MLOAD DUP2 PUSH1 0x3 ADD SWAP1 DUP2 PUSH2 0xBDA SWAP2 SWAP1 PUSH2 0x161C JUMP JUMPDEST POP PUSH1 0x80 DUP3 ADD MLOAD DUP2 PUSH1 0x4 ADD SWAP1 DUP2 PUSH2 0xBF0 SWAP2 SWAP1 PUSH2 0x161C JUMP JUMPDEST POP SWAP1 POP POP TIMESTAMP DUP2 PUSH1 0xB ADD DUP2 SWAP1 SSTORE POP TIMESTAMP DUP2 PUSH1 0xC ADD DUP2 SWAP1 SSTORE POP DUP2 PUSH20 0xFFFFFFFFFFFFFFFFFFFFFFFFFFFFFFFFFFFFFFFF AND DUP14 PUSH1 0x40 MLOAD PUSH2 0xC2B SWAP2 SWAP1 PUSH2 0x140C JUMP JUMPDEST PUSH1 0x40 MLOAD DUP1 SWAP2 SUB SWAP1 KECCAK256 PUSH32 0xB64D79BD85AA57C7B7B646C0757C186A316CAC6EE17F5862BE4E27098D25929B DUP15 DUP15 DUP15 DUP14 TIMESTAMP PUSH1 0x40 MLOAD PUSH2 0xC6A SWAP6 SWAP5 SWAP4 SWAP3 SWAP2 SWAP1 PUSH2 0x16EB JUMP JUMPDEST PUSH1 0x40 MLOAD DUP1 SWAP2 SUB SWAP1 LOG3 POP POP POP POP POP POP POP POP POP POP POP POP POP JUMP JUMPDEST PUSH0 PUSH1 0x40 MLOAD SWAP1 POP SWAP1 JUMP JUMPDEST PUSH0 DUP1 REVERT JUMPDEST PUSH0 DUP1 REVERT JUMPDEST PUSH0 DUP1 REVERT JUMPDEST PUSH0 DUP1 REVERT JUMPDEST PUSH0 PUSH1 0x1F NOT PUSH1 0x1F DUP4 ADD AND SWAP1 POP SWAP2 SWAP1 POP JUMP JUMPDEST PUSH32 0x4E487B7100000000000000000000000000000000000000000000000000000000 PUSH0 MSTORE PUSH1 0x41 PUSH1 0x4 MSTORE PUSH1 0x24 PUSH0 REVERT JUMPDEST PUSH2 0xCE0 DUP3 PUSH2 0xC9A JUMP JUMPDEST DUP2 ADD DUP2 DUP2 LT PUSH8 0xFFFFFFFFFFFFFFFF DUP3 GT OR ISZERO PUSH2 0xCFF JUMPI PUSH2 0xCFE PUSH2 0xCAA JUMP JUMPDEST JUMPDEST DUP1 PUSH1 0x40 MSTORE POP POP POP JUMP JUMPDEST PUSH0 PUSH2 0xD11 PUSH2 0xC81 JUMP JUMPDEST SWAP1 POP PUSH2 0xD1D DUP3 DUP3 PUSH2 0xCD7 JUMP JUMPDEST SWAP2 SWAP1 POP JUMP JUMPDEST PUSH0 PUSH8 0xFFFFFFFFFFFFFFFF DUP3 GT ISZERO PUSH2 0xD3C JUMPI PUSH2 0xD3B PUSH2 0xCAA JUMP JUMPDEST JUMPDEST PUSH2 0xD45 DUP3 PUSH2 0xC9A JUMP JUMPDEST SWAP1 POP PUSH1 0x20 DUP2 ADD SWAP1 POP SWAP2 SWAP1 POP JUMP JUMPDEST DUP3 DUP2 DUP4 CALLDATACOPY PUSH0 DUP4 DUP4 ADD MSTORE POP POP POP JUMP JUMPDEST PUSH0 PUSH2 0xD72 PUSH2 0xD6D DUP5 PUSH2 0xD22 JUMP JUMPDEST PUSH2 0xD08 JUMP JUMPDEST SWAP1 POP DUP3 DUP2 MSTORE PUSH1 0x20 DUP2 ADD DUP5 DUP5 DUP5 ADD GT ISZERO PUSH2 0xD8E JUMPI PUSH2 0xD8D PUSH2 0xC96 JUMP JUMPDEST JUMPDEST PUSH2 0xD99 DUP5 DUP3 DUP6 PUSH2 0xD52 JUMP JUMPDEST POP SWAP4 SWAP3 POP POP POP JUMP JUMPDEST PUSH0 DUP3 PUSH1 0x1F DUP4 ADD SLT PUSH2 0xDB5 JUMPI PUSH2 0xDB4 PUSH2 0xC92 JUMP JUMPDEST JUMPDEST DUP2 CALLDATALOAD PUSH2 0xDC5 DUP5 DUP3 PUSH1 0x20 DUP7 ADD PUSH2 0xD60 JUMP JUMPDEST SWAP2 POP POP SWAP3 SWAP2 POP POP JUMP JUMPDEST PUSH0 PUSH1 0x20 DUP3 DUP5 SUB SLT ISZERO PUSH2 0xDE3 JUMPI PUSH2 0xDE2 PUSH2 0xC8A JUMP JUMPDEST JUMPDEST PUSH0 DUP3 ADD CALLDATALOAD PUSH8 0xFFFFFFFFFFFFFFFF DUP2 GT ISZERO PUSH2 0xE00 JUMPI PUSH2 0xDFF PUSH2 0xC8E JUMP JUMPDEST JUMPDEST PUSH2 0xE0C DUP5 DUP3 DUP6 ADD PUSH2 0xDA1 JUMP JUMPDEST SWAP2 POP POP SWAP3 SWAP2 POP POP JUMP JUMPDEST PUSH0 DUP2 MLOAD SWAP1 POP SWAP2 SWAP1 POP JUMP JUMPDEST PUSH0 DUP3 DUP3 MSTORE PUSH1 0x20 DUP3 ADD SWAP1 POP SWAP3 SWAP2 POP POP JUMP JUMPDEST PUSH0 JUMPDEST DUP4 DUP2 LT ISZERO PUSH2 0xE4C JUMPI DUP1 DUP3 ADD MLOAD DUP2 DUP5 ADD MSTORE PUSH1 0x20 DUP2 ADD SWAP1 POP PUSH2 0xE31 JUMP JUMPDEST PUSH0 DUP5 DUP5 ADD MSTORE POP POP POP POP JUMP JUMPDEST PUSH0 PUSH2 0xE61 DUP3 PUSH2 0xE15 JUMP JUMPDEST PUSH2 0xE6B DUP2 DUP6 PUSH2 0xE1F JUMP JUMPDEST SWAP4 POP PUSH2 0xE7B DUP2 DUP6 PUSH1 0x20 DUP7 ADD PUSH2 0xE2F JUMP JUMPDEST PUSH2 0xE84 DUP2 PUSH2 0xC9A JUMP JUMPDEST DUP5 ADD SWAP2 POP POP SWAP3 SWAP2 POP POP JUMP JUMPDEST PUSH0 PUSH1 0xA0 DUP3 ADD SWAP1 POP DUP2 DUP2 SUB PUSH0 DUP4 ADD MSTORE PUSH2 0xEA7 DUP2 DUP9 PUSH2 0xE57 JUMP JUMPDEST SWAP1 POP DUP2 DUP2 SUB PUSH1 0x20 DUP4 ADD MSTORE PUSH2 0xEBB DUP2 DUP8 PUSH2 0xE57 JUMP JUMPDEST SWAP1 POP DUP2 DUP2 SUB PUSH1 0x40 DUP4 ADD MSTORE PUSH2 0xECF DUP2 DUP7 PUSH2 0xE57 JUMP JUMPDEST SWAP1 POP DUP2 DUP2 SUB PUSH1 0x60 DUP4 ADD MSTORE PUSH2 0xEE3 DUP2 DUP6 PUSH2 0xE57 JUMP JUMPDEST SWAP1 POP DUP2 DUP2 SUB PUSH1 0x80 DUP4 ADD MSTORE PUSH2 0xEF7 DUP2 DUP5 PUSH2 0xE57 JUMP JUMPDEST SWAP1 POP SWAP7 SWAP6 POP POP POP POP POP POP JUMP JUMPDEST PUSH0 DUP3 DUP3 MSTORE PUSH1 0x20 DUP3 ADD SWAP1 POP SWAP3 SWAP2 POP POP JUMP JUMPDEST PUSH0 PUSH2 0xF1D DUP3 PUSH2 0xE15 JUMP JUMPDEST PUSH2 0xF27 DUP2 DUP6 PUSH2 0xF03 JUMP JUMPDEST SWAP4 POP PUSH2 0xF37 DUP2 DUP6 PUSH1 0x20 DUP7 ADD PUSH2 0xE2F JUMP JUMPDEST PUSH2 0xF40 DUP2 PUSH2 0xC9A JUMP JUMPDEST DUP5 ADD SWAP2 POP POP SWAP3 SWAP2 POP POP JUMP JUMPDEST PUSH0 PUSH1 0xA0 DUP4 ADD PUSH0 DUP4 ADD MLOAD DUP5 DUP3 SUB PUSH0 DUP7 ADD MSTORE PUSH2 0xF65 DUP3 DUP3 PUSH2 0xF13 JUMP JUMPDEST SWAP2 POP POP PUSH1 0x20 DUP4 ADD MLOAD DUP5 DUP3 SUB PUSH1 0x20 DUP7 ADD MSTORE PUSH2 0xF7F DUP3 DUP3 PUSH2 0xF13 JUMP JUMPDEST SWAP2 POP POP PUSH1 0x40 DUP4 ADD MLOAD DUP5 DUP3 SUB PUSH1 0x40 DUP7 ADD MSTORE PUSH2 0xF99 DUP3 DUP3 PUSH2 0xF13 JUMP JUMPDEST SWAP2 POP POP PUSH1 0x60 DUP4 ADD MLOAD DUP5 DUP3 SUB PUSH1 0x60 DUP7 ADD MSTORE PUSH2 0xFB3 DUP3 DUP3 PUSH2 0xF13 JUMP JUMPDEST SWAP2 POP POP PUSH1 0x80 DUP4 ADD MLOAD DUP5 DUP3 SUB PUSH1 0x80 DUP7 ADD MSTORE PUSH2 0xFCD DUP3 DUP3 PUSH2 0xF13 JUMP JUMPDEST SWAP2 POP POP DUP1 SWAP2 POP POP SWAP3 SWAP2 POP POP JUMP JUMPDEST PUSH0 DUP2 SWAP1 POP SWAP2 SWAP1 POP JUMP JUMPDEST PUSH2 0xFEC DUP2 PUSH2 0xFDA JUMP JUMPDEST DUP3 MSTORE POP POP JUMP JUMPDEST PUSH0 PUSH2 0x120 DUP3 ADD SWAP1 POP DUP2 DUP2 SUB PUSH0 DUP4 ADD MSTORE PUSH2 0x100B DUP2 DUP13 PUSH2 0xE57 JUMP JUMPDEST SWAP1 POP DUP2 DUP2 SUB PUSH1 0x20 DUP4 ADD MSTORE PUSH2 0x101F DUP2 DUP12 PUSH2 0xE57 JUMP JUMPDEST SWAP1 POP DUP2 DUP2 SUB PUSH1 0x40 DUP4 ADD MSTORE PUSH2 0x1033 DUP2 DUP11 PUSH2 0xE57 JUMP JUMPDEST SWAP1 POP DUP2 DUP2 SUB PUSH1 0x60 DUP4 ADD MSTORE PUSH2 0x1047 DUP2 DUP10 PUSH2 0xE57 JUMP JUMPDEST SWAP1 POP DUP2 DUP2 SUB PUSH1 0x80 DUP4 ADD MSTORE PUSH2 0x105B DUP2 DUP9 PUSH2 0xE57 JUMP JUMPDEST SWAP1 POP DUP2 DUP2 SUB PUSH1 0xA0 DUP4 ADD MSTORE PUSH2 0x106F DUP2 DUP8 PUSH2 0xE57 JUMP JUMPDEST SWAP1 POP DUP2 DUP2 SUB PUSH1 0xC0 DUP4 ADD MSTORE PUSH2 0x1083 DUP2 DUP7 PUSH2 0xF4B JUMP JUMPDEST SWAP1 POP PUSH2 0x1092 PUSH1 0xE0 DUP4 ADD DUP6 PUSH2 0xFE3 JUMP JUMPDEST PUSH2 0x10A0 PUSH2 0x100 DUP4 ADD DUP5 PUSH2 0xFE3 JUMP JUMPDEST SWAP11 SWAP10 POP POP POP POP POP POP POP POP POP POP JUMP JUMPDEST PUSH0 DUP1 PUSH0 DUP1 PUSH0 PUSH1 0xA0 DUP7 DUP9 SUB SLT ISZERO PUSH2 0x10C7 JUMPI PUSH2 0x10C6 PUSH2 0xC8A JUMP JUMPDEST JUMPDEST PUSH0 DUP7 ADD CALLDATALOAD PUSH8 0xFFFFFFFFFFFFFFFF DUP2 GT ISZERO PUSH2 0x10E4 JUMPI PUSH2 0x10E3 PUSH2 0xC8E JUMP JUMPDEST JUMPDEST PUSH2 0x10F0 DUP9 DUP3 DUP10 ADD PUSH2 0xDA1 JUMP JUMPDEST SWAP6 POP POP PUSH1 0x20 DUP7 ADD CALLDATALOAD PUSH8 0xFFFFFFFFFFFFFFFF DUP2 GT ISZERO PUSH2 0x1111 JUMPI PUSH2 0x1110 PUSH2 0xC8E JUMP JUMPDEST JUMPDEST PUSH2 0x111D DUP9 DUP3 DUP10 ADD PUSH2 0xDA1 JUMP JUMPDEST SWAP5 POP POP PUSH1 0x40 DUP7 ADD CALLDATALOAD PUSH8 0xFFFFFFFFFFFFFFFF DUP2 GT ISZERO PUSH2 0x113E JUMPI PUSH2 0x113D PUSH2 0xC8E JUMP JUMPDEST JUMPDEST PUSH2 0x114A DUP9 DUP3 DUP10 ADD PUSH2 0xDA1 JUMP JUMPDEST SWAP4 POP POP PUSH1 0x60 DUP7 ADD CALLDATALOAD PUSH8 0xFFFFFFFFFFFFFFFF DUP2 GT ISZERO PUSH2 0x116B JUMPI PUSH2 0x116A PUSH2 0xC8E JUMP JUMPDEST JUMPDEST PUSH2 0x1177 DUP9 DUP3 DUP10 ADD PUSH2 0xDA1 JUMP JUMPDEST SWAP3 POP POP PUSH1 0x80 DUP7 ADD CALLDATALOAD PUSH8 0xFFFFFFFFFFFFFFFF DUP2 GT ISZERO PUSH2 0x1198 JUMPI PUSH2 0x1197 PUSH2 0xC8E JUMP JUMPDEST JUMPDEST PUSH2 0x11A4 DUP9 DUP3 DUP10 ADD PUSH2 0xDA1 JUMP JUMPDEST SWAP2 POP POP SWAP3 SWAP6 POP SWAP3 SWAP6 SWAP1 SWAP4 POP JUMP JUMPDEST PUSH0 DUP1 PUSH0 DUP1 PUSH0 DUP1 PUSH0 DUP1 PUSH0 DUP1 PUSH0 PUSH2 0x160 DUP13 DUP15 SUB SLT ISZERO PUSH2 0x11D1 JUMPI PUSH2 0x11D0 PUSH2 0xC8A JUMP JUMPDEST JUMPDEST PUSH0 DUP13 ADD CALLDATALOAD PUSH8 0xFFFFFFFFFFFFFFFF DUP2 GT ISZERO PUSH2 0x11EE JUMPI PUSH2 0x11ED PUSH2 0xC8E JUMP JUMPDEST JUMPDEST PUSH2 0x11FA DUP15 DUP3 DUP16 ADD PUSH2 0xDA1 JUMP JUMPDEST SWAP12 POP POP PUSH1 0x20 DUP13 ADD CALLDATALOAD PUSH8 0xFFFFFFFFFFFFFFFF DUP2 GT ISZERO PUSH2 0x121B JUMPI PUSH2 0x121A PUSH2 0xC8E JUMP JUMPDEST JUMPDEST PUSH2 0x1227 DUP15 DUP3 DUP16 ADD PUSH2 0xDA1 JUMP JUMPDEST SWAP11 POP POP PUSH1 0x40 DUP13 ADD CALLDATALOAD PUSH8 0xFFFFFFFFFFFFFFFF DUP2 GT ISZERO PUSH2 0x1248 JUMPI PUSH2 0x1247 PUSH2 0xC8E JUMP JUMPDEST JUMPDEST PUSH2 0x1254 DUP15 DUP3 DUP16 ADD PUSH2 0xDA1 JUMP JUMPDEST SWAP10 POP POP PUSH1 0x60 DUP13 ADD CALLDATALOAD PUSH8 0xFFFFFFFFFFFFFFFF DUP2 GT ISZERO PUSH2 0x1275 JUMPI PUSH2 0x1274 PUSH2 0xC8E JUMP JUMPDEST JUMPDEST PUSH2 0x1281 DUP15 DUP3 DUP16 ADD PUSH2 0xDA1 JUMP JUMPDEST SWAP9 POP POP PUSH1 0x80 DUP13 ADD CALLDATALOAD PUSH8 0xFFFFFFFFFFFFFFFF DUP2 GT ISZERO PUSH2 0x12A2 JUMPI PUSH2 0x12A1 PUSH2 0xC8E JUMP JUMPDEST JUMPDEST PUSH2 0x12AE DUP15 DUP3 DUP16 ADD PUSH2 0xDA1 JUMP JUMPDEST SWAP8 POP POP PUSH1 0xA0 DUP13 ADD CALLDATALOAD PUSH8 0xFFFFFFFFFFFFFFFF DUP2 GT ISZERO PUSH2 0x12CF JUMPI PUSH2 0x12CE PUSH2 0xC8E JUMP JUMPDEST JUMPDEST PUSH2 0x12DB DUP15 DUP3 DUP16 ADD PUSH2 0xDA1 JUMP JUMPDEST SWAP7 POP POP PUSH1 0xC0 DUP13 ADD CALLDATALOAD PUSH8 0xFFFFFFFFFFFFFFFF DUP2 GT ISZERO PUSH2 0x12FC JUMPI PUSH2 0x12FB PUSH2 0xC8E JUMP JUMPDEST JUMPDEST PUSH2 0x1308 DUP15 DUP3 DUP16 ADD PUSH2 0xDA1 JUMP JUMPDEST SWAP6 POP POP PUSH1 0xE0 DUP13 ADD CALLDATALOAD PUSH8 0xFFFFFFFFFFFFFFFF DUP2 GT ISZERO PUSH2 0x1329 JUMPI PUSH2 0x1328 PUSH2 0xC8E JUMP JUMPDEST JUMPDEST PUSH2 0x1335 DUP15 DUP3 DUP16 ADD PUSH2 0xDA1 JUMP JUMPDEST SWAP5 POP POP PUSH2 0x100 DUP13 ADD CALLDATALOAD PUSH8 0xFFFFFFFFFFFFFFFF DUP2 GT ISZERO PUSH2 0x1357 JUMPI PUSH2 0x1356 PUSH2 0xC8E JUMP JUMPDEST JUMPDEST PUSH2 0x1363 DUP15 DUP3 DUP16 ADD PUSH2 0xDA1 JUMP JUMPDEST SWAP4 POP POP PUSH2 0x120 DUP13 ADD CALLDATALOAD PUSH8 0xFFFFFFFFFFFFFFFF DUP2 GT ISZERO PUSH2 0x1385 JUMPI PUSH2 0x1384 PUSH2 0xC8E JUMP JUMPDEST JUMPDEST PUSH2 0x1391 DUP15 DUP3 DUP16 ADD PUSH2 0xDA1 JUMP JUMPDEST SWAP3 POP POP PUSH2 0x140 DUP13 ADD CALLDATALOAD PUSH8 0xFFFFFFFFFFFFFFFF DUP2 GT ISZERO PUSH2 0x13B3 JUMPI PUSH2 0x13B2 PUSH2 0xC8E JUMP JUMPDEST JUMPDEST PUSH2 0x13BF DUP15 DUP3 DUP16 ADD PUSH2 0xDA1 JUMP JUMPDEST SWAP2 POP POP SWAP3 SWAP6 SWAP9 SWAP12 POP SWAP3 SWAP6 SWAP9 SWAP12 SWAP1 SWAP4 SWAP7 SWAP10 POP JUMP JUMPDEST PUSH0 DUP2 SWAP1 POP SWAP3 SWAP2 POP POP JUMP JUMPDEST PUSH0 PUSH2 0x13E6 DUP3 PUSH2 0xE15 JUMP JUMPDEST PUSH2 0x13F0 DUP2 DUP6 PUSH2 0x13D2 JUMP JUMPDEST SWAP4 POP PUSH2 0x1400 DUP2 DUP6 PUSH1 0x20 DUP7 ADD PUSH2 0xE2F JUMP JUMPDEST DUP1 DUP5 ADD SWAP2 POP POP SWAP3 SWAP2 POP POP JUMP JUMPDEST PUSH0 PUSH2 0x1417 DUP3 DUP5 PUSH2 0x13DC JUMP JUMPDEST SWAP2 POP DUP2 SWAP1 POP SWAP3 SWAP2 POP POP JUMP JUMPDEST PUSH32 0x4E487B7100000000000000000000000000000000000000000000000000000000 PUSH0 MSTORE PUSH1 0x22 PUSH1 0x4 MSTORE PUSH1 0x24 PUSH0 REVERT JUMPDEST PUSH0 PUSH1 0x2 DUP3 DIV SWAP1 POP PUSH1 0x1 DUP3 AND DUP1 PUSH2 0x1466 JUMPI PUSH1 0x7F DUP3 AND SWAP2 POP JUMPDEST PUSH1 0x20 DUP3 LT DUP2 SUB PUSH2 0x1479 JUMPI PUSH2 0x1478 PUSH2 0x1422 JUMP JUMPDEST JUMPDEST POP SWAP2 SWAP1 POP JUMP JUMPDEST PUSH0 DUP2 SWAP1 POP DUP2 PUSH0 MSTORE PUSH1 0x20 PUSH0 KECCAK256 SWAP1 POP SWAP2 SWAP1 POP JUMP JUMPDEST PUSH0 PUSH1 0x20 PUSH1 0x1F DUP4 ADD DIV SWAP1 POP SWAP2 SWAP1 POP JUMP JUMPDEST PUSH0 DUP3 DUP3 SHL SWAP1 POP SWAP3 SWAP2 POP POP JUMP JUMPDEST PUSH0 PUSH1 0x8 DUP4 MUL PUSH2 0x14DB PUSH32 0xFFFFFFFFFFFFFFFFFFFFFFFFFFFFFFFFFFFFFFFFFFFFFFFFFFFFFFFFFFFFFFFF DUP3 PUSH2 0x14A0 JUMP JUMPDEST PUSH2 0x14E5 DUP7 DUP4 PUSH2 0x14A0 JUMP JUMPDEST SWAP6 POP DUP1 NOT DUP5 AND SWAP4 POP DUP1 DUP7 AND DUP5 OR SWAP3 POP POP POP SWAP4 SWAP3 POP POP POP JUMP JUMPDEST PUSH0 DUP2 SWAP1 POP SWAP2 SWAP1 POP JUMP JUMPDEST PUSH0 PUSH2 0x1520 PUSH2 0x151B PUSH2 0x1516 DUP5 PUSH2 0xFDA JUMP JUMPDEST PUSH2 0x14FD JUMP JUMPDEST PUSH2 0xFDA JUMP JUMPDEST SWAP1 POP SWAP2 SWAP1 POP JUMP JUMPDEST PUSH0 DUP2 SWAP1 POP SWAP2 SWAP1 POP JUMP JUMPDEST PUSH2 0x1539 DUP4 PUSH2 0x1506 JUMP JUMPDEST PUSH2 0x154D PUSH2 0x1545 DUP3 PUSH2 0x1527 JUMP JUMPDEST DUP5 DUP5 SLOAD PUSH2 0x14AC JUMP JUMPDEST DUP3 SSTORE POP POP POP POP JUMP JUMPDEST PUSH0 SWAP1 JUMP JUMPDEST PUSH2 0x1561 PUSH2 0x1555 JUMP JUMPDEST PUSH2 0x156C DUP2 DUP5 DUP5 PUSH2 0x1530 JUMP JUMPDEST POP POP POP JUMP JUMPDEST JUMPDEST DUP2 DUP2 LT ISZERO PUSH2 0x158F JUMPI PUSH2 0x1584 PUSH0 DUP3 PUSH2 0x1559 JUMP JUMPDEST PUSH1 0x1 DUP2 ADD SWAP1 POP PUSH2 0x1572 JUMP JUMPDEST POP POP JUMP JUMPDEST PUSH1 0x1F DUP3 GT ISZERO PUSH2 0x15D4 JUMPI PUSH2 0x15A5 DUP2 PUSH2 0x147F JUMP JUMPDEST PUSH2 0x15AE DUP5 PUSH2 0x1491 JUMP JUMPDEST DUP2 ADD PUSH1 0x20 DUP6 LT ISZERO PUSH2 0x15BD JUMPI DUP2 SWAP1 POP JUMPDEST PUSH2 0x15D1 PUSH2 0x15C9 DUP6 PUSH2 0x1491 JUMP JUMPDEST DUP4 ADD DUP3 PUSH2 0x1571 JUMP JUMPDEST POP POP JUMPDEST POP POP POP JUMP JUMPDEST PUSH0 DUP3 DUP3 SHR SWAP1 POP SWAP3 SWAP2 POP POP JUMP JUMPDEST PUSH0 PUSH2 0x15F4 PUSH0 NOT DUP5 PUSH1 0x8 MUL PUSH2 0x15D9 JUMP JUMPDEST NOT DUP1 DUP4 AND SWAP2 POP POP SWAP3 SWAP2 POP POP JUMP JUMPDEST PUSH0 PUSH2 0x160C DUP4 DUP4 PUSH2 0x15E5 JUMP JUMPDEST SWAP2 POP DUP3 PUSH1 0x2 MUL DUP3 OR SWAP1 POP SWAP3 SWAP2 POP POP JUMP JUMPDEST PUSH2 0x1625 DUP3 PUSH2 0xE15 JUMP JUMPDEST PUSH8 0xFFFFFFFFFFFFFFFF DUP2 GT ISZERO PUSH2 0x163E JUMPI PUSH2 0x163D PUSH2 0xCAA JUMP JUMPDEST JUMPDEST PUSH2 0x1648 DUP3 SLOAD PUSH2 0x144F JUMP JUMPDEST PUSH2 0x1653 DUP3 DUP3 DUP6 PUSH2 0x1593 JUMP JUMPDEST PUSH0 PUSH1 0x20 SWAP1 POP PUSH1 0x1F DUP4 GT PUSH1 0x1 DUP2 EQ PUSH2 0x1684 JUMPI PUSH0 DUP5 ISZERO PUSH2 0x1672 JUMPI DUP3 DUP8 ADD MLOAD SWAP1 POP JUMPDEST PUSH2 0x167C DUP6 DUP3 PUSH2 0x1601 JUMP JUMPDEST DUP7 SSTORE POP PUSH2 0x16E3 JUMP JUMPDEST PUSH1 0x1F NOT DUP5 AND PUSH2 0x1692 DUP7 PUSH2 0x147F JUMP JUMPDEST PUSH0 JUMPDEST DUP3 DUP2 LT ISZERO PUSH2 0x16B9 JUMPI DUP5 DUP10 ADD MLOAD DUP3 SSTORE PUSH1 0x1 DUP3 ADD SWAP2 POP PUSH1 0x20 DUP6 ADD SWAP5 POP PUSH1 0x20 DUP2 ADD SWAP1 POP PUSH2 0x1694 JUMP JUMPDEST DUP7 DUP4 LT ISZERO PUSH2 0x16D6 JUMPI DUP5 DUP10 ADD MLOAD PUSH2 0x16D2 PUSH1 0x1F DUP10 AND DUP3 PUSH2 0x15E5 JUMP JUMPDEST DUP4 SSTORE POP JUMPDEST PUSH1 0x1 PUSH1 0x2 DUP9 MUL ADD DUP9 SSTORE POP POP POP JUMPDEST POP POP POP POP POP POP JUMP JUMPDEST PUSH0 PUSH1 0xA0 DUP3 ADD SWAP1 POP DUP2 DUP2 SUB PUSH0 DUP4 ADD MSTORE PUSH2 0x1703 DUP2 DUP9 PUSH2 0xE57 JUMP JUMPDEST SWAP1 POP DUP2 DUP2 SUB PUSH1 0x20 DUP4 ADD MSTORE PUSH2 0x1717 DUP2 DUP8 PUSH2 0xE57 JUMP JUMPDEST SWAP1 POP DUP2 DUP2 SUB PUSH1 0x40 DUP4 ADD MSTORE PUSH2 0x172B DUP2 DUP7 PUSH2 0xE57 JUMP JUMPDEST SWAP1 POP DUP2 DUP2 SUB PUSH1 0x60 DUP4 ADD MSTORE PUSH2 0x173F DUP2 DUP6 PUSH2 0xE57 JUMP JUMPDEST SWAP1 POP PUSH2 0x174E PUSH1 0x80 DUP4 ADD DUP5 PUSH2 0xFE3 JUMP JUMPDEST SWAP7 SWAP6 POP POP POP POP POP POP JUMP INVALID LOG2 PUSH5 0x6970667358 0x22 SLT KECCAK256 0xFB SELFBALANCE 0x2E 0xDF 0x24 PUSH0 PUSH27 0x66111D6990D7270FE1F4A5805CB67105546BCF07772B22CAF26473 PUSH16 0x6C634300081800330000000000000000 "
				},
				"gasEstimates": {
					"creation": {
						"codeDepositCost": "1206000",
						"executionCost": "1252",
						"totalCost": "1207252"
					},
					"external": {
						"createUser(string,string,string,string,string,string,string,string,string,string,string)": "infinite",
						"getUserDetails(string)": "infinite",
						"updateUserDetails(string,string,string,string,string)": "infinite",
						"users(string)": "infinite"
					}
				},
				"methodIdentifiers": {
					"createUser(string,string,string,string,string,string,string,string,string,string,string)": "e37bcb3b",
					"getUserDetails(string)": "085ba074",
					"updateUserDetails(string,string,string,string,string)": "d50f69ea",
					"users(string)": "689e1c03"
				}
			},
			"storageLayout": {
				"storage": [
					{
						"astId": 37,
						"contract": "users.sol:UserCRUD",
						"label": "users",
						"offset": 0,
						"slot": "0",
						"type": "t_mapping(t_string_memory_ptr,t_struct(User)21_storage)"
					}
				],
				"types": {
					"t_mapping(t_string_memory_ptr,t_struct(User)21_storage)": {
						"encoding": "mapping",
						"key": "t_string_memory_ptr",
						"label": "mapping(string => struct UserCRUD.User)",
						"numberOfBytes": "32",
						"value": "t_struct(User)21_storage"
					},
					"t_string_memory_ptr": {
						"encoding": "bytes",
						"label": "string",
						"numberOfBytes": "32"
					},
					"t_string_storage": {
						"encoding": "bytes",
						"label": "string",
						"numberOfBytes": "32"
					},
					"t_struct(User)21_storage": {
						"encoding": "inplace",
						"label": "struct UserCRUD.User",
						"members": [
							{
								"astId": 3,
								"contract": "users.sol:UserCRUD",
								"label": "_id",
								"offset": 0,
								"slot": "0",
								"type": "t_string_storage"
							},
							{
								"astId": 5,
								"contract": "users.sol:UserCRUD",
								"label": "name",
								"offset": 0,
								"slot": "1",
								"type": "t_string_storage"
							},
							{
								"astId": 7,
								"contract": "users.sol:UserCRUD",
								"label": "role",
								"offset": 0,
								"slot": "2",
								"type": "t_string_storage"
							},
							{
								"astId": 9,
								"contract": "users.sol:UserCRUD",
								"label": "mobile",
								"offset": 0,
								"slot": "3",
								"type": "t_string_storage"
							},
							{
								"astId": 11,
								"contract": "users.sol:UserCRUD",
								"label": "password",
								"offset": 0,
								"slot": "4",
								"type": "t_string_storage"
							},
							{
								"astId": 13,
								"contract": "users.sol:UserCRUD",
								"label": "email",
								"offset": 0,
								"slot": "5",
								"type": "t_string_storage"
							},
							{
								"astId": 16,
								"contract": "users.sol:UserCRUD",
								"label": "addressInfo",
								"offset": 0,
								"slot": "6",
								"type": "t_struct(addressData)32_storage"
							},
							{
								"astId": 18,
								"contract": "users.sol:UserCRUD",
								"label": "created",
								"offset": 0,
								"slot": "11",
								"type": "t_uint256"
							},
							{
								"astId": 20,
								"contract": "users.sol:UserCRUD",
								"label": "updated",
								"offset": 0,
								"slot": "12",
								"type": "t_uint256"
							}
						],
						"numberOfBytes": "416"
					},
					"t_struct(addressData)32_storage": {
						"encoding": "inplace",
						"label": "struct UserCRUD.addressData",
						"members": [
							{
								"astId": 23,
								"contract": "users.sol:UserCRUD",
								"label": "address1",
								"offset": 0,
								"slot": "0",
								"type": "t_string_storage"
							},
							{
								"astId": 25,
								"contract": "users.sol:UserCRUD",
								"label": "address2",
								"offset": 0,
								"slot": "1",
								"type": "t_string_storage"
							},
							{
								"astId": 27,
								"contract": "users.sol:UserCRUD",
								"label": "city",
								"offset": 0,
								"slot": "2",
								"type": "t_string_storage"
							},
							{
								"astId": 29,
								"contract": "users.sol:UserCRUD",
								"label": "state",
								"offset": 0,
								"slot": "3",
								"type": "t_string_storage"
							},
							{
								"astId": 31,
								"contract": "users.sol:UserCRUD",
								"label": "pin",
								"offset": 0,
								"slot": "4",
								"type": "t_string_storage"
							}
						],
						"numberOfBytes": "160"
					},
					"t_uint256": {
						"encoding": "inplace",
						"label": "uint256",
						"numberOfBytes": "32"
					}
				}
			},
			"userdoc": {
				"kind": "user",
				"methods": {},
				"version": 1
			}
		}
	}
}